:100000000C94FA0B0C94220C0C94220C0C943428B3
:100010000C94EE270C94A8270C94220C0C94220C20
:100020000C94220C0C94220C0C947A280C94E52845
:100030000C94220C0C94220C0C94220C0C94220C88
:100040000C943F260C94220C0C940D260C94E7255E
:100050000C94220C0C94220C0C94220C0C94220C68
:100060000C9489260C94220C0D000A004E42004488
:100070004247005649544553534500535045454463
:100080000046494E414C00494E495449414C0050AC
:100090004552494F444500504552494F4400454E52
:1000A0005445544500484541444552004D4F445540
:1000B00000564F4945004348414E4E454C0054457B
:1000C0005354004D45535341474500524550455404
:1000D00000524550454154004D4F4445005445524F
:1000E0004D0052580053425553005243554C004561
:1000F000434F4C41474500545241494E4552004CF4
:1001000049474E45004C494E450056455253494FCC
:100110004E00414944450048454C5000434F4E462F
:10012000004350504D0050574D00524150494445F6
:10013000004E4F524D414C450046415354004E4FE6
:10014000524D414C00504F53004E4547004F4E001A
:100150004F464600414E474C4500414E474C452BCB
:10016000414E4100414E474C452B414E415F494E67
:10017000560043312D4331360043392D433136008B
:1001800043312D43380046555441424100465554B1
:100190004142415F494E5600534255535F4F5554BB
:1001A000004350504D5F4F5554004350504D5F4FEA
:1001B00055542B4350504D5F494E0043520043521B
:1001C0004C4600465200554B006C00DD00D800D173
:1001D00000CB00C300BE00B600B100AC00A5009E7D
:1001E0000097008F00870081007B0073006F001C68
:1001F00001170112010A011F170501FF00F700EFA7
:1002000000EA002101E500E2006A0068002573426F
:100210005552432025735625642E2564002D2D202C
:10022000202020202D2D2D2D2D2D2D2D2D2D20204C
:100230002020202D2D2D2D2F2F2D2D2D2D20202038
:1002400020202D2D2D2D2D2D2D2D2D2D202020202C
:10025000202D2D2D2D2D2D2D2D2D2D2D2D2D2D2DDB
:100260002D2D2D2D002020202D2D2D202020202053
:10027000202020202020202D2D2D20202020202057
:100280002020202020202D2D2D2020202020202047
:1002900020202020202D2D2D202020202020202037
:1002A000202020202020202020202020202D2D2D27
:1002B000002020202020202020202020202020205E
:1002C000202020202020202020202020202020202E
:1002D00020506572696F640020203C2D2D2D2D2D3E
:1002E0002D2D2D2D2D2D2D2D2D2D2D2D2D2D2D2D3E
:1002F0002D2D2D2D2D2D2D2D2D2D2D2D2D2D2D2D2E
:100300002D2D2D2D2D2D2D2D2D2D2D2D2D2D2D2D1D
:100310002D2D2D2D2D2D2D2D2D2D2D2D2D3E002036
:10032000204865616465720020203C2D2D2D3E0023
:1003300020207C2020207C202043483120202020A9
:10034000207C2020207C20202020202020202020F5
:100350007C2020207C202043482573202020207CE6
:100360002020207C20202020202053796E6368727A
:100370006F2020202020207C2020207C003D3D3D3F
:100380003D3D3D3D3D3D3D3D3D3D3D3D3D003D3DDA
:1003900000204350504D206672616D653A004669F9
:1003A0006E616C00496E697469616C00202852436B
:1003B000554C2564206D657373616765202D3E2063
:1003C0004348256429002D506572696F64202875A3
:1003D00073292020203D202564002D486561646537
:1003E0007220287573292020203D202564002D438C
:1003F00068616E6E656C204E62202020203D2025B5
:1004000064002D4D6F64756C6174696F6E202020DF
:10041000203D202573003D3D3D3D3D3D3D3D3D3D65
:100420003D3D3D3D3D3D3D3D3D3D3D3D3D3D3D3DFC
:10043000003D3D00204350504D2063686172616370
:100440007465726973746963733A0046696E616CAE
:1004500000496E697469616C002E002E002E000048
:10046000000000240027002A0000000000250028CA
:10047000002B000000000800020100000304070038
:10048000000000000000004350504D207369676E6B
:10049000616C204F4B21004E6F204350504D207314
:1004A00069676E616C2100000438047004A804E0E0
:1004B00004180550058805C005F80530066806A033
:1004C00006D806100748078007B80748FCB8FC287C
:1004D000FD98FD08FE78FEE8FE58FFC8FF3800A82A
:1004E0000018018801F8016802D8024803B8032007
:1004F0002D3E20002A2A2A2A2A2A2A2A2A2A2A2A79
:100500002A2A2A2A2A2A2A2A2A2A00202500205290
:1005100043554C207175616C697479203D20002A27
:100520002A2A2A2A2A2A2A2A2A2A2A2A2A2A2A2A2B
:100530002A2A2A2A2A005243554C204C656E677499
:1005400068206F7220436865636B73756D206572F8
:10055000726F7221005243554C204C656E6774686F
:10056000206572726F7221204578704E6962626CEC
:10057000654C656E3D256420202852784E69626284
:100580006C654C656E3D2564290020416E613D30EF
:10059000782530325800416E676C653D2533752EE5
:1005A0002575C2B0202825303475292028307825BB
:1005B0003033582900436F6E746163745B382E2E9C
:1005C000315D3D00436F6E746163745B31362E2E76
:1005D000315D3D0020543D005D3D005243554C20AF
:1005E0004D73675B546F744E626C3D0002020405EC
:1005F0000503E4031C041C04540454048C048C04FC
:10060000C404C404FC04FC04340534056C056C0506
:10061000A405A405DC05DC05140614064C064C06EE
:1006200084068406BC06BC06F406F4062C072C07D8
:10063000640764079C079C07D4076E6F6D5F636F48
:100640006D6D616E64653F202020202020202020D9
:10065000202020202020202020202020202020209A
:10066000202020202020202020202020202020208A
:100670002020202020202052656E766F6965206C36
:10068000612076616C65757220636F7572616E743E
:1006900065206465206C6120636F6D6D616E6465BB
:1006A00020226E6F6D5F636F6D6D616E64652220D9
:1006B0002845783A2045434F4C4147452E4D4F44FD
:1006C000453F2900434F4E463F2020202020202038
:1006D000202020202020202020202020202020201A
:1006E000202020202020202020202020202020200A
:1006F00020202020202020202020202020202020FA
:100700002052656E766F6965206C6120636F6E663E
:10071000696775726174696F6E20636F6D706C6567
:1007200074650052582E4442473D4E6976656175A6
:100730004465627567202020202020202020202072
:1007400020202020202020202020202020202020A9
:100750002020202020202020202020202020202099
:10076000446566696E6974206C65206E69766561A2
:100770007520646520646562756720656E20525837
:100780002028456E747265652044382920284E69FA
:1007900076656175204D73673A204E69766561759F
:1007A00044656275673D312C204E69766561752020
:1007B000717561727465743A204E6976656175442D
:1007C000656275673D32290052582E4D4F44453DB4
:1007D0004F46462F5243554C784050574D2F524369
:1007E000554C78404350504D782020202020202028
:1007F00020202020202020202020202020202020F9
:100800002020202020446566696E6974206C652074
:100810006D6F64652052582061204F46462C205051
:10082000574D206F75204350504D782028456E74E9
:100830007265652044382920287820657374206CFF
:1008400065206E756D65726F20646520766F6965D1
:1008500029005243554C782E544553543D4F46463B
:100860002F4F4E202020202020202020202020201C
:100870002020202020202020202020202020202078
:100880002020202020202020202020202020204444
:100890006566696E6974206C65206D6F646520649F
:1008A0006520746573742064652062616C61796190
:1008B0006765206465206C27696E7374616E63657B
:1008C000205243554C207820287820646520312020
:1008D00061203629005243554C782E564F49453DEC
:1008E00079202020202020202020202020202020AF
:1008F00020202020202020202020202020202020F8
:1009000020202020202020202020202020202020E7
:100910002020446566696E6974206C6120766F6979
:1009200065207920287920646520312061203136C6
:1009300029206465206C27696E7374616E6365207D
:100940005243554C2078202878206465203120615E
:10095000203629005243554C2E52455045543D787F
:100960002020202020202020202020202020202087
:100970002020202020202020202020202020202077
:100980002020202020202020202020202020202067
:1009900020446566696E6974206C65206E6F6D62B7
:1009A00072652064652072657065746974696F6E24
:1009B00020287820646520302061203329005342AC
:1009C00055532E564954455353453D4E4F524D4174
:1009D0004C452F52415049444520202020202020C2
:1009E0002020202020202020202020202020202007
:1009F0002020202020202020202020446566696EB1
:100A00006974206C61207669746573736520534244
:100A1000555320284E4F524D414C453D31346D7356
:100A20002C205241504944453D376D7329004350B5
:100A3000504D2E504552494F44453D78787878784E
:100A400020202020202020202020202020202020A6
:100A50002020202020202020202020202020202096
:100A60002020202020202020202020446566696E40
:100A70006974206C6120706572696F6465204350F1
:100A8000504D2028787878787820656E2075732905
:100A9000005243554C782E4D4553534147453D43F5
:100AA000312D43382F43392D4331362F43312D43D8
:100AB00031362F414E474C452B414E415B5F494EED
:100AC000565D2F414E474C4540307858582044657C
:100AD00066696E6974206C6520636F6E74656E75EF
:100AE0002061206C276164647265737365204932EC
:100AF000432030785858206475206D6573736167A2
:100B000065205243554C004350504D2E564F494599
:100B10002E4E423D787820202020202020202020AA
:100B200020202020202020202020202020202020C5
:100B300020202020202020202020202020202020B5
:100B400020202020446566696E6974206C65206EE3
:100B50006F6D62726520646520766F6965206475CB
:100B600020747261696E204350504D20287878209F
:100B7000646520312061203829004350504D2E45B6
:100B80004E544554453D7878782020202020202060
:100B90002020202020202020202020202020202055
:100BA0002020202020202020202020202020202045
:100BB00020202020202020446566696E6974206C06
:100BC00027656E74657465204350504D20287878F1
:100BD0007820656E20757329004350504D2E4D4F7F
:100BE00044553D4E45472F504F5320202020202074
:100BF00020202020202020202020202020202020F5
:100C000020202020202020202020202020202020E4
:100C1000202020202020446566696E6974206C6164
:100C2000206D6F64756C6174696F6E204350504D18
:100C30000045434F4C4147452E4D4F44453D4350A1
:100C4000504D5F4F55542B4350504D5F494E2F43ED
:100C500050504D5F4F55542F534255535F4F55548D
:100C60003B4655544142415B5F494E565D204465C9
:100C700066696E6974206C65206D6F6465206427F9
:100C800065636F6C616765206465206C27656D65C1
:100C90007474657572004C49474E452E5445524D4B
:100CA0003D43524C462F435220202020202020201C
:100CB0002020202020202020202020202020202034
:100CC0002020202020202020202020202020202024
:100CD000202020446566696E6974206C6520746507
:100CE000726D696E6174657572206465206C6967E8
:100CF0006E652028446570656E64206475205465B7
:100D0000726D696E616C29004C414E473D46522F11
:100D1000554B202020202020202020202020202073
:100D200020202020202020202020202020202020C3
:100D300020202020202020202020202020202020B3
:100D40002020202020446566696E6974206C65202F
:100D50006C616E6761676520636F7572616E742088
:100D60006465206C27496E7465726661636520480E
:100D70006F6D6D65204D616368696E6500636F6DB1
:100D80006D616E645F6E616D653F202020202020C4
:100D90002020202020202020202020202020202053
:100DA0002020202020202020202020202020202043
:100DB0002020202020202020202052657475726E73
:100DC000207468652063757272656E742076616C3C
:100DD0007565206F66207468652022636F6D6D6194
:100DE0006E645F6E616D652220636F6D6D616E6410
:100DF000202845673A20545241494E45522E4D4FC6
:100E000044453F2900434F4E463F202020202020CC
:100E100020202020202020202020202020202020D2
:100E200020202020202020202020202020202020C2
:100E300020202020202020202020202020202020B2
:100E4000202052657475726E207468652066756C1A
:100E50006C20636F6E66696775726174696F6E008E
:100E600052582E4442473D44656275674C6576652D
:100E70006C20202020202020202020202020202026
:100E80002020202020202020202020202020202062
:100E90002020202020202020202020202053657486
:100EA00020746865205258206465627567206C65FF
:100EB00076656C2028443820696E70757429202866
:100EC0004D7367204C6576656C3A204465627567A2
:100ED0004C6576656C3D312C204E6962626C6520F4
:100EE0004C6576656C3A2044656275674C6576653D
:100EF0006C3D32290052582E4D4F44453D4F4646D9
:100F00002F5243554C784050574D2F5243554C78F3
:100F1000404350504D7820202020202020202020A9
:100F200020202020202020202020202020202020C1
:100F3000202053657420746865205258206D6F64BA
:100F40006520746F204F46462C2050574D206F72FD
:100F5000204350504D782028443820696E707574B5
:100F60002920287820697320746865206368616E81
:100F70006E656C206E756D62657229005243554C2A
:100F8000782E544553543D4F46462F4F4E20202037
:100F90002020202020202020202020202020202051
:100FA0002020202020202020202020202020202041
:100FB0002020202020202020205365742074686584
:100FC0002073776565702074657374206D6F646538
:100FD00020666F7220746865205243554C2078203B
:100FE000696E7374616E63652028782066726F6D18
:100FF000203120746F203629005243554C782E4DF5
:101000004553534147453D43312D43382F43392DF7
:101010004331362F43312D4331362F414E474C4516
:101020002B414E415B5F494E565D2F414E474C452B
:10103000403078585820536574207468652070617A
:10104000796C6F616420617420307858582049327F
:10105000432061646472657373206F6620746865F1
:10106000205243554C206D65737361676500524390
:10107000554C782E4348414E4E454C3D792020201A
:101080002020202020202020202020202020202060
:101090002020202020202020202020202020202050
:1010A0002020202020202020202020536574207420
:1010B0006865206368616E6E656C207920287920F0
:1010C00066726F6D203120746F2031362920666F73
:1010D0007220746865205243554C207820696E73E5
:1010E00074616E63652028782066726F6D203120F0
:1010F000746F203629005243554C2E5245504541BD
:10110000543D782020202020202020202020202036
:1011100020202020202020202020202020202020CF
:1011200020202020202020202020202020202020BF
:1011300020202053657420746865206E756D62658B
:1011400072206F66207265706561746974696F6E74
:101150002028782066726F6D203020746F2033292C
:1011600000534255532E53504545443D4E4F524D2A
:10117000414C2F4641535420202020202020202065
:10118000202020202020202020202020202020205F
:1011900020202020202020202020202020205365D7
:1011A00074207468652053425553207370656564DC
:1011B00020284E4F524D414C3D31346D732C20460A
:1011C0004153543D376D7329004350504D2E5045C7
:1011D00052494F443D78787878782020202020208C
:1011E00020202020202020202020202020202020FF
:1011F00020202020202020202020202020202020EF
:1012000020202020202053657420746865204350DE
:10121000504D20706572696F6420287878787878EE
:1012200020696E20757329004350504D2E4348416C
:101230004E4E454C2E4E423D7878202020202020D6
:10124000202020202020202020202020202020209E
:10125000202020202020202020202020202020208E
:10126000202020202053657420746865204350504E
:101270004D206368616E6E656C206E756D6265727F
:10128000202878782066726F6D203120746F2038A6
:1012900029004350504D2E4845414445523D7878F1
:1012A00078202020202020202020202020202020E6
:1012B000202020202020202020202020202020202E
:1012C00020202020202020202020202020202053EB
:1012D000657420746865204350504D2068656164D2
:1012E0006572202878787820696E2075732900430C
:1012F00050504D2E4D4F44553D4E45472F504F5366
:1013000020202020202020202020202020202020DD
:1013100020202020202020202020202020202020CD
:1013200020202020202020202020202053657420F1
:10133000746865204350504D206D6F64756C617406
:10134000696F6E00545241494E45522E4D4F4445EF
:101350003D4350504D5F4F55542B4350504D5F49C6
:101360004E2F4350504D5F4F55542F534255535FAE
:101370004F55543B4655544142415B5F494E565D83
:10138000205365742074686520547261696E6572BB
:10139000206D6F6465206F662074686520747261CB
:1013A0006E736D6974746572004C494E452E5445D8
:1013B000524D3D43524C462F4352202020202020A6
:1013C000202020202020202020202020202020201D
:1013D000202020202020202020202020202020200D
:1013E00020202020202053657420746865206C69BB
:1013F0006E65207465726D696E61746F7220285419
:1014000065726D696E616C20646570656E64656E91
:101410007429004C414E473D554B2F465220202009
:1014200020202020202020202020202020202020BC
:1014300020202020202020202020202020202020AC
:10144000202020202020202020202020202020209C
:10145000536574207468652063757272656E7420BC
:101460006C616E6775616765206F662074686520C2
:1014700048756D616E20436F6D707574657220499B
:101480006E74657266616365002575003A20506F61
:10149000737369626C65207365756C656D656E74D8
:1014A00020617665632045434F4C4147452E4D4FA3
:1014B00044453D4350504D5F4F5554003A204F6EC8
:1014C0006C7920706F737369626C652077697468DA
:1014D00020545241494E45522E4D4F44453D4350B4
:1014E000504D5F4F5554002575005243554C25759E
:1014F00040004F4646005001260121015243554C01
:10150000004F46460031012A013E01390125750090
:10151000257500257500490145014350504D2E5059
:101520004552494F44453F004350504D2E5045527F
:10153000494F443F004350504D2E564F49452E4E83
:10154000423F004350504D2E4348414E4E454C2E95
:101550004E423F004350504D2E454E544554453F5A
:10156000004350504D2E4845414445523F004350A2
:10157000504D2E4D4F44553F0050014D01403078A5
:1015800025303258003A20436F6E74656E752064C2
:1015900065206D6573736167652070617320706F7E
:1015A000737369626C65206176656320636574742A
:1015B0006520616472657373652049324321003A86
:1015C000204D65737361676520636F6E74656E741B
:1015D000206E6F7420706F737369626C6520776919
:1015E00074682074686973204932432061646472AE
:1015F000657373210080017901720164015A0154FD
:10160000012575002575004F4646004F464600529D
:1016100043554C5F2E564F4945005243554C5F2E63
:101620004348414E4E454C005243554C5F2E544565
:101630005354005243554C5F2E4D4553534147453B
:10164000005243554C2E52455045543F005243558D
:101650004C2E5245504541543F003B008D018601C0
:10166000AA01A1019801BE01BB01C601C3015258E4
:101670002E4442473F0052582E4D4F44453F0052A2
:1016800043554C5F2E564F49453F005243554C5FE2
:101690002E4348414E4E454C3F005243554C5F2E21
:1016A000544553543F005243554C5F2E4D455353C0
:1016B0004147453F005243554C2E52455045543FFB
:1016C000005243554C2E5245504541543F00534221
:1016D00055532E564954455353453F005342555395
:1016E0002E53504545443F004350504D3F00454325
:1016F0004F4C4147452E4D4F444500545241494EB1
:1017000045522E4D4F4445004C49474E452E5445B9
:10171000524D3F004C494E452E5445524D3F004CD2
:10172000414E47000000FFFF0101FFFF0202FFFFE3
:101730000303FFFF0404FFFF050500FF060600FF8B
:10174000070701FF080801FF0909FFFF0A0906FF53
:101750000B0907FF0C0902FF0D0903FF0E0904FF27
:101760000F0905FF100AFFFF110A08FF120A09FFFF
:10177000130A0AFF140A0600150A0700160A0BFFCF
:10178000170A0CFF180A0DFF190A0EFF1A0B0FFF9C
:101790001B0B10FF1C0C01FF1D0C11FFEF010DCBEB
:1017A0000112C901010D00437478004172670049BC
:1017B0006400436D64005E2D2D4572722000200090
:1017C000000000002300260029000404040404048F
:1017D00004040202020202020303030303030102E0
:1017E00004081020408001020408102001020408AF
:1017F0001020AD2911241FBECFEFD8E0DEBFCDBF32
:1018000011E0A0E0B1E0ECE0F5E702C005900D9238
:10181000AA3AB107D9F725E0AAEAB1E001C01D92C2
:10182000A038B207E1F71BE0CAEFDBE004C0219764
:10183000FE010E945438C93FD107C9F70E94552ABA
:101840000C94843A0C940000282F30E048E090E09B
:10185000582F5170952786954150D1F7A901592BE2
:10186000CA0120915F04222311F080959095EFB773
:10187000F89460915F04662321F1299A20E32A9568
:10188000F1F729E030E041E050E0F0E3DC01A4238F
:10189000B523AB2BC1F0299A7F2F7A95F1F7440F2E
:1018A000551F2150310991F7662379F02998EFBF30
:1018B00080E3982F9A95F1F78A95F1F781E090E00F
:1018C00008952998DBCF2998E7CF299AF0CFCF92B6
:1018D000DF92EF92FF920F931F93CF93DF938FE0EE
:1018E0000E94240CC1E6D4E080E090E0DC0110E02E
:1018F00008EFC990D990F12CE12C012E04C0CC0C3A
:10190000DD1CEE1CFF1C0A94D2F7C82AD92AEA2A49
:10191000FB2A8C2D0E94240CBB27AF2D9E2D8D2DD4
:101920001D5F183028F00E94240CC701AA27BB278E
:10193000212F269526952695209F100D112424E011
:10194000C138D207B1F680E00E94240C80E00E94EA
:10195000240C8FEF80936004DF91CF911F910F9142
:10196000FF90EF90DF90CF900895209195033091F4
:1019700096038217930701F1209197033091980302
:1019800082179307C9F02091990330919A03821727
:10199000930791F020919B03233080F4E0919B0307
:1019A000F0E0EE0FFF1FEB56FC4F91838083809198
:1019B0009B038F5F80939B0380E008958FEF0895D2
:1019C00080915D0590915E05009711F480E0089587
:1019D00060915C05629566956770DC01ED91FC9104
:1019E0000190F081E02D0995882381F380915D05B8
:1019F00090915E0560915C056F71DC01ED91FC9149
:101A00000280F381E02D0995AC01909363058093EA
:101A100062058091650580618093650522EF35E060
:101A200090E0F901659174914617570708F461C079
:101A3000F9013296659174916417750708F459C0DD
:101A400030916605432F441F4427441F809167054A
:101A5000282F2F70220F242B291352C08091670545
:101A6000282F22952F702F5F2770322F3295307FCD
:101A70008F78832B8093670530916505432F4370E2
:101A800050E04F5F5F4F2417150609F09FCF8091FC
:101A90006605903109F040C0329536953770982F21
:101AA0009370990F990F990F932B990F990F837832
:101AB000892B8093660590916605292F269526959A
:101AC0002F71322F3295330F307E809165058F71E3
:101AD000832B322F3695369536959C7F932B90939A
:101AE00066059C77943401F5877F8093650581E0D6
:101AF00008959F5F2C5F3F4F923109F092CF66CFE0
:101B000090FB37F930936605292F26952F70807842
:101B1000822B80936705A2CF9F71990F990F8378CD
:101B2000982B90936605C7CF83FD13C0B0E12B9F20
:101B3000900111242093600584608093650580E006
:101B400020916505922F977F23FF986090936505FC
:101B5000089590916005292B209360058B7F8093D9
:101B6000650581E08093640582E0EACF08950895D9
:101B7000AF92BF92CF92DF92EF92FF920F931F939B
:101B8000CF93DF936C017B018B01040F151FEB01D9
:101B90005E01AE18BF08C017D10759F06991D60190
:101BA000ED91FC910190F081E02DC6010995892B02
:101BB00079F7C501DF91CF911F910F91FF90EF90C1
:101BC000DF90CF90BF90AF900895FC01538D448D6E
:101BD000252F30E0842F90E0821B930B541710F0D8
:101BE000CF96089501970895FC01918D828D9817E5
:101BF00061F0A28DAE0FBF2FB11D5D968C91928DBD
:101C00009F5F9F73928F90E008958FEF9FEF0895ED
:101C1000FC01918D828D981731F0828DE80FF11DB6
:101C2000858D90E008958FEF9FEF0895FC01918DD1
:101C3000228D892F90E0805C9F4F821B91098F73CA
:101C40009927089584EB93E00E94160E21E0892BDA
:101C500009F420E0822F089580E090E0892B29F09C
:101C60000E94220E81110C9400000895FC01A48DA5
:101C7000A80FB92FB11DA35ABF4F2C91848D90E0AE
:101C800001968F739927848FA689B7892C93A08991
:101C9000B1898C91837080648C93938D848D98131B
:101CA00006C00288F389E02D80818F7D80830895AE
:101CB000EF92FF920F931F93CF93DF93EC0181E09C
:101CC000888F9B8D8C8D98131AC0E889F989808143
:101CD00085FF15C09FB7F894EE89FF896083E88976
:101CE000F98980818370806480839FBF81E090E068
:101CF000DF91CF911F910F91FF90EF900895F62EF5
:101D00000B8D10E00F5F1F4F0F731127E02E8C8D8E
:101D10008E110CC00FB607FCFACFE889F9898081D3
:101D200085FFF5CFCE010E94360EF1CFEB8DEC0F83
:101D3000FD2FF11DE35AFF4FF0829FB7F8940B8FF0
:101D4000EA89FB8980818062CFCFEF92FF920F9367
:101D50001F93CF93DF938C017B01D0E0C0E0F701AC
:101D6000EC0FFD1F6491662339F0C8010E94580EE4
:101D7000892B11F02196F3CFCE01DF91CF911F91E6
:101D80000F91FF90EF900895CF93DF93EC01888D32
:101D90008823B9F0AA89BB89E889F9898C9185FDE6
:101DA00003C0808186FD0DC00FB607FCF7CF8C9174
:101DB00085FFF2CF808185FFEDCFCE010E94360EE8
:101DC000E9CFDF91CF910895833081F028F48130FD
:101DD00099F08230A9F008958730A9F08830C9F0D1
:101DE0008430B1F4809180008F7D03C080918000A9
:101DF0008F7780938000089584B58F7784BD089590
:101E000084B58F7DFBCF8091B0008F778093B00039
:101E100008958091B0008F7DF9CFCF93DF93282F65
:101E200030E0F901ED58FB4F8491F901E252F84E90
:101E3000D491F901E653F84EC491CC23A1F081115D
:101E40000E94E40EEC2FF0E0EE0FFF1FE054F84E7E
:101E5000A591B491EC91ED2381E090E009F480E04C
:101E6000DF91CF91089580E090E0FACF1F93CF9358
:101E7000DF93282F30E0F901ED58FB4F8491F901F1
:101E8000E252F84ED491F901E653F84EC491CC23B6
:101E9000A9F0162F81110E94E40EEC2FF0E0EE0F56
:101EA000FF1FE759FB4FA591B4918FB7F894EC91C0
:101EB000111108C0D095DE23DC938FBFDF91CF9145
:101EC0001F910895DE2BF8CFCF93DF9390E0FC01B4
:101ED000E252F84E24918653984EFC018491882357
:101EE000C9F090E0880F991FFC01E15AFB4FA591C2
:101EF000B491FC01E759FB4FC591D49161110DC01C
:101F00009FB7F8948C91209582238C938881282305
:101F100028839FBFDF91CF910895623051F49FB71E
:101F2000F8943C91822F809583238C93E8812E2B0B
:101F3000EFCF8FB7F894EC912E2B2C938FBFEACF75
:101F40003FB7F8948091FB019091FC01A091FD01B5
:101F5000B091FE0126B5A89B05C02F3F19F0019650
:101F6000A11DB11D3FBFBA2FA92F982F8827BC01F3
:101F7000CD01620F711D811D911D42E0660F771F1B
:101F8000881F991F4A95D1F708952FB7F89460914B
:101F9000F7017091F8018091F9019091FA012FBF3A
:101FA00008952091D301260F3327331F21323105A5
:101FB000ECF420915303FC0190E080E0243069F0C0
:101FC00082E00895A091D3012191AC014D545E4F60
:101FD000A40FB52FB11D2C930196861798F380910D
:101FE000D301680F6093D30180E0089581E00895E4
:101FF0001092530381E08093320310922D0361E02D
:1020000082E10E94360F61E083E10E94360FE9EB26
:10201000F0E080818E7F808380818D7F808388E463
:102020008093B80085E48093BC000895CF93DF933C
:1020300091E09093B2018823B9F0C091B800D0919B
:10204000BA008091BC008A7B8093BC0060E082E192
:102050000E94360F60E083E10E94360F0E94F80F65
:10206000D093BA00C093B800DF91CF910895CF927A
:10207000DF92EF92FF920F931F93CF93DF93D82FAE
:10208000C62F613208F098C00E94A00F6B017C013E
:102090008091530381116BC081E08093530380933F
:1020A00032039FEF90933103109230039C0F909373
:1020B0002F0380932E0380912E03DD0FD82BD09316
:1020C0002E0380912D03813009F078C010922D03EA
:1020D0000E94A00F6B017C0180912E038093BB00B6
:1020E0008091550390915603A0915703B0915803E6
:1020F000892B8A2B8B2BA1F00E94A00F00915503F6
:102100001091560320915703309158036C197D09A3
:102110008E099F09061717072807390708F448C0D2
:102120008091BC0083FDD8CF85EC8093BC000E94D9
:10213000A00F6B017C0180915303813009F440C0F2
:10214000809130038C1710F4C0913003EDE0F3E080
:10215000A3E3B3E080E08C1355C08C2FDF91CF91C7
:102160001F910F91FF90EF90DF90CF900895809195
:10217000550390915603A0915703B0915803892BB2
:102180008A2B8B2B09F484CF0E94A00F009155035A
:102190001091560320915703309158036C197D0913
:1021A0008E099F09061717072807390708F070CF0F
:1021B000809154030E941610C0E0CFCF85EEB5CFBA
:1021C0008091550390915603A0915703B091580305
:1021D000892B8A2B8B2B09F4AECF0E94A00F009184
:1021E00055031091560320915703309158036C19F1
:1021F0007D098E099F09061717072807390708F078
:102200009ACFD6CF91919D938F5FA5CF8F929F92BA
:10221000AF92BF92CF92DF92EF92FF920F931F93F4
:10222000CF93DF93D0910C03D13208F0D7C0182F91
:10223000C0910B030E94A00F6B017C01809153039E
:1022400081116BC082E080935303109332038FEFB0
:102250008093310310923003D0932F03ABEEB2E0A2
:10226000EDE0F3E080E0D81391C010922E0380914E
:102270002E03CC0FC82BC0932E0380912D038130E9
:1022800009F088C010922D030E94A00F6B017C0101
:1022900080912E038093BB0080915503909156034B
:1022A000A0915703B0915803892B8A2B8B2BA1F057
:1022B0000E94A00F009155031091560320915703DF
:1022C000309158036C197D098E099F09061717076D
:1022D0002807390708F442C08091BC0083FDD8CF9D
:1022E00085EC8093BC000E94A00F6B017C01809163
:1022F0005303823009F450C0809131038F3F09F4B9
:102300006FC080913103803209F46CC08091310339
:10231000803309F469C084E026C080915503909110
:102320005603A0915703B0915803892B8A2B8B2B0E
:1023300009F484CF0E94A00F80905503909056031B
:10234000A0905703B09058036C197D098E099F091E
:1023500086169706A806B90608F070CF8091540338
:102360000E94161085E01092EA0210920C0310925F
:10237000E902DF91CF911F910F91FF90EF90DF90D5
:10238000CF90BF90AF909F908F9008959D91919323
:102390008F5F69CF85EEA5CF80915503909156034D
:1023A000A0915703B0915803892B8A2B8B2B09F4EA
:1023B0009ECF0E94A00F00915503109156032091CB
:1023C0005703309158036C197D098E099F09061730
:1023D00017072807390708F08ACFC0CF81E0C3CF9D
:1023E00080E0C1CF82E0BFCF83E0BDCF0895E09110
:1023F0000C0280910B02E81730F4F0E0ED5CFC4F2A
:10240000808190E008958FEF9FEF089590910C02E6
:1024100080910B022FEF3FEF981748F4E92FF0E07F
:10242000ED5CFC4F208130E09F5F90930C02C9016E
:10243000089580910B0290910C02891B990B0895CD
:10244000CF92DF92EF92FF920F931F93CF93DF9380
:102450007C01CB018A012091E902222389F0EB0162
:102460006B01C40ED51ECC15DD0569F06991D7014D
:10247000ED91FC910190F081E02DC7010995F3CF1A
:10248000642F0E94D10FC801DF91CF911F910F914E
:10249000FF90EF90DF90CF900895CF93DF931F923E
:1024A000CDB7DEB769832091E9022223F9F02091AC
:1024B0000C03203258F021E030E0FC01338322830A
:1024C00090E080E00F90DF91CF9108958091EA0233
:1024D000E82FF0E0E551FD4F998190838F5F809365
:1024E000EA0280930C0381E090E0ECCF61E0CE0142
:1024F00001960E94D10FF7CFE09192033AE0E39F5B
:10250000F0011124EB56FC4F278180917C03883029
:1025100008F046C030917C0381E090E002C0880F53
:10252000991F3A95E2F7E09192034AE0E49FF001A7
:102530001124EB56FC4F3185232330E08223932373
:10254000892B09F45DC00E94A00F2091B001309149
:10255000B101AB01421B530B9A017093B10160931F
:10256000B001283B5BE03507C8F120917F03209341
:102570007E0310927F032FEF20937D033091AF01F4
:102580002091AF012E7F30FF21602093AF01209179
:10259000AF0120FF18C07093AE016093AD010895A4
:1025A00080917C0340917C038E3050F44850550B51
:1025B00081E090E002C0880F991F4A95E2F7B3CFFF
:1025C0004E50550BF5CF2091AD013091AE01621BFD
:1025D000730B7093AC016093AB01089580917F03FE
:1025E000893070F4E0917F03F0E0EE0FFF1FE058B8
:1025F000FC4F3183208380917F038F5F80937F0323
:1026000008950895662399F080917E03861778F0E7
:102610006150E62FF0E0EE0FFF1FE058FC4F808185
:1026200091812081318182179307C9F708958CED3C
:1026300095E0089520917D0330E0062E02C0359587
:1026400027950A94E2F7C9018170992720FF0CC0F1
:1026500040917D0321E030E001C0220F6A95EAF746
:102660002095242320937D030895EDE6F0E0883043
:1026700030F0EBE6F0E08E3010F0ECE6F0E0408178
:10268000282F30E0883068F421E030E0B90102C042
:10269000660F771F8A95E2F7CB01809584238083AC
:1026A00008958E3048F42850310981E090E001C04F
:1026B000880F2A95EAF7F1CF2E503109F6CFCF9344
:1026C000CFB780916E05863110F40E943513F894CF
:1026D000E0919303F091940325E0EA36F20761F468
:1026E00080916C0590916D05909394038093930372
:1026F000CFBFCF910895FC013097D1F382819381B0
:1027000025E08A369207B9F780916C0590916D05A6
:1027100093838283EDCF2091680094E0883048F065
:1027200031E08E3008F430E091E001C0990F3A9525
:10273000EAF7922B90936800EDE6F0E0883030F0F5
:10274000EBE6F0E08E3010F0ECE6F0E04081282F70
:1027500030E0883048F491E001C0990F8A95EAF79B
:10276000892F842B808308958E3040F428503109BE
:1027700081E001C0880F2A95EAF7F3CF2E50310986
:10278000F7CF80916F058C7F80936F0584EA95E188
:102790000E94B50C982F937080916F058C7F892BC8
:1027A00080936F0588E080936E0588E592E09093B2
:1027B00071058093700580E699E09093730580938E
:1027C0007205809193039091940390936D0580938B
:1027D0006C058AE695E0909394038093930360E000
:1027E00088E00E94640F61E080916E050E94360FC0
:1027F00080916E05863110F40E948B1380916F05D5
:102800008370089583B190916B00892380939E0318
:1028100080919E0380939D0386B190916C008923E3
:102820008093A8038091A8038093A70389B1909116
:102830006D0089238093B2038091B2038093B1032A
:102840008CE792E10E94B50C8093920380919203F1
:1028500087FD21C090E080E02CED35E0FC01EE0F1B
:10286000FF1FE058FC4F318320830196893091058A
:10287000A9F78AE080937F0310927E0310927D0374
:1028800088E080937C0380917C03863110F40E9461
:102890008B1381E0089580E008950F931F93CF93E9
:1028A000DF9392E0883028F08E5091E0883008F075
:1028B00090E040E05AE0959FD0011124A556BC4F0E
:1028C000292F092E000C330B55E0959FC0011124D0
:1028D000C42F042E000CDD0B5C915C171D0609F063
:1028E0000CF453C0FC01EC0FFD1FEE0FFF1FEB5665
:1028F000FC4F008111810617170711F04F5FE8CFD9
:1029000047FD43C0118210828C918150990BC817EA
:10291000D90751F18AE0829FE001839FD00D1124F5
:10292000C556DC4F55E0529FC001539F900D1124B6
:10293000E42FF0E068816150770BE617F707A4F405
:10294000DF011196A80FB91FAA0FBB1FAB56BC4FD2
:102950006D917C91E80FF91FEE0FFF1FEB56FC4FB6
:10296000718360834F5FE4CF8AE0829FF001839F91
:10297000F00D1124EB56FC4F86818150868381E057
:10298000DF91CF911F910F91089580E0F9CF809151
:102990007C03863110F40E9435138AE080937F0314
:1029A00080917C036CE772E10C944D14BF92CF923E
:1029B000DF92EF92FF920F931F93CF93DF930E94CA
:1029C000A00F6B017C01C0919303D0919403BB24B1
:1029D000BA9401E010E0209709F445C08D8183701E
:1029E000823001F52091B003422F50E08C81282FD6
:1029F00030E08830D8F49801082E02C0220F331F2F
:102A00000A94E2F724233523232B61F00E940D0F53
:102A10009D8192FB992790F99817B9F0CA86DB86B9
:102A2000EC86FD860A80DB81C02DD5CF8E3050F438
:102A300028503109B80102C0660F771F2A95E2F7C6
:102A40009B01E0CF2E503109F5CF8A859B85AC855F
:102A5000BD859601281B390B3F872E87B88A0E94B7
:102A6000C50F698BDFCFDF91CF911F910F91FF9041
:102A7000EF90DF90CF90BF900895BF92CF92DF92FA
:102A8000EF92FF920F931F93CF93DF930E94A00FBB
:102A90006B017C01C0919303D091940301E010E09D
:102AA000BB24BA94209709F445C08D81837081308E
:102AB00001F52091A603422F50E08C81282F30E0B1
:102AC0008830D8F49801082E02C0220F331F0A94D0
:102AD000E2F724233523232B61F00E940D0F9D8103
:102AE00092FB992790F99817B9F0CA86DB86EC8695
:102AF000FD860A80DB81C02DD5CF8E3050F4285062
:102B00003109B80102C0660F771F2A95E2F79B01D1
:102B1000E0CF2E503109F5CF8A859B85AC85BD85E8
:102B20009601281B390B3F872E87B88A0E94C50F54
:102B3000698BDFCFDF91CF911F910F91FF90EF90C5
:102B4000DF90CF90BF900895BF92CF92DF92EF9227
:102B5000FF920F931F93CF93DF930E94A00F6B01FF
:102B60007C01C0919303D0919403BB24BA9401E0FB
:102B700010E0209709F444C08D81837001F5209105
:102B80009C03422F50E08C81282F30E08830D8F40D
:102B90009801082E02C0220F331F0A94E2F7242363
:102BA0003523232B61F00E940D0F9D8192FB992705
:102BB00090F99817B9F0CA86DB86EC86FD860A8004
:102BC000DB81C02DD6CF8E3050F428503109B801AA
:102BD00002C0660F771F2A95E2F79B01E0CF2E50C7
:102BE0003109F5CF8A859B85AC85BD859601281B6B
:102BF000390B3F872E87B88A0E94C50F698BDFCFBC
:102C0000DF91CF911F910F91FF90EF90DF90CF90C8
:102C1000BF900895FC0186859785268537858217A4
:102C20009307C9F70895FC01808990E0062E02C041
:102C3000959587950A94E2F780FF1CC0208981E072
:102C400090E001C0880F6A95EAF780958223808B17
:102C5000268537858685978528173907C9F78681A0
:102C600097812817390730F081E040855185421758
:102C7000530708F480E00895DC015496EC915497D2
:102C800053968C915397E81759F050968D919C91DB
:102C9000E80FF92FF11D8081082E000C990B089583
:102CA0008FEF9FEF0895FC01138A148A089590E036
:102CB00080E008958FEF9FEF0895FC01462F238950
:102CC00030E0C9010196678570E00E944038548960
:102CD00058171906B9F080899189280F391FD90131
:102CE0004C93838990E00196678570E00E9440389C
:102CF000838B618D6427618F8589877F858B81E0D8
:102D000090E0089590E080E0089590E080E00895DC
:102D100090E080E00895CF93DF932FEF240F2031D0
:102D200028F5C42FD0E02196CC0FDD1FC80FD91F86
:102D30009B016137784010F020E738E0203783E0CE
:102D4000380710F420E733E050E040E020573340EC
:102D500041095109AFEFB7E00E94B93720E035E0F3
:102D600040E050E00E949A3739832883DF91CF9169
:102D70000895FC019381492F50E0062E02C055951D
:102D800047950A94E2F7DA01A170BB2740FF09C01A
:102D900021E030E001C0220F6A95EAF7209529234F
:102DA00023838A2F089580E48093800082E88093B3
:102DB000810010928200E8E8F0E080819181885AD9
:102DC0009D4F91838083B09A81E08093B3030895EF
:102DD00062E088E00E94640F90E080E02EEE32E036
:102DE000FC01EE0FFF1FEB57FB4F31832083019651
:102DF0008C309105A9F78DE080939D0410929E047C
:102E0000109283048091B303811102C00E94D316F3
:102E100082E48093810080918100806880938100AA
:102E2000B59A80916F00806280936F000895662349
:102E3000A1F0FC01258D261780F0615070E0660F2F
:102E4000771FE60FF71F84819581248135818217D2
:102E50009307C9F79695879508958EEE92E0FACF7D
:102E6000FC01228130E0062E02C0359527950A9498
:102E7000E2F7C9018170992720FF0AC0428121E051
:102E800030E001C0220F6A95EAF7209524232283BF
:102E90000895FC01208530E0062E02C03595279567
:102EA0000A94E2F7C9018170992720FF0AC0408582
:102EB00021E030E001C0220F6A95EAF72095242333
:102EC000208708950F931F93CF93DF93DC01662330
:102ED00009F448C01B968C911B97861708F442C0D2
:102EE00014968D919C911597481B590B440F551FB3
:102EF000880F991F21E0F0E0E0E01B963C911B97C2
:102F00003217C0F0E80FF91F621789F0022F10E0A6
:102F1000000F111F1696CD91DC911797C00FD11F8E
:102F20000990D881C02DEC0FFD1F2F5FE6CFE40F75
:102F3000F51FFBCF12962D913C911397220F331F53
:102F40002E1B3F0B281B390BF8941696ED91FC9124
:102F50003183208370E0660F771FE60FF71F5183E0
:102F600040837894DF91CF911F910F910895242F82
:102F7000AB01622F0C94621790915903967081E017
:102F800009F480E00895813049F018F0823031F181
:102F90000895613069F16230A1F00895662319F057
:102FA000623041F008950E945F136DE375E188E09F
:102FB0000C944D140E945F136DE375E188E00E944C
:102FC0004D140E9402148091790328E635E0309375
:102FD0005E0520935D058F71806C13C0613031F008
:102FE00018F0623081F308950C94C7140E94C7143E
:102FF0000E94C1138AE695E090935E0580935D057B
:103000008FED80935C051092640580916505909129
:10301000660520916705207F2960209367058371ED
:103020009C7792609093660580628F7E80936505A1
:103030001092600510926105089580915903867081
:10304000E1E0F0E011F4F0E0E0E0EE0FFF1FE75FF9
:10305000FD4F6591749184EB93E00C94A50E882349
:10306000A9F090EE980F943098F09CED980F943062
:1030700088F098EC980F943078F094EC980F943096
:1030800068F08C50843060F08FEF089580E00895F0
:1030900081E0089582E0089583E0089584E0089532
:1030A00085E008950F931F93CF93DF93C9E5D3E095
:1030B00001E01E85812F0E942F188230D1F40093E9
:1030C000E90210930B031092EA0210920C036CE0D9
:1030D00081E594E00E944D126FEF81E594E00E943B
:1030E0004D126FEF81E594E00E944D1281E00E9445
:1030F0000611239683E0CB36D807D9F6DF91CF911E
:103100001F910F9108950F931F93CF93DF93EC01BD
:103110008B011B821A8288EE93E0A0E0B0E08C83E2
:103120009D83AE83BF838BE191E0998388831D8665
:103130001C8688E08F8788E090E00E946138998B38
:10314000888B892BD9F01D870C878D891E8A9F89D2
:10315000907C91609F8B807E88608F7D8D8B8FE1CE
:103160008E871B8A1C8A198E80917A0390917B032B
:103170009B8F8A8FD0937B03C0937A03DF91CF918B
:103180001F910F9108950F931F93CF93DF93EA013F
:1031900089018093AE041092A8041092A7046D30A8
:1031A00008F06CE06093B0048091AB049091AC04A3
:1031B000009709F062C08091B00490E00196880FFA
:1031C000991F0E9461389093AC048093AB04809166
:1031D000AB049091AC04892B09F471C08091B004C8
:1031E0008093AF04D093A804C093A7041093AA04BB
:1031F0000093A904C031D74230F480E197E2909364
:10320000A8048093A7044091B00420ED37E0429FCA
:10321000C001439F900D11248455924F4091A70403
:103220005091A8044817590768F44091B004429F90
:10323000C001439F900D11248455924F9093A80490
:103240008093A7048091A7049091A80481349C499D
:1032500030F080E49CE99093A8048093A704C1E037
:103260008091B0048C1798F04CED55E06C2F85EAF6
:1032700094E00E946217CF5FF3CF6091B00470E0DA
:103280006F5F7F4F660F771F0E9486399CCF8091BA
:10329000AE0461E0811160E089E00E94360F61E0D8
:1032A00089E00E94640F8091B303811102C00E94E3
:1032B000D316B19A80916F00826080936F008091E5
:1032C000A7049091A804DF91CF911F910F910895C9
:1032D000CF93DF9380915A03813089F170F182306E
:1032E00009F45AC040915A0550915B0590916403CE
:1032F0009F5FE2EBF4E0C9E5D3E030E020E06CE171
:103300009770558744878C85811101C08FE186872E
:10331000629FD001639FB00D1124A753BB4F8C91C6
:10332000887F892B8C932F5F3F4F7C962396263086
:10333000310539F7DF91CF9108950E94E816C1E079
:103340004CED55E06C2F85EA94E00E946217CF5F48
:10335000CD30B1F785EA94E090935B0580935A05F0
:1033600020915D0330915E0340915F0350916003B3
:1033700080919E0460915C03681710F460919E0434
:1033800080915B030E94C318909362038093610352
:1033900080E480938000A6CFE1E6F4E081E894E049
:1033A0002FED33E0219331938E179F07D9F71092B9
:1033B00080008DE594E090935B0580935A058091A1
:1033C000630387FB882780F980935F04219A882311
:1033D00021F029980E94670C85CF299AFBCF0F9383
:1033E0001F93CF93DF9309E513E0D0E0C0E0CE0157
:1033F0000E948437F80181938F012196C132D10553
:10340000B1F789E593E0DF91CF911F910F91089576
:10341000FF920F931F93CF93DF9309E513E0D0E062
:10342000C0E0F801F1908F01CE010E948437F816B8
:1034300021F06F2DCE010E948C372196C132D1052B
:1034400081F789E593E0DF91CF911F910F91FF9074
:103450000895FB0101900020E9F73197AF01461B69
:10346000570B0C94B80D8F929F92AF92BF920F930F
:103470001F93CF93DF93CDB7DEB7A1970FB6F89424
:10348000DEBF0FBECDBF19A2423008F44AE08E0164
:103490000F5D1F4F842E912CB12CA12CA5019401FE
:1034A0000E94FB37E62FB901CA01EA3004F5E05D5E
:1034B000D801EE938D01232B242B252B79F790E057
:1034C00080E0109729F0BD0184EB93E00E94291A57
:1034D000A1960FB6F894DEBF0FBECDBFDF91CF919E
:1034E0001F910F91BF90AF909F908F900895E95CCE
:1034F000DFCFCF92DF92EF92FF92CF93DF936B01FA
:103500007C016DE284EB93E00E94580EEC0166278B
:103510007727CB016C197D098E099F094AE00E942B
:10352000331A8C0F9D1FDF91CF91FF90EF90DF90AA
:10353000CF9008956115710511F00C94291A90E04F
:1035400080E00895CF92DF92EF920F931F93CF9375
:10355000C42F6901413009F448C090F0423009F4A9
:1035600055C0433021F14A3010F1DC011E968D9197
:103570009C91855B9240CA501C2F180FC2E00BC073
:10358000E62FF0E0EE0FFF1FE80FF91F4081518199
:10359000465B5240142F112351F0E12C6EEB77E182
:1035A00084EB93E00E94A50EE3941E11F7CF66EB27
:1035B00077E184EB93E00E94A50EC114D104E1F5FC
:1035C000C13089F148F1C23089F1C33091F1002353
:1035D000C9F165EA77E184EB93E0CF911F910F91F8
:1035E000EF90DF90CF900C94A50E70E0FB01EE0FF2
:1035F000FF1FE80FF91F680F791FDB011B964C9125
:1036000080819181480F592F511DC2CFFC01468501
:103610005785455B5240BECF62EB77E184EB93E088
:103620000E94A50ED4CF6FEA77E1F8CF6BEA77E17D
:10363000F5CF67EA77E1F2CFB60184EB93E00E9421
:103640009A1AC5CF6FE771E084EB93E0CF911F9199
:103650000F91EF90DF90CF900C94291A0F931F9346
:10366000482FE6EEF7E16491E2EDF7E1E491811194
:10367000462FF0E0EE0FFF1FE054F84E8591949135
:1036800000E412E42FE030E00E9449296115710541
:103690008105910529F06F5F7F4F8F4F9F4F9F707E
:1036A0001F910F910895CF93DF934617A0F4E9017E
:1036B000FC01842F90E0880F991FE80FF91F659196
:1036C000749143E150E0CE010E9467341B8A8FEF72
:1036D000DF91CF910895F9011082F9CFDF92EF9237
:1036E000FF920F931F93CF93DF93D62ED0E0C0E0CD
:1036F000082F10E087E0E82EF12CC7018C1B9D0BF2
:10370000B80102C0759567958A95E2F761707727D1
:10371000072E000C880B990B4AE00E94331AC33025
:1037200041F4D1100AC06DE574E084EB93E00E948F
:10373000A50E2196C830D10501F7DF91CF911F91D9
:103740000F91FF90EF90DF900895DF92EF92FF923C
:103750000F931F93CF93DF938C01D62ED42F7C0130
:10376000C0E0CD1581F0CC2331F06BE574E084EB43
:1037700093E00E94A50E60E0F70181917F010E9415
:103780006E1BCF5FEECFDD23B1F0CC2331F069E5C6
:1037900074E084EB93E00E94A50EC00FD12FD11DE1
:1037A00061E08881DF91CF911F910F91FF90EF90A1
:1037B000DF900C946E1BDF91CF911F910F91FF90C2
:1037C000EF90DF9008958091590380FD2AC022E890
:1037D00031E081E891E01F9247E04F931F921F92E2
:1037E0003F932F939F938F938DE092E09F938F93BE
:1037F0001F9284E68F9383E292E09F938F930E94BF
:10380000A33463E272E084EB93E00E949A1A8DB7CE
:103810009EB70E960FB6F8949EBF0FBE8DBF0C9448
:103820001D1821E831E08BE891E0D5CF85ED80933C
:10383000BC008091550390915603A0915703B0911D
:1038400058030796A11DB11D23E0B695A79597953E
:1038500087952A95D1F72091BC0024FD03C01092D2
:1038600053030895409155035091560360915703B7
:1038700070915803452B462B472B69F30097A10500
:10388000B10541F025E32A95F1F700000197A10960
:10389000B109E1CF809154030C9416108F929F923E
:1038A000AF92BF92CF92DF92EF92FF920F931F934E
:1038B000CF93DF936C014B015A01D8011C92FA019E
:1038C000C0E0C21721F011921192CF5FFACFF6013A
:1038D0008081882309F443C0F40101900020E9F7B6
:1038E00031977F01E818F908D0E0FF24CD1749F19E
:1038F000B401C6010E946A3A009799F0DC011C925B
:10390000D801EC9121E02E0F2C93F0E0EE0FFF1F79
:10391000EA0DFB1DD182C0826C01CE0CDF1CDF5F83
:10392000E5CFF801C081D6018C91882351F08C2F0E
:1039300090E0880F991FA80EB91EF501D182C082B0
:10394000CF5F8C2FDF91CF911F910F91FF90EF9060
:10395000DF90CF90BF90AF909F908F90089580E0C0
:10396000F1CFEF92FF920F931F93CF93DF937C01E0
:10397000D42F8B01C0E0F801859194910E945034BE
:10398000F80165917491AC01C7010E945934892BEB
:1039900041F48C2FDF91CF911F910F91FF90EF9009
:1039A0000895CF5F0E5F1F4FDC13E5CF8FEFF2CF8F
:1039B0004F925F926F927F928F929F92AF92BF923F
:1039C000CF92DF92EF92FF920F931F93CF93DF93EB
:1039D00000D01F92CDB7DEB7182F062F0E941D18FA
:1039E00061E574E0112311F06BE474E084EB93E083
:1039F0000E94A50E64E374E084EB93E00E94A50EA0
:103A00000E941D18111106C061E374E084EB93E07D
:103A10000E94A50E66E174E084EB93E00E94A50E7F
:103A20000E941D1880915B03813009F44EC187E923
:103A300091E09F938F9382E094E09F938F931F92E6
:103A400054E6D52EDF9263E2E62E62E0F62EFF9278
:103A5000EF920E94A334B70184EB93E00E949A1A7C
:103A60000E941D18A02EB12C1F920F938EEE93E092
:103A70009F938F931F92DF92FF92EF920E94A33445
:103A8000B70184EB93E00E949A1A0E941D1880915E
:103A90005E038F9380915D038F938AED93E09F93F4
:103AA0008F931F92DF92FF92EF920E94A334B7018F
:103AB00084EB93E00E949A1A0E941D180FB6F894A6
:103AC000DEBF0FBECDBF80915F03909160031123D5
:103AD00021F080916103909162039F938F9386EC14
:103AE00093E09F938F931F9284E68F9383E292E0FB
:103AF0009F938F930E94A33463E272E084EB93E080
:103B00000E949A1A0E941D180FB6F894DEBF0FBECD
:103B1000CDBF1130E9F589E5682E83E0782EEE24DB
:103B2000E394F12C512C2CEAC22E23E0D22E34E661
:103B3000432E43E2842E42E0942EF30184858823B1
:103B4000D1F08F31C1F01F928F93FF92EF92DF92ED
:103B5000CF921F924F929F928F920E94A33463E262
:103B600072E084EB93E00E949A1A53940FB6F89493
:103B7000DEBF0FBECDBF9FEFE91AF90AE3E06E0E7C
:103B8000711CF7E0EF16F104C1F651100E941D18E8
:103B90004AE0CE0101967C01BC01C5010E94763449
:103BA0000A3018F480E28A831B820E941D1864EA9E
:103BB00073E0112311F06EE973E084EB93E00E944F
:103BC000A50E61E973E084EB93E00E94A50E0E94CC
:103BD0001D18111106C06EE873E084EB93E00E949B
:103BE000A50E6DE773E084EB93E00E94A50E0E94A2
:103BF0001D188091030265E672E0813011F06DE1DD
:103C000072E084EB93E00E94A50E0E941D18FF92C3
:103C1000EF9280E393E09F938F931F9284E68F93BC
:103C200083E292E09F938F930E94A33463E272E059
:103C300084EB93E00E949A1A0E941D180FB6F89424
:103C4000DEBF0FBECDBF809103026DE172E0813017
:103C500011F065E672E084EB93E00E94A50E0E94ED
:103C60001D1868E273E084EB93E00E94A50E0E94A9
:103C70001D186FE173E084EB93E00E94A50E0E9493
:103C80001D1868ED72E084EB93E00E94A50E0E947F
:103C90001D1861EB72E084EB93E00E94A50E0E9478
:103CA0001D180F900F900F90DF91CF911F910F91E2
:103CB000FF90EF90DF90CF90BF90AF909F908F904C
:103CC0007F906F905F904F90089583E991E0B1CE1F
:103CD0002F923F924F925F926F927F928F929F921C
:103CE000AF92BF92CF92DF92EF92FF920F931F930A
:103CF000CF93DF93CDB7DEB7AB970FB6F894DEBFA7
:103D00000FBECDBF8091B60281111BC00E94E31B84
:103D1000AB960FB6F894DEBF0FBECDBFDF91CF914B
:103D20001F910F91FF90EF90DF90CF90BF90AF90D9
:103D30009F908F907F906F905F904F903F902F90CB
:103D400008952DB73EB739A728A76DE370E086EB3D
:103D500092E00E945F3A7C01009711F0DC011C9216
:103D60008E01055E1F4F24E0FE0131963F01AF0139
:103D70006BE971E086EB92E00E944E1C482EE11444
:103D8000F10419F08DE3D7018C93B3E01CEFB41567
:103D900008F499C08FEF898B89871C868A8B8A8764
:103DA0001D868B8B8B871E86188A1F868091B60294
:103DB000811104C086EB92E09A838983FE0171969B
:103DC000FDA3ECA3FCE9AF2EF7E1BF2E7BA26AA214
:103DD0006301512C242D2150330B3BA72AA74514F6
:103DE00009F485C0F50105911491F50132962490EE
:103DF000AAA1BBA18D909D90BBA3AAA3312C231493
:103E000009F442C0F801859194910E9450349FA317
:103E10008EA3F80165917491AC015527C4010E94ED
:103E200028340E5F1F4F892B69F50EA1832DECA15D
:103E3000FDA18193FDA3ECA387FD43C0D6011B9692
:103E40000C931B97080D192D111DF80180818823F3
:103E500091F1C8010E940A34D60118968C93C601CC
:103E600086199709EAA5FBA5E817F90731F56FE36D
:103E700070E0C4010E945F3A7C01892B41F0F88A0E
:103E8000EF8611C03394BBCF00E08FEFD0CF6DE34E
:103E900070E0C4010E945F3A7C01892B81F7188B86
:103EA0000F87F12CE12C5394BFEFCB1ADB0AE3E030
:103EB000AE0EB11C94CF18961C92E114F10499F740
:103EC000EECF152D10959B8DDE01119680E0FA2E18
:103ED000EB2E2EE2981709F1ED91FD91309729F024
:103EE00001900020E9F7319720838F5FF3CFE5E25F
:103EF000EE2EE7E1FE2E10E043E050E0B701CE01E8
:103F000041960E942834892BF1F21F5FF4E0EF0EF6
:103F1000F11C1E3189F71FEFD6CF0FB6F894DEBF24
:103F20000FBECDBF17FF0DC00E94BC17612F60955B
:103F3000082F30E020E040E08F2D9E2D0E94A21A35
:103F4000E7CE0E94EF19EFEFE10FED3108F024C04A
:103F50000E2E000CFF0BE155F04E0C9454384D2002
:103F60004D20861E4D217D217D21A321A3211822D4
:103F70005F225F22B222B222D1229823D5230C24C1
:103F80003E243E245E245E2478247824AA24B0248F
:103F9000B424CD24F824AF256FE177E186EB92E0DD
:103FA0000E9449340E94681E8091590364E177E1C0
:103FB00080FF02C068E077E186EB92E00E9449341E
:103FC0000E94681E809159036BEF76E180FF02C06A
:103FD0006EEE76E186EB92E00E9449340E94681E04
:103FE00080915A0368EE76E1823040F08091590367
:103FF0006CED76E180FF02C06EEC76E186EB92E03C
:104000000E9449340E94681E8091590361EC76E158
:1040100080FF02C065EB76E186EB92E00E944934B6
:104020000E94681E11E3809159036BE876E180FFDE
:1040300002C06FE776E186EB92E00E94493410936C
:10404000BA020E94681E66EA76E186EB92E00E9460
:1040500049341093BA020E94681E6AE976E186EB41
:1040600092E00E9449341093BA020E94681E1F5FBA
:104070001733C9F666E776E186EB92E00E94493491
:104080000E94681E6EE676E186EB92E00E9449345B
:104090000E94681E0E941D183BCE8091590380FD2E
:1040A00081C063E174E184EB93E00E94A50E0E945D
:1040B0001D1869EA73E184EB93E00E94A50E0E944B
:1040C0001D1864E473E184EB93E00E94A50E0E9446
:1040D0001D186FEE72E184EB93E00E94A50E0E9422
:1040E0001D1862E972E184EB93E00E94A50E0E9424
:1040F0001D1868E272E184EB93E00E94A50E0E9415
:104100001D1869EC71E184EB93E00E94A50E0E94FA
:104110001D1861E671E184EB93E00E94A50E0E94F8
:104120001D1866EF70E184EB93E00E94A50E0E94DB
:104130001D186EE670E184EB93E00E94A50E0E94CC
:104140001D1869EF7FE084EB93E00E94A50E0E94AA
:104150001D186CE77FE084EB93E00E94A50E0E949F
:104160001D1865EF7EE084EB93E00E94A50E0E948F
:104170001D1860E67EE084EB93E00E94A50E0E948D
:104180001D1865E07EE084EB93E00E94A50E0E947E
:104190001D186DE77DE084EB93E00E94A50E0E9460
:1041A0001D1878CF68E07DE084EB93E00E94A50EB7
:1041B0000E941D1866E97CE084EB93E00E94A50E46
:1041C0000E941D1861E37CE084EB93E00E94A50E41
:1041D0000E941D1869ED7BE084EB93E00E94A50E20
:1041E0000E941D186AE77BE084EB93E00E94A50E15
:1041F0000E941D1867E07BE084EB93E00E94A50E0F
:104200000E941D1861E97AE084EB93E00E94A50EFC
:104210000E941D186EE27AE084EB93E00E94A50EE6
:104220000E941D186EEB79E084EB93E00E94A50ECE
:104230000E941D1864E579E084EB93E00E94A50ECE
:104240000E941D1865ED78E084EB93E00E94A50EB6
:104250000E941D1862E578E084EB93E00E94A50EB1
:104260000E941D1868EC77E084EB93E00E94A50E95
:104270000E941D1863E277E084EB93E00E94A50E94
:104280000E941D1864EC76E084EB93E00E94A50E7A
:104290000E941D186AE376E07ECFEF85F889808161
:1042A0008D33E1F442E06AE676E1CF0101960E94A7
:1042B000B11C823008F01EC19091590380FB90F927
:1042C000909359030E94081AEF85F889108266EBD3
:1042D00072E084EB93E00E949A1ADCCE8DE3808337
:1042E0002F8538892F5F3F4F40915903417062E01D
:1042F0008AE696E10E94531BEACFEF85F889808118
:104300008D3399F442E066E676E1CF0101960E9492
:10431000B11C823008F0EEC08370880F9091590371
:10432000997F892B80935903CDCF8DE380832F858F
:1043300038892F5F3F4F409159034695437062E0A3
:1043400086E696E1D7CFEF85F88980818D3309F035
:104350004AC08E010F5D1F4F25E0AE014F5E5F4FDB
:104360006DE971E0CF0101960E944E1C43E060E6CA
:1043700076E189899A890E94B11C182F833008F050
:1043800055C3823079F442E06CE576E18B899C89F3
:104390000E94B11C8230E0F49091630380FB97F996
:1043A0009093630380915A0381110BC0112349F04C
:1043B00080916F008F7D80936F00B59A8DE0809320
:1043C0009D0410935A030E94081A0E9468197CCF1A
:1043D00012E10E94BC17111101C012E0082F30E059
:1043E00020E0412F30C08DE380832F8538892F5FF7
:1043F0003F4F40915A0363E080E696E10E94531BD1
:1044000080915A03823009F062CF6AE576E186EB4B
:1044100092E00E9435342F853889265F3F4F4091C6
:10442000630347FB442740F962E08CE596E162CFE5
:1044300019858FEF810F863040F00E94BC17082F3E
:1044400030E020E041E060E077CDEF85F8898081C1
:104450008F3309F03CCF809159036DE476E180FF02
:1044600002C061E476E186EB92E00E9449340E944A
:10447000681E809159036AE176E180FF02C06FE017
:1044800076E186EB92E00E944934105D1093BA0207
:104490000E94681E63E376E186EB92E00E94493455
:1044A0001093BA020E94681E68E276E186EB92E001
:1044B0000E9449341093BA020E94681E29CC1985C3
:1044C0008FEF810F863008F0B8CFEF85F8898081B3
:1044D0008D3319F56F013FEFC31AD30A6BE076E114
:1044E000C6010E944034892B59F0C6010E940A344B
:1044F000813138F00E94BC17082F30E020E0B7C0AF
:1045000080E0412F4150550BFA01EE0FFF1FE40FE1
:10451000F51FE75AFC4F848756CF8DE38083A12F88
:10452000A150BB0BFD01EE0FFF1FEA0FFB1FE75A67
:10453000FC4F24858F859889222311F02F3131F487
:1045400067E076E101960E944934C1CE1F922F9315
:1045500024E036E13F932F9301969F938F930E941F
:10456000D334DFC08985811168CFEF85F8898081D8
:104570008D3351F4CF0101960E940A348A3008F03D
:10458000B9CF809364031FCF8DE380838091640350
:104590001F928F9381E096E19F938F938F859889E7
:1045A000DBCFD9848FEF8D0D863008F046CFAF85F5
:1045B000B8898C918D3309F086C08E010F5D1F4F35
:1045C00025E0AE014F5E5F4F6FE971E0CD010196CE
:1045D0000E944E1CEB89FC89DF010D900020E9F759
:1045E0009D01235031092E173F0709F01FC2823069
:1045F00009F01CC246E065EF75E189899A890E943D
:10460000B11C082F863008F011C2EB89FC89BE016D
:10461000605E7F4F80810E948E2918A11295107FC5
:10462000EB89FC89BE01605E7F4F81810E948E29EB
:1046300088A1182B812F0E942F1887FD3AC0823045
:1046400011F1BCF48823F9F0813081F18091590394
:104650006FEB75E180FF02C065E875E18AEC92E0DE
:104660000E9449340E94BC17082F2AEC32E042E035
:10467000EACE843041F0D4F0853041F78DEF800FE1
:10468000833018F0E3CF033008F7ED2DE150FF0B36
:10469000CF01EE0FFF1FE80FF91FE75AFC4F058708
:1046A00016870E94081A0E9452180ECE002369F342
:1046B000CDCFA989BA89FD0101900020E9F7EA1B55
:1046C0001CE01E0F86CE8DE38C932D2D2150330BD5
:1046D000C9012F8538892F5F3F4F8C01000F111FB3
:1046E000080F191F075A1C4FD8011D964C9166E000
:1046F00085EF95E10E94531BF80186851F928F93E9
:104700008DE795E19F938F938E01055E1F4F1F9359
:104710000F930E94D3348F859889B80101960E9427
:10472000543A0F900F900F900F900F900F90CFCDA5
:1047300019858FEF810F863008F07FCEEF85F889DD
:1047400080818D33D1F442E069E775E1CF010196B4
:104750000E94B11C823008F0CDCE412F4150550B44
:104760009CE1949FF001959FF00D1124E953FB4FBC
:10477000908180FB94F99083A7CD8DE380832F8572
:1047800038892F5F3F4FA12FA150BB0B4CE14A9FAF
:10479000F0014B9FF00D1124E953FB4F40814295EE
:1047A000417062E089E795E1A5CDEF85F8898081C8
:1047B0008F3309F08CCD6EE675E186EB92E00E94B6
:1047C00049340E94681E8091590361E675E180FFBB
:1047D00002C064E575E186EB92E00E9449340E94D4
:1047E000681E8091590363E475E180FF02C065E3B0
:1047F00075E186EB92E00E9449340E94681E809128
:10480000590368E275E180FF02C06AE175E186EB59
:1048100092E00E94493450CEEF85F88980818D3333
:1048200009F542E066E175E1CF0101960E94B11CF5
:10483000823008F05FCE80935B030E94081A2091BB
:104840005D0330915E0340915F035091600360917E
:104850005C0380915B030E94C31890936203809372
:10486000610332CD8DE380832F8538892F5F3F4FE1
:1048700040915B0362E086E195E13CCDEF85F889EC
:1048800080818D3381F4CF0101960E940A349C010E
:10489000245631092139314008F02CCE90935E0323
:1048A00080935D03CACF8DE3808380915E038F93F5
:1048B00080915D038F9383E195E16ECEEF85F8895A
:1048C00080818D3361F4CF0101960E940A349FEFFD
:1048D000980F903108F00ECE80935C03AECF8DE33D
:1048E000808380915C031F928F9380E195E154CE89
:1048F000EF85F88980818D3311F5CF0101960E94F3
:104900000A34883FEAE29E0708F4F4CD893BF8E8D0
:104910009F0708F0EFCD9093600380935F03209191
:104920005D0330915E03AC0160915C0380915B0399
:104930000E94C3189093620380936103C3CC8DE3FC
:104940008083809162038F93809161038F938DE0C8
:1049500095E122CE60919E0480E00E94D81CD8C9C7
:1049600060915C0381E0F9CFEF85F889808142E0B6
:1049700069E075E18D33C9F08DE380832F85388937
:104980002F5F3F4F809163038F7741E0873009F0BD
:1049900040E062E089E095E1ADCCEF85F889808167
:1049A0008D33A9F442E065E075E1CF0101960E94E4
:1049B000B11C823008F09ECD97E0811101C09EE0CD
:1049C000809163038078892B80936303FCCC8DE313
:1049D00080832F8538892F5F3F4F809163038F77C6
:1049E00041E0873009F040E062E085E095E182CC6B
:1049F000EF85F88980818D3309F061C08E010F5DEC
:104A00001F4F25E0AE014F5E5F4F63EA71E0CF01BB
:104A100001960E944E1C813059F48F85988961E07F
:104A200075E101960E944034892BE9F110E0D1CC68
:104A30008230E1F709891A8944E050E06CEF74E1B3
:104A4000C8010E942834892B89F7D8010D900020D5
:104A5000E9F7CD0106978017910741F7F801048126
:104A600080EDD82ED00E43E066EF74E18B899C89EF
:104A70000E94B11C182F0153833088F4063088F44B
:104A8000823099F48B899C8904960E940A349FEFA6
:104A9000980F983008F099C08093790306C00630CB
:104AA00028F21EE096CCD12C10E0612F8091780383
:104AB0000E94C317D09277031093780303CC8DE341
:104AC0008083209178038F859889211103C062EF3C
:104AD00074E138CD198A209177031F922F932AEE23
:104AE00034E13F932F9301969F938F930E94D33489
:104AF0000F900F900F900F900F900F908091780370
:104B00008230A1F4809179031F928F9387EE94E114
:104B10009F938F93CE0141969F938F930E94D3349E
:104B20000F900F900F900F900F900F902F85388956
:104B3000295F3F4F4091780363E086EF94E10E9444
:104B4000531B80917803823009F0C1CB8F859889FF
:104B5000BE016F5E7F4F0B960E94543AB8CB0F8513
:104B60001889D8018C918D3331F5C80101960E94C6
:104B70000A34811104C01092B502F801A7CB9091BC
:104B80005A03913029F48093B502D8011C929FCB2F
:104B9000809159036CEB74E180FF02C06CE874E112
:104BA0008AEC92E00E9449340E94BC17082F2AEC3C
:104BB00032E043E048CC8DE3F80180838091B50278
:104BC0001F928F9389E894E1E7CC14E102CC1F9205
:104BD0000F920FB60F9211242F933F934F935F9331
:104BE0006F937F938F939F93AF93BF93EF93FF93B5
:104BF00084EB93E00E94360EFF91EF91BF91AF914D
:104C00009F918F917F916F915F914F913F912F91E4
:104C10000F900FBE0F901F9018951F920F920FB616
:104C20000F9211242F938F939F93EF93FF93E09113
:104C3000C403F091C5038081E091CA03F091CB03D6
:104C400082FD1BC090818091CD038F5F8F73209177
:104C5000CE03821741F0E091CD03F0E0EC54FC4F1D
:104C6000958F8093CD03FF91EF919F918F912F911D
:104C70000F900FBE0F901F9018958081F4CF1F9258
:104C80000F920FB60F9211242F933F938F939F9300
:104C9000AF93BF938091F7019091F801A091F90132
:104CA000B091FA013091F60123E0230F2D3758F52A
:104CB0000196A11DB11D2093F6018093F7019093F9
:104CC000F801A093F901B093FA018091FB01909152
:104CD000FC01A091FD01B091FE010196A11DB11D45
:104CE0008093FB019093FC01A093FD01B093FE0122
:104CF000BF91AF919F918F913F912F910F900FBED8
:104D00000F901F90189526E8230F0296A11DB11D44
:104D1000D2CF1F920F920FB60F9211242F933F9371
:104D20004F935F936F937F938F939F93AF93BF93B3
:104D3000EF93FF938091B900887F803609F44AC0D1
:104D4000F0F5883209F4A7C018F5803109F49BC04A
:104D5000B8F4882309F4F9C0883009F494C0FF91AD
:104D6000EF91BF91AF919F918F917F916F915F91E3
:104D70004F913F912F910F900FBE0F901F9018955C
:104D8000883109F488C0803251F78093310314C010
:104D9000803409F49DC040F48033B9F38833F9F6C8
:104DA0008093310385ECB0C0803509F485C0883527
:104DB00009F496C0883499F60E94161CD0CF883921
:104DC00009F48CC038F5883729F050F4883611F092
:104DD000803729F683E0809353031092F50157C082
:104DE000883809F47BC0803919F0803809F0B7CFD2
:104DF0008091F501803208F071C0E091F50181E009
:104E00008E0F8093F5018091BB00F0E0EB52FE4FD6
:104E100080833DC0803B39F0E0F4803A09F479C0EA
:104E2000883A09F09CCF84E0809353031092D40118
:104E30001092D301E0910102F09102020995809154
:104E4000D30181110FC081E08093D3011092B3018F
:104E500009C0803C09F4A6CF883C09F4A3CF883B65
:104E600009F07DCFE091D40181E08E0F8093D401D1
:104E7000F0E0ED54FE4F80818093BB009091D4010F
:104E80008091D30129C080912E038093BB0085ECD3
:104E90008093BC0064CF9091300380912F039817CA
:104EA00058F5E091300381E08E0F80933003F0E0FD
:104EB000E35FFC4F8081E9CFE091300381E08E0F0A
:104EC000809330038091BB00F0E0E35FFC4F808370
:104ED0009091300380912F039817C8F285E8D8CFBE
:104EE000E091300381E08E0F809330038091BB000E
:104EF000F0E0E35FFC4F80838091320381115CCF4F
:104F000081E080932D0384EA8093BC0010925303C8
:104F100026CF85EC8093BC00109253038091F5015D
:104F2000803230F4E091F501F0E0EB52FE4F108258
:104F30006091F50170E0E091FF01F091000285EDD4
:104F400091E009951092F5010ACF1092310334CF08
:104F50001F920F920FB60F9211242F933F934F93EE
:104F60005F936F937F938F939F93AF93BF93CF93F1
:104F7000EF93FF9389B190916D0089238093B203E1
:104F80008091B1039091B20389278093B0038091FF
:104F9000B2038093B103C0E08091AF03C81760F4FF
:104FA000EC2FF0E0EE0FFF1FE755FC4F0190F08172
:104FB000E02D0995CF5FF0CFFF91EF91CF91BF9199
:104FC000AF919F918F917F916F915F914F913F91A1
:104FD0002F910F900FBE0F901F9018951F920F9258
:104FE0000FB60F9211242F933F934F935F936F93BC
:104FF0007F938F939F93AF93BF93CF93EF93FF9341
:1050000086B190916C0089238093A8038091A703B7
:105010009091A80389278093A6038091A803809389
:10502000A703C0E08091A503C81760F4EC2FF0E05F
:10503000EE0FFF1FE156FC4F0190F081E02D099526
:10504000CF5FF0CFFF91EF91CF91BF91AF919F9143
:105050008F917F916F915F914F913F912F910F9021
:105060000FBE0F901F9018951F920F920FB60F92C0
:1050700011242F933F934F935F936F937F938F935D
:105080009F93AF93BF93CF93EF93FF9383B190918F
:105090006B00892380939E0380919D0390919E03D2
:1050A000892780939C0380919E0380939D03C0E099
:1050B00080919B03C81760F4EC2FF0E0EE0FFF1F08
:1050C000EB56FC4F0190F081E02D0995CF5FF0CFBA
:1050D000FF91EF91CF91BF91AF919F918F917F9170
:1050E0006F915F914F913F912F910F900FBE0F9055
:1050F0001F9018951F920F920FB60F9211242F93A5
:105100003F934F935F938F939F93EF93FF93809180
:10511000810086FF2FC080918600909187002091AA
:105120009F043091A004AC01421B530B9A01909351
:10513000A00480939F04203757E1350798F1209110
:105140009D0420939E0410929D042FEF20938304CE
:1051500023B120952170209384042091AA0131E08D
:10516000211130E03093AA01211111C09093A204C3
:105170008093A104FF91EF919F918F915F914F9147
:105180003F912F910F900FBE0F901F901895209177
:10519000A1043091A204821B930B9093A4048093EA
:1051A000A304E8CF80919D048C3020F7E0919D040A
:1051B000F0E0EE0FFF1FEB57FB4F31832083809110
:1051C0009D048F5F80939D04D5CF1F920F920FB6E1
:1051D0000F9211242F933F938F939F93EF93FF93FD
:1051E0008091B104882381F08091AF048F5F809318
:1051F000AF049091AF048091B004891728F4109205
:10520000AF048FEF8093AD048091AE04882311F03A
:1052100019992CC08091AE04811102C0199B26C03F
:105220008091AF0490E0880F991F2091AB043091DA
:10523000AC04820F931FFC01808191812091880032
:1052400030918900820F931F90938900809388008A
:1052500081E08093B104FF91EF919F918F913F91F5
:105260002F910F900FBE0F901F90189520918800DE
:10527000309189008091A9049091AA04880F991F08
:10528000820F931F90938900809388001092B1043D
:10529000E2CFCF92DF92EF92FF920F931F93E82F0E
:1052A000F92F05C0015011092109310961F19081DF
:1052B00096239417B9F305C001501109210931094A
:1052C00011F1908196239413F7CFC12CD12CE12CAE
:1052D000F12C0AC08FEFC81AD80AE80AF80A0C1590
:1052E0001D052E053F0579F080818623841791F3F3
:1052F0006C2D7D2D8E2D9F2D1F910F91FF90EF9086
:10530000DF90CF90089560E070E080E090E01F9122
:105310000F91FF90EF90DF90CF9008950F931F9320
:10532000CF9390ED980F9A3038F4FB01908381E091
:10533000CF911F910F9108958B01C82F082E000C5B
:10534000990B0E94433A81549109069720F4C75360
:10535000F801C083ECCF80E0EBCFCF93DF93E4EB99
:10536000F3E01382128288EE93E0A0E0B0E0848341
:105370009583A683B7832DE231E03183208325EC2A
:1053800030E03587248724EC30E03787268720EC0F
:1053900030E0318B208B21EC30E0338B228B22EC00
:1053A00030E0358B248B26EC30E0378B268B118E4A
:1053B000128E138E148EE1E5F4E013821282848340
:1053C0009583A683B7838FE391E091838083EDE596
:1053D000F4E081E591E0918380831382E5EAF4E0D3
:1053E0008BE591E09183808317821682108681E09D
:1053F00081871286148685E691E0909382048093DB
:105400008104CAE6D5E089E791E099838883EFE6D5
:10541000F5E080818B7F80838FE691E09093690532
:1054200080936805E5E6F5E08081ACE5B5E012968D
:10543000DC93CE9311979FED9C9318961C9218972E
:1054400091812281207F2960228380719C779260E4
:10545000918380628F7E808314961C921497159698
:105460001C92C0915A05D0915B05BE0182EB94E07D
:105470000E948318BE018EEC94E00E948318BE0146
:105480008AEE94E00E948318BE0186E095E00E94B7
:105490008318BE0182E295E00E948318BE018EE36C
:1054A00095E0DF91CF910C948318CF93DF93CDB724
:1054B000DEB762970FB6F894DEBF0FBECDBF78940B
:1054C00084B5826084BD84B5816084BD85B5826009
:1054D00085BD85B5816085BD80916E0081608093BA
:1054E0006E00109281008091810082608093810023
:1054F0008091810081608093810080918000816033
:10550000809380008091B10084608093B10080918D
:10551000B00081608093B00080917A0084608093B5
:105520007A0080917A00826080937A0080917A007C
:10553000816080937A0080917A00806880937A00FD
:105540001092C100E091C403F091C50382E0808312
:10555000E091C003F091C1031082E091C203F09189
:10556000C30380E180831092CC03E091C803F091E3
:10557000C90386E08083E091C603F091C703808170
:1055800080618083E091C603F091C70380818860C9
:105590008083E091C603F091C70380818068808397
:1055A000E091C603F091C70380818F7D808307E07F
:1055B00011E062E0D8018D918D010E94640FB1E08D
:1055C00007311B07B1F70E94EF190E94E31B80917E
:1055D0006303982F9F779F37D1F590915903987F58
:1055E0009093590391E090935A0310925B0398E0D3
:1055F00090935C032CE231E030935E0320935D03D3
:1056000024EE37E53093600320935F033093620309
:105610002093610380788E6080688093630310928A
:105620006403E9E5F3E080E095E022E094872587D4
:1056300016868F5F863009F0DEC081E080937703A5
:105640008093780385E0809379030E94081A109173
:105650005A0311118CC00E94E8160E94A00F4B0142
:105660005C01F4EFCF2EDD24D394E12CF12C0E94C9
:10567000A00F681979098A099B09683E7340810562
:105680009105A8F3E1E0CE1AD108E108F108F8EE9F
:105690008F0EF3E09F1EA11CB11CC114D104E104C4
:1056A000F10429F78091840480935B0380919E0428
:1056B00080935C03F8949091840481E0913009F028
:1056C00080E00E942E1B6115710541F490918404C5
:1056D00081E0913009F080E00E942E1B7894709355
:1056E0005E0360935D034091A3045091A4048091F4
:1056F000A3049091A40448175907A9F75695479514
:105700005093600340935F038091050290910602DD
:10571000892B09F473C090919E0480915C038917D2
:1057200010F480919E049B01682F80915B030E947E
:10573000C31890930A028093090260919E0480E04E
:105740000E94D81C80919E0460915C03681710F43D
:1057500060919E0481E00E94D81C0E94E31B67E8D0
:1057600074E084EB93E00E94A50E0E941D180E9435
:1057700068196091780380E00E94C31710920C02B0
:1057800010920B021092EA0210920C030E94F80F82
:1057900086EB9DE0909302028093010287EB9DE0EF
:1057A000909300028093FF010E945218AE014F5F58
:1057B0005F4F5A0122242394312CCE010D969E87EF
:1057C0008D871FEF84EB93E00E94160E892B79F1F1
:1057D00084EB93E00E94F40D8A3029F19091B40299
:1057E0008D30C9F0883009F03DC1992359F39150AB
:1057F0009093B402E7CF339690E018CF67E974E056
:1058000084EB93E00E94A50E0E941D181F5F1430C8
:1058100009F023CFACCFE92FF0E0EA54FD4F10821E
:10582000192F1092B40217FDCDCF0E94681E8091EF
:105830001702811107C00E94C50F6093160281E014
:105840008093170280910E02811107C00E94C50F3C
:1058500060930D0281E080930E0280915A038823A9
:1058600009F40AC1823009F447C180915A05909128
:105870005B05DC01ED91FC910190F081E02D66E08B
:105880000995882309F489C00E94C50F80910D02F3
:10589000681B623308F481C00E94C50F60930D023B
:1058A0001C861B868FEF8F83888789878A8786E08F
:1058B000F50111928A95E9F7F9E5CF2EF3E0DF2E95
:1058C000912C812C982DD6011C968C911C978823A5
:1058D000A1F11E968C91FE013796DF0110E000E0E9
:1058E000AF012D91281709F489C70F5F1F4F0630AC
:1058F0001105B9F730E020E061916F3F09F00FC169
:105900008501020F131FB10101C0660F9A95EAF7D6
:10591000F801F080F62AF082240F351FD9018C930C
:105920000E942F18853049F4F60185858350823016
:1059300020F48F2D8068D8018C93BFEF8B1A9B0ABF
:10594000E3E0CE0ED11CF6E08F16910409F0BACF39
:105950002E0127E0420E511C8501FF24F394D20151
:105960009D902D01BFEF9B1689F0C12CD12CE12C0D
:10597000892D0E942F18823009F41DC20CF0D6C068
:10598000882309F46DC1813009F4D9C10F5F1F4F1D
:10599000ED85FE85E415F50511F702EB14E0D12C39
:1059A000C12C2CE1822E35E5E32E45E0542E50E546
:1059B000452ED8011E968C918F3109F4BDC28C9C66
:1059C000F0018D9CF00D1124E953FB4F808183FF82
:1059D000B3C2B601660F771F660F771FDB01A156B2
:1059E000BD4FFC90F2949FE0F92209F4A5C28160BA
:1059F00080838F2D90E0019695958795F801978487
:105A00009816190609F00CF46AC2982E692C712CAC
:105A100064567D4FA301D80150968D919C910E94B0
:105A20004B3A9F2D9170F0FE0CC0D8015096ED912D
:105A3000FC91930121503109E20FF31F8081807F97
:105A40008083F8012089318950E040E080E04915E9
:105A500008F047C2F901E40FF51F608186274F5F08
:105A60005F4FF5CF923308F0ADCEE92FF0E0EA5466
:105A7000FD4F80839F5FBCCE8091830490E0880FB0
:105A8000892F881F990B892B09F4EFCE809183040D
:105A90008F778093830411E080919E04811708F42E
:105AA000E4CEE9E5F3E08485181721F13396ABE6FF
:105AB000B3E0AE17BF07B9F7111103C04EEE52E0C5
:105AC00012C080919E048117C8F3EFEFE10FF0E060
:105AD000EE0FFF1FEB57FB4F808191814081518179
