:100000000C94BD050C94E5050C94E5050C94272291
:100010000C94E1210C949B210C94E5050C94E505CE
:100020000C94E5050C94E5050C946D220C94D822F3
:100030000C94E5050C94E5050C94E5050C94E50598
:100040000C9432200C94E5050C9400200C94DA1FDB
:100050000C94E5050C94E5050C94E5050C94E50578
:100060000C947C200C94E5050D000A004E420044DF
:100070004247005649544553534500535045454463
:100080000046494E414C00494E495449414C0050AC
:100090004552494F444500504552494F4400454E52
:1000A0005445544500484541444552004D4F445540
:1000B00000564F4945004348414E4E454C0054457B
:1000C0005354004D45535341474500524550455404
:1000D00000524550454154004D4F4445005445524F
:1000E0004D0052580053425553005243554C004561
:1000F000434F4C41474500545241494E4552004CF4
:1001000049474E45004C494E450056455253494FCC
:100110004E00414944450048454C5000434F4E462F
:10012000004350504D0050574D00524150494445F6
:10013000004E4F524D414C450046415354004E4FE6
:10014000524D414C00504F53004E4547004F4E001A
:100150004F46460052432E414E410052432E414EDF
:10016000415F494E5600414E474C4500414E474C79
:10017000452B414E4100414E474C452B414E415F7E
:10018000494E5600414E474C452E52432E59004190
:100190004E474C452E52432E5800414E474C452B5E
:1001A000414E412E52432E5900414E474C452B4162
:1001B0004E415F494E562E52432E5900414E474CF8
:1001C000452B414E412E52432E5800414E474C453F
:1001D0002B414E415F494E562E52432E580043311B
:1001E0002D4331360043392D4331360043312D4301
:1001F0003800465554414241004655544142415F02
:10020000494E5600534255535F4F5554004350508A
:100210004D5F4F5554004350504D5F4F55542B4345
:1002200050504D5F494E0043520043524C460046E9
:100230005200554B006C00DD00D800D100CB00C34C
:1002400000BE00B600B100AC00A5009E0097008F74
:1002500000870081007B0073006F001C01170112F2
:10026000010A015C0A0501FF00F700EF00EA002126
:1002700001E500E2006A0068002573425552432000
:1002800025735625642E2564005265672330333D5F
:10029000307825303258005265672330323D30784F
:1002A00025303258005265672330313D3078253093
:1002B0003258005265672330303D3078253032584F
:1002C0000050726F62696E67204932433D30782575
:1002D000303258002E002E002E00000102020304CE
:1002E000050506070809090A0B0C0D0D0E0F101065
:1002F00011121314141516171718191A1B1B1C1D8D
:100300001E1E1F20212222232425252627282929B5
:100310002A2B2C2C2D2E2F303031323333343536DE
:10032000363738393A3A3B3C3D3D3E3F404041420A
:10033000434344454646474849494A4B4C4C4D4E39
:100340004F4F505152525354555556575858595A69
:100350005A5B5C5D5D5E5F6060616262636465659F
:1003600066676868696A6A6B6C6D6D6E6F6F7071D5
:100370007172737474757676777878797A7A7B7C13
:100380007D7D7E7F7F808181828383848585868752
:10039000878889898A8B8B8C8D8D8E8F8F90919198
:1003A000929293949495969697989899999A9B9BE4
:1003B0009C9D9D9E9E9FA0A0A1A1A2A3A3A4A4A535
:1003C000A6A6A7A7A8A9A9AAAAABACACADADAEAE8C
:1003D000AFB0B0B1B1B2B2B3B3B4B5B5B6B6B7B7EA
:1003E000B8B8B9BABABBBBBCBCBDBDBEBEBFBFC04E
:1003F000C0C1C1C2C2C3C3C4C4C5C5C6C6C7C7C8BD
:10040000C8C9C9CACACBCBCCCCCDCDCECECECFCF2E
:10041000D0D0D1D1D2D2D3D3D3D4D4D5D5D6D6D6A9
:10042000D7D7D8D8D9D9D9DADADBDBDBDCDCDDDD2C
:10043000DDDEDEDFDFDFE0E0E0E1E1E2E2E2E3E3B8
:10044000E3E4E4E4E5E5E5E6E6E6E7E7E7E8E8E84F
:10045000E9E9E9EAEAEAEBEBEBECECECECEDEDEDEB
:10046000EEEEEEEEEFEFEFF0F0F0F0F1F1F1F1F291
:10047000F2F2F2F3F3F3F3F4F4F4F4F4F5F5F5F542
:10048000F6F6F6F6F6F7F7F7F7F7F8F8F8F8F8F8FB
:10049000F9F9F9F9F9F9FAFAFAFAFAFAFBFBFBFBBE
:1004A000FBFBFBFBFCFCFCFCFCFCFCFCFDFDFDFD8C
:1004B000FDFDFDFDFDFDFEFEFEFEFEFEFEFEFEFE62
:1004C000FEFEFEFEFEFFFFFFFFFFFFFFFFFFFFFF41
:1004D000FFFFFFFFFFFFFFFFFFFF00000000240002
:1004E00027002A0000000000250028002B00000043
:1004F00000080002010000030407000000000000E3
:1005000000004350504D207369676E616C204F4B63
:1005100021004E6F204350504D207369676E616C0F
:100520002100000438047004A804E00418055005F4
:100530008805C005F80530066806A006D80610072D
:1005400048078007B80702020405050348FCB8FC09
:1005500028FD98FD08FE78FEE8FE58FFC8FF380029
:10056000A80018018801F8016802D8024803B803FE
:1005700025303475207573202D3E20256320543D91
:100580002575206D73002A2A2A2A2A2A2A2A2A2A2D
:100590002A2A2A2A2A2A2A2A2A2A2A2A00205243AE
:1005A000554C207175616C697479203D202575204A
:1005B0002525002A2A2A2A2A2A2A2A2A2A2A2A2ACF
:1005C0002A2A2A2A2A2A2A2A2A005243554C204C0F
:1005D000656E677468206F7220436865636B73751E
:1005E0006D206572726F7221005243554C204C652C
:1005F0006E677468206572726F7221204578704E44
:100600006962626C654C656E3D25642020285278D5
:100610004E6962626C654C656E3D2564290020411F
:100620006E613D25303375202830782530325829C9
:1006300000416E676C653D2533752E2575C2B0206F
:100640002825303475292028307825303358290062
:100650002C20416E613D25303375202830782530BF
:1006600032582900436F6E746163745B382E2E31EB
:100670005D3D002C20416E613D25303375202830D2
:1006800078253032582900436F6E746163745B3192
:10069000362E2E315D3D0020543D2575206D7300B2
:1006A0005243554C25752E4D73675B546F744E62E3
:1006B0006C3D25755D3D005243554C25752E57699F
:1006C0006474683D257520757320543D2575206D33
:1006D00073000E0F101114152C20416E613D253052
:1006E000337520283078253032582900536F7572C1
:1006F0006365205243554C25753A20416E676C6501
:100700003D2533752E2575C2B02028253034752936
:100710002028307825303358290020414E413D258E
:10072000303375202830782530325829005243550F
:100730004C25752E535720002020202020202020DB
:100740002036353433323130393837363534333278
:100750003100536F757263653A2020313131313188
:1007600031310020414E413D25303375202830780D
:100770002530325829005243554C25752E535720A9
:1007800000536F757263653A20203837363534333D
:100790003231002B414E415F494E56002B414E41B4
:1007A000002575003A20506F737369626C65207381
:1007B00065756C656D656E74206176656320454373
:1007C0004F4C4147452E4D4F44453D4350504D5FA2
:1007D0004F5554003A204F6E6C7920706F737369D7
:1007E000626C65207769746820545241494E4552C5
:1007F0002E4D4F44453D4350504D5F4F55540025BD
:1008000075005243554C257540004F464600500137
:10081000260121015243554C004F46460031012A22
:10082000013E013901257500257500257500490136
:1008300045014350504D2E504552494F44453F00CD
:100840004350504D2E504552494F443F0043505065
:100850004D2E564F49452E4E423F004350504D2E8F
:100860004348414E4E454C2E4E423F004350504D62
:100870002E454E544554453F004350504D2E48455B
:10088000414445523F004350504D2E4D4F44553F3B
:100890000050014D012B414E412575002B414E4129
:1008A0005F494E5625750040307825303258002576
:1008B00075003A20436F6E74656E75206465206D17
:1008C0006573736167652070617320706F737369FE
:1008D000626C652061766563206365747465206170
:1008E0006472657373652049324321003A204D6577
:1008F000737361676520636F6E74656E74206E6FCD
:100900007420706F737369626C65207769746820F6
:10091000746869732049324320616464726573733B
:100920002100EC01E501DE01CB01BC01A9019A0126
:100930008F01840176016C0166015B01540125750C
:10094000002575004F4646004F4646005243554C21
:100950005F2E564F4945005243554C5F2E43484148
:100960004E4E454C005243554C5F2E544553540057
:100970005243554C5F2E4D4553534147450052431A
:10098000554C2E52455045543F005243554C2E5223
:1009900045504541543F003B00F901F20116020D5C
:1009A0000204022A02270232022F0252582E444227
:1009B000473F0052582E4D4F44453F005243554C3F
:1009C0005F2E564F49453F005243554C5F2E4348DA
:1009D000414E4E454C3F005243554C5F2E544553BB
:1009E000543F005243554C5F2E4D455353414745AC
:1009F0003F005243554C2E52455045543F00524300
:100A0000554C2E5245504541543F00534255532EAC
:100A1000564954455353453F00534255532E535066
:100A20004545443F004350504D3F0045434F4C41E6
:100A300047452E4D4F444500545241494E45522E94
:100A40004D4F4445004C49474E452E5445524D3F6D
:100A5000004C494E452E5445524D3F004C414E47A7
:100A6000000000FFFF0101FFFF0202FFFF0303FF81
:100A7000FF0404FFFF050500FF060600FF0707014E
:100A8000FF080801FF0909FFFF0A0906FF0B090714
:100A9000FF0C0902FF0D0903FF0E0904FF0F0905F2
:100AA000FF100AFFFF110A08FF120A09FF130A0AC2
:100AB000FF140A0600150A0700160A0BFF170A0C96
:100AC000FF180A0DFF190A0EFF1A0B0FFF1B0B1060
:100AD000FF1C0C01FF1D0C11FF5B020D37021235CC
:100AE00002010D00437478004172670049640043BD
:100AF0006D64005E2D2D4572722000200000000004
:100B00000023002600290004040404040404040251
:100B1000020202020203030303030301020408109A
:100B2000204080010204081020010204081020E483
:100B3000031C041C04540454048C048C04C404C416
:100B400004FC04FC04340534056C056C05A405A400
:100B500005DC05DC05140614064C064C06840684E8
:100B600006BC06BC06F406F4062C072C07640764D2
:100B7000079C079C07D40700A02311241FBECFEFBA
:100B8000D8E0DEBFCDBF11E0A0E0B1E0E0EDF3E7DB
:100B900002C005900D92AE39B107D9F725E0AEE954
:100BA000B1E001C01D92AE39B207E1F715E0CDEB1F
:100BB000D5E004C02197FE010E94A937CC3BD107A4
:100BC000C9F70E9448240C94E6390C940000282FA1
:100BD00030E048E090E0582F5170952786954150BD
:100BE000D1F7A901592BCA0120917D04222311F0CC
:100BF00080959095EFB7F89460917D04662321F17C
:100C0000299A20E32A95F1F729E030E041E050E00D
:100C1000F0E3DC01A423B523AB2BC1F0299A7F2F8D
:100C20007A95F1F7440F551F2150310991F766234A
:100C300079F02998EFBF80E3982F9A95F1F78A957C
:100C4000F1F781E090E008952998DBCF2998E7CF6C
:100C5000299AF0CFCF92DF92EF92FF920F931F93DA
:100C6000CF93DF938FE00E94E705CFE7D4E080E0E9
:100C700090E0DC0110E008EFC990D990F12CE12C54
:100C8000012E04C0CC0CDD1CEE1CFF1C0A94D2F714
:100C9000C82AD92AEA2AFB2A8C2D0E94E705BB27FD
:100CA000AF2D9E2D8D2D1D5F183028F00E94E70579
:100CB000C701AA27BB27212F269526952695209F79
:100CC000100D112424E0CF39D207B1F680E00E9444
:100CD000E70580E00E94E7058FEF80937E04DF91B7
:100CE000CF911F910F91FF90EF90DF90CF900895DB
:100CF0002091B3033091B4038217930701F120913F
:100D0000B5033091B60382179307C9F02091B7035A
:100D10003091B8038217930791F02091B9032330E3
:100D200080F4E091B903F0E0EE0FFF1FED54FC4FAB
:100D3000918380838091B9038F5F8093B90380E0B2
:100D400008958FEF089580917B0590917C05009721
:100D500011F480E0089560917A0562956695677058
:100D6000DC01ED91FC910190F081E02D0995882343
:100D700081F380917B0590917C0560917A056F717C
:100D8000DC01ED91FC910280F381E02D0995AC012D
:100D90009093810580938005809183058061809385
:100DA00083052FE23BE090E0F901659174914617CD
:100DB000570708F461C0F901329665917491641780
:100DC000750708F459C030918405432F441F442708
:100DD000441F80918505282F2F70220F242B291363
:100DE00052C080918505282F22952F702F5F277084
:100DF000322F3295307F8F78832B80938505309109
:100E00008305432F437050E04F5F5F4F2417150653
:100E100009F09FCF80918405903109F040C0329550
:100E200036953770982F9370990F990F990F932BD0
:100E3000990F990F8378892B80938405909184056D
:100E4000292F269526952F71322F3295330F307E1C
:100E5000809183058F71832B322F36953695369589
:100E60009C7F932B909384059C77943401F5877F26
:100E70008093830581E008959F5F2C5F3F4F9231FF
:100E800009F092CF66CF90FB37F930938405292F74
:100E900026952F708078822B80938505A2CF9F7135
:100EA000990F990F8378982B90938405C7CF83FD72
:100EB00013C0B0E12B9F9001112420937E05846024
:100EC0008093830580E020918305922F977F23FFF5
:100ED000986090938305089590917E05292B209327
:100EE0007E058B7F8093830581E08093820582E07D
:100EF000EACF91E090934D0380936F0310924E03DD
:100F00001092700308959091200380911F032FEF9A
:100F10003FEF981748F4E92FF0E0E150FD4F2081B2
:100F200030E09F5F90932003C901089590912003C2
:100F300080911F032FEF3FEF981748F4E92FF0E05F
:100F4000E150FD4F208130E09F5F90932003C90165
:100F5000089508950895AF92BF92CF92DF92EF92D5
:100F6000FF920F931F93CF93DF936C017B018B0153
:100F7000040F151FEB015E01AE18BF08C017D107A3
:100F800059F06991D601ED91FC910190F081E02D2D
:100F9000C6010995892B79F7C501DF91CF911F9182
:100FA0000F91FF90EF90DF90CF90BF90AF9008959A
:100FB000FC01538D448D252F30E0842F90E0821B5F
:100FC000930B541710F0CF96089501970895FC01E4
:100FD000918D828D981761F0A28DAE0FBF2FB11D3C
:100FE0005D968C91928D9F5F9F73928F90E0089594
:100FF0008FEF9FEF0895FC01918D828D981731F04E
:10100000828DE80FF11D858D90E008958FEF9FEFA1
:101010000895FC01918D228D892F90E0805C9F4F77
:10102000821B91098F739927089582ED93E00E94A6
:10103000090821E0892B09F420E0822F089580E03F
:1010400090E0892B29F00E94150881110C94000072
:101050000895FC01A48DA80FB92FB11DA35ABF4F4D
:101060002C91848D90E001968F739927848FA689A7
:10107000B7892C93A089B1898C91837080648C93FB
:10108000938D848D981306C00288F389E02D8081AA
:101090008F7D80830895EF92FF920F931F93CF93DC
:1010A000DF93EC0181E0888F9B8D8C8D98131AC0A3
:1010B000E889F989808185FF15C09FB7F894EE898A
:1010C000FF896083E889F9898081837080648083E7
:1010D0009FBF81E090E0DF91CF911F910F91FF9032
:1010E000EF900895F62E0B8D10E00F5F1F4F0F73DA
:1010F0001127E02E8C8D8E110CC00FB607FCFACF95
:10110000E889F989808185FFF5CFCE010E94290801
:10111000F1CFEB8DEC0FFD2FF11DE35AFF4FF08265
:101120009FB7F8940B8FEA89FB8980818062CFCFCB
:10113000EF92FF920F931F93CF93DF938C017B016C
:10114000D0E0C0E0F701EC0FFD1F6491662339F099
:10115000C8010E944B08892B11F02196F3CFCE01D4
:10116000DF91CF911F910F91FF90EF900895CF9352
:10117000DF93EC01888D8823B9F0AA89BB89E889BF
:10118000F9898C9185FD03C0808186FD0DC00FB665
:1011900007FCF7CF8C9185FFF2CF808185FFEDCFE3
:1011A000CE010E942908E9CFDF91CF9108958330C5
:1011B00081F028F4813099F08230A9F008958730C9
:1011C000A9F08830C9F08430B1F4809180008F7D1F
:1011D00003C0809180008F7780938000089584B54C
:1011E0008F7784BD089584B58F7DFBCF8091B0004B
:1011F0008F778093B00008958091B0008F7DF9CFF4
:10120000CF93DF93282F30E0F901E251FB4F849117
:10121000F901E55EF44FD491F901E95FF44FC4910F
:10122000CC23A1F081110E94D708EC2FF0E0EE0F43
:10123000FF1FE350F54FA591B491EC91ED2381E0B0
:1012400090E009F480E0DF91CF91089580E090E094
:10125000FACF1F93CF93DF93282F30E0F901E251AB
:10126000FB4F8491F901E55EF44FD491F901E95FF8
:10127000F44FC491CC23A9F0162F81110E94D708F6
:10128000EC2FF0E0EE0FFF1FEC51FB4FA591B49156
:101290008FB7F894EC91111108C0D095DE23DC9340
:1012A0008FBFDF91CF911F910895DE2BF8CFCF93A1
:1012B000DF9390E0FC01E55EF44F2491895F944F49
:1012C000FC0184918823C9F090E0880F991FFC01EC
:1012D000E652FB4FA591B491FC01EC51FB4FC59137
:1012E000D49161110DC09FB7F8948C912095822301
:1012F0008C938881282328839FBFDF91CF91089505
:10130000623051F49FB7F8943C91822F80958323EB
:101310008C93E8812E2BEFCF8FB7F894EC912E2B86
:101320002C938FBFEACF8E3008F08E508770806488
:1013300080937C0080917A00806480937A00809111
:101340007A0086FDFCCF8091780090917900089515
:101350003FB7F8948091F0019091F101A091F201D2
:10136000B091F30126B5A89B05C02F3F19F0019657
:10137000A11DB11D3FBFBA2FA92F982F8827BC01EF
:10138000CD01620F711D811D911D42E0660F771F17
:10139000881F991F4A95D1F708952FB7F894609147
:1013A000EC017091ED018091EE019091EF012FBF62
:1013B00008952091C801260F3327331F21323105AC
:1013C000ECF420914703FC0190E080E0243069F0C8
:1013D00082E00895A091C8012191AC0148555E4F6B
:1013E000A40FB52FB11D2C930196861798F3809109
:1013F000C801680F6093C80180E0089581E00895F6
:101400001092470381E0809346031092210361E02C
:1014100082E10E94290961E083E10E942909E9EB48
:10142000F0E080818E7F808380818D7F808388E45F
:101430008093B80085E48093BC000895CF93DF9338
:1014400091E09093A7018823B9F0C091B800D091A2
:10145000BA008091BC008A7B8093BC0060E082E18E
:101460000E94290960E083E10E9429090E94000A84
:10147000D093BA00C093B800DF91CF910895CF9276
:10148000DF92EF92FF920F931F93CF93DF93D09150
:10149000700381E0D13208F09CC0C0916F030E94BC
:1014A000A8096B017C018091470381116CC082E027
:1014B0008093470381E0809346038FEF8093450339
:1014C00010924403D0934303AFE4B3E0E3E2F3E0CC
:1014D00080E0D8138DC01092220380912203CC0F9C
:1014E000C82BC093220380912103813009F084C06E
:1014F000109221030E94A8096B017C0180912203B4
:101500008093BB008091490390914A03A0914B03C3
:10151000B0914C03892B8A2B8B2BA1F00E94A80938
:101520000091490310914A0320914B0330914C03E1
:101530006C197D098E099F090617170728073907B7
:1015400008F442C08091BC0083FDD8CF85EC809325
:10155000BC000E94A8096B017C0180914703823086
:1015600009F44CC0809145038F3F09F469C0809114
:101570004503803209F466C080914503803309F445
:1015800063C084E026C08091490390914A03A091F2
:101590004B03B0914C03892B8A2B8B2B09F483CFFF
:1015A0000E94A8090091490310914A0320914B031E
:1015B00030914C036C197D098E099F090617170796
:1015C0002807390708F06FCF809148030E941E0A50
:1015D00085E010924E031092700310924D03DF913C
:1015E000CF911F910F91FF90EF90DF90CF900895D2
:1015F0009D9191938F5F6DCF85EEA9CF8091490327
:1016000090914A03A0914B03B0914C03892B8A2BF4
:101610008B2B09F4A2CF0E94A809009149031091D5
:101620004A0320914B0330914C036C197D098E09BC
:101630009F09061717072807390708F08ECFC4CF70
:1016400080E0C7CF82E0C5CF83E0C3CF0895E091AB
:10165000200380911F03E81730F4F0E0E150FD4FC4
:10166000808190E008958FEF9FEF089580911F0390
:1016700090912003891B990B0895CF92DF92EF92EE
:10168000FF920F931F93CF93DF937C01CB018A01CD
:1016900020914D03222389F0EB016B01C40ED51E6E
:1016A000CC15DD0569F06991D701ED91FC910190B0
:1016B000F081E02DC7010995F3CF642F0E94D9096D
:1016C000C801DF91CF911F910F91FF90EF90DF90B4
:1016D000CF900895CF93DF931F92CDB7DEB7698384
:1016E00020914D032223F9F020917003203258F00D
:1016F00021E030E0FC013383228390E080E00F9012
:10170000DF91CF91089580914E03E82FF0E0E15BE7
:10171000FC4F998190838F5F80934E038093700379
:1017200081E090E0ECCF61E0CE0101960E94D90902
:10173000F7CF682F8FE694E00C946A0BE091B0032A
:101740003AE0E39FF0011124ED54FC4F2781809192
:101750009A03883008F046C030919A0381E090E007
:1017600002C0880F991F3A95E2F7E091B0034AE072
:10177000E49FF0011124ED54FC4F3185232330E028
:1017800082239323892B09F45DC00E94A80920912C
:10179000A5013091A601AB01421B530B9A01709336
:1017A000A6016093A501283B5BE03507C8F12091B5
:1017B0009D0320939C0310929D032FEF20939B0386
:1017C0003091A4012091A4012E7F30FF216020934D
:1017D000A4012091A40120FF18C07093A30160937D
:1017E000A201089580919A0340919A038E3050F49B
:1017F0004850550B81E090E002C0880F991F4A9530
:10180000E2F7B3CF4E50550BF5CF2091A2013091A6
:10181000A301621B730B7093A1016093A001089553
:1018200080919D03893070F4E0919D03F0E0EE0F0C
:10183000FF1FE256FC4F3183208380919D038F5F11
:1018400080939D0308950895662399F080919C03E9
:10185000861778F06150E62FF0E0EE0FFF1FE2569A
:10186000FC4F808191812081318182179307C9F7D4
:1018700008958CED95E0089520919B0330E0062EAD
:1018800002C0359527950A94E2F7C901817099271E
:1018900020FF0CC040919B0321E030E001C0220FEB
:1018A0006A95EAF72095242320939B030895EDE69B
:1018B000F0E0883030F0EBE6F0E08E3010F0ECE64F
:1018C000F0E04081282F30E0883068F421E030E0FB
:1018D000B90102C0660F771F8A95E2F7CB018095A8
:1018E0008423808308958E3048F42850310981E0A4
:1018F00090E001C0880F2A95EAF7F1CF2E50310908
:10190000F6CFCF93CFB780918C05863110F40E942B
:10191000570CF894E091B103F091B20325E0E83858
:10192000F20761F480918A0590918B059093B20340
:101930008093B103CFBFCF910895FC013097D1F3CD
:101940008281938125E088389207B9F780918A05D2
:1019500090918B0593838283EDCF2091680094E072
:10196000883048F031E08E3008F430E091E001C07A
:10197000990F3A95EAF7922B90936800EDE6F0E024
:10198000883030F0EBE6F0E08E3010F0ECE6F0E07E
:101990004081282F30E0883048F491E001C0990F51
:1019A0008A95EAF7892F842B808308958E3040F43E
:1019B0002850310981E001C0880F2A95EAF7F3CF5A
:1019C0002E503109F7CF80918D058C7F80938D0546
:1019D00086EC9EE00E947806982F937080918D058A
:1019E0008C7F892B80938D0588E080938C0588E51A
:1019F00092E090938F0580938E0580E699E0909316
:101A00009105809390058091B1039091B2039093DA
:101A10008B0580938A0588E895E09093B2038093C4
:101A2000B10360E088E00E94570961E080918C0575
:101A30000E94290980918C05863110F40E94AD0C1A
:101A400080918D058370089583B190916B008923F7
:101A50008093BC038091BC038093BB0386B19091BB
:101A60006C0089238093C6038091C6038093C503CD
:101A700089B190916D0089238093D0038091D00328
:101A80008093CF038EE99BE00E9478068093B00399
:101A90008091B00387FD21C090E080E02CED35E01F
:101AA000FC01EE0FFF1FE256FC4F318320830196AD
:101AB00089309105A9F78AE080939D0310929C03D9
:101AC00010929B0388E080939A0380919A03863159
:101AD00010F40E94AD0C81E0089580E008950F930A
:101AE0001F93CF93DF9392E0883028F08E5091E0DF
:101AF000883008F090E040E05AE0959FD001112432
:101B0000A754BC4F292F092E000C330B55E0959F8D
:101B1000C0011124C42F042E000CDD0B5C915C1756
:101B20001D0609F00CF453C0FC01EC0FFD1FEE0F75
:101B3000FF1FED54FC4F008111810617170711F0AC
:101B40004F5FE8CF47FD43C0118210828C918150D6
:101B5000990BC817D90751F18AE0829FE001839F52
:101B6000D00D1124C754DC4F55E0529FC001539F44
:101B7000900D1124E42FF0E068816150770BE61797
:101B8000F707A4F4DF011196A80FB91FAA0FBB1F16
:101B9000AD54BC4F6D917C91E80FF91FEE0FFF1F04
:101BA000ED54FC4F718360834F5FE4CF8AE0829FE6
:101BB000F001839FF00D1124ED54FC4F868181507C
:101BC000868381E0DF91CF911F910F91089580E08E
:101BD000F9CF80919A03863110F40E94570C8AE065
:101BE00080939D0380919A036EE97BE00C946F0DC6
:101BF000BF92CF92DF92EF92FF920F931F93CF93FA
:101C0000DF930E94A8096B017C01C091B103D091C0
:101C1000B203BB24BA9401E010E0209709F445C058
:101C20008D818370823001F52091CE03422F50E0E8
:101C30008C81282F30E08830D8F49801082E02C01B
:101C4000220F331F0A94E2F724233523232B61F05C
:101C50000E9400099D8192FB992790F99817B9F08D
:101C6000CA86DB86EC86FD860A80DB81C02DD5CF57
:101C70008E3050F428503109B80102C0660F771F2A
:101C80002A95E2F79B01E0CF2E503109F5CF8A85E6
:101C90009B85AC85BD859601281B390B3F872E8718
:101CA000B88A0E94CD09698BDFCFDF91CF911F9158
:101CB0000F91FF90EF90DF90CF90BF900895BF926B
:101CC000CF92DF92EF92FF920F931F93CF93DF9308
:101CD0000E94A8096B017C01C091B103D091B203AD
:101CE00001E010E0BB24BA94209709F445C08D812F
:101CF0008370813001F52091C403422F50E08C8124
:101D0000282F30E08830D8F49801082E02C0220F26
:101D1000331F0A94E2F724233523232B61F00E941A
:101D200000099D8192FB992790F99817B9F0CA860E
:101D3000DB86EC86FD860A80DB81C02DD5CF8E3018
:101D400050F428503109B80102C0660F771F2A9558
:101D5000E2F79B01E0CF2E503109F5CF8A859B85B4
:101D6000AC85BD859601281B390B3F872E87B88A25
:101D70000E94CD09698BDFCFDF91CF911F910F9129
:101D8000FF90EF90DF90CF90BF900895BF92CF92D9
:101D9000DF92EF92FF920F931F93CF93DF930E94F6
:101DA000A8096B017C01C091B103D091B203BB249F
:101DB000BA9401E010E0209709F444C08D8183704B
:101DC00001F52091BA03422F50E08C81282F30E09A
:101DD0008830D8F49801082E02C0220F331F0A94CD
:101DE000E2F724233523232B61F00E9400099D8113
:101DF00092FB992790F99817B9F0CA86DB86EC8692
:101E0000FD860A80DB81C02DD6CF8E3050F428505D
:101E10003109B80102C0660F771F2A95E2F79B01CE
:101E2000E0CF2E503109F5CF8A859B85AC85BD85E5
:101E30009601281B390B3F872E87B88A0E94CD094F
:101E4000698BDFCFDF91CF911F910F91FF90EF90C2
:101E5000DF90CF90BF900895FC01868597852685F9
:101E6000378582179307C9F70895FC01808990E0B0
:101E7000062E02C0959587950A94E2F780FF1CC054
:101E8000208981E090E001C0880F6A95EAF780958B
:101E90008223808B26853785868597852817390785
:101EA000C9F7868197812817390730F081E040858E
:101EB00051854217530708F480E00895DC015496D9
:101EC000EC91549753968C915397E81759F050968C
:101ED0008D919C91E80FF92FF11D8081082E000C47
:101EE000990B08958FEF9FEF0895FC01138A148AD0
:101EF000089590E080E008958FEF9FEF0895FC0132
:101F0000462F238930E0C9010196678570E00E9461
:101F10009537548958171906B9F080899189280F87
:101F2000391FD9014C93838990E00196678570E051
:101F30000E949537838B618D6427618F8589877FA8
:101F4000858B81E090E0089590E080E0089590E036
:101F500080E0089590E080E00895CF93DF932FEF25
:101F6000240F203128F5C42FD0E02196CC0FDD1F9F
:101F7000C80FD91F9B016137784010F020E738E087
:101F8000203783E0380710F420E733E050E040E0EA
:101F90002057334041095109AFEFB7E00E940E3797
:101FA00020E035E040E050E00E94EF36398328839E
:101FB000DF91CF910895FC019381492F50E0062EC7
:101FC00002C0559547950A94E2F7DA01A170BB2744
:101FD00040FF09C021E030E001C0220F6A95EAF716
:101FE0002095292323838A2F089580E480938000FD
:101FF00082E88093810010928200E8E8F0E080811E
:102000009181885A9D4F91838083B09A81E080931B
:10201000D103089562E088E00E94570990E080E0D3
:102020002EEE32E0FC01EE0FFF1FED55FB4F31832A
:10203000208301968C309105A9F78DE08093BB0435
:102040001092BC041092A1048091D103811102C0AE
:102050000E94F50F82E48093810080918100806866
:1020600080938100B59A80916F00806280936F00A9
:1020700008956623A1F0FC01258D261780F061509C
:1020800070E0660F771FE60FF71F8481958124812A
:10209000358182179307C9F79695879508958EEE37
:1020A00092E0FACFFC01228130E0062E02C0359585
:1020B00027950A94E2F7C9018170992720FF0AC089
:1020C000428121E030E001C0220F6A95EAF72095B5
:1020D000242322830895FC01208530E0062E02C0CF
:1020E000359527950A94E2F7C9018170992720FF59
:1020F0000AC0408521E030E001C0220F6A95EAF76E
:1021000020952423208708950F931F93CF93DF9367
:10211000DC01662309F448C01B968C911B97861737
:1021200008F442C014968D919C911597481B590B49
:10213000440F551F880F991F21E0F0E0E0E01B9647
:102140003C911B973217C0F0E80FF91F621789F016
:10215000022F10E0000F111F1696CD91DC911797FA
:10216000C00FD11F0990D881C02DEC0FFD1F2F5F2C
:10217000E6CFE40FF51FFBCF12962D913C911397FC
:10218000220F331F2E1B3F0B281B390BF89416967A
:10219000ED91FC913183208370E0660F771FE60F8D
:1021A000F71F518340837894DF91CF911F910F9156
:1021B0000895242FAB01622F0C9484100F931F936A
:1021C000811506E09007A0F4811514E0910780F5D1
:1021D000E9EDF6E0E81BF90B811522E0920718F40F
:1021E00086529D4FFC01849190E01F910F910895BC
:1021F0008F3F37E09307A0F74EEF5BE060E070E0C1
:102200008A019B01081B190B21093109C901B80179
:102210002FEF31E040E050E00E945037FB01E652E2
:10222000FD4FE491F0E0882799278E1B9F0BDDCFAF
:1022300086529140FC01849190E09195819591099D
:10224000D4CF90917103967081E009F480E00895F5
:10225000CF93DF93813009F445C030F0823009F428
:1022600065C0DF91CF910895613099F06230C9F770
:10227000C6E8D5E0D0931602C09315020E94240D43
:1022800080919703D0937C05C0937B058F71806C00
:102290000DC0C8E8D5E0D0931602C09315020E9485
:1022A000E30CD0937C05C0937B058FED80937A057A
:1022B0001092820580918305909184052091850577
:1022C000207F29602093850583719C77926090938D
:1022D000840580628F7E8093830510927E05109224
:1022E0007F05BFCF6623C9F0623009F0BACF0E94E4
:1022F000810C6FE57EE088E00E946F0D0E94240D46
:1023000026E835E03093160220931502809197035A
:1023100030937C0520937B05B9CF0E94810C6FE53B
:102320007EE088E0DF91CF910C946F0D613041F039
:1023300018F0623029F395CFDF91CF910C94E90D1D
:102340000E94E90D0E94E30C88E895E09093160244
:102350008093150290937C0580937B05A6CF809196
:1023600071038670E1E0F0E011F4F0E0E0E0EE0FE0
:10237000FF1FEB58FD4F6591749182ED93E00C9433
:102380009808882319F190EE980F943008F19CED8D
:10239000980F943070F420919E0130E08452990B94
:1023A00002C0359527958A95E2F720FF13C083E098
:1023B000089598EC980F943078F094EC980F94303E
:1023C00068F08C50843060F08FEF089580E00895BD
:1023D00081E0089582E0089584E0089585E00895FD
:1023E00086E008950F931F93CF93DF93EC018B0149
:1023F0001B821A8288EE93E0A0E0B0E08C839D837C
:10240000AE83BF838BE191E0998388831D861C8610
:1024100088E08F8788E090E00E94B637998B888BA0
:10242000892BD9F01D870C878D891E8A9F89907C06
:1024300091609F8B807E88608F7D8D8B8FE18E87F2
:102440001B8A1C8A198E80919803909199039B8F07
:102450008A8FD0939903C0939803DF91CF911F91F6
:102460000F9108950F931F93CF93DF93EA01890192
:102470008093CC041092C6041092C5046D3008F00D
:102480006CE06093CE048091C9049091CA040097D7
:1024900009F062C08091CE0490E00196880F991FE8
:1024A0000E94B6379093CA048093C9048091C904EE
:1024B0009091CA04892B09F471C08091CE04809355
:1024C000CD04D093C604C093C5041093C8040093F0
:1024D000C704C031D74230F480E197E29093C6043C
:1024E0008093C5044091CE0420ED37E0429FC001A7
:1024F000439F900D11248455924F4091C5045091F3
:10250000C6044817590768F44091CE04429FC001A1
:10251000439F900D11248455924F9093C60480934D
:10252000C5048091C5049091C60481349C4930F063
:1025300080E49CE99093C6048093C504C1E0809137
:10254000CE048C1798F04CED55E06C2F83EC94E0A2
:102550000E948410CF5FF3CF6091CE0470E06F5F74
:102560007F4F660F771F0E94DB389CCF8091CC0491
:1025700061E0811160E089E00E94290961E089E061
:102580000E9457098091D103811102C00E94F50F6A
:10259000B19A80916F00826080936F008091C50432
:1025A0009091C604DF91CF911F910F910895CF9321
:1025B000DF93809172038130E9F1D0F1823009F428
:1025C00066C0409178055091790530917C033F5F5A
:1025D000E0EDF4E0C1E7D3E090E080E06CE137703B
:1025E000DC01AA0FBB1FA80FB91FA258BC4F2C912A
:1025F0002C5F2F70223008F06DC0158614862C8554
:10260000211101C02FE12687689FD001699FB00D7D
:102610001124A951BB4F2C91287F232B2C93019679
:102620007C96239686309105D9F6DF91CF91089557
:102630000E940A10C1E04CED55E06C2F83EC94E051
:102640000E948410CF5FCD30B1F783EC94E090937B
:102650007905809378052091750330917603409138
:102660007703509178038091BC04609174036817DC
:1026700010F46091BC04809173030E943212909315
:102680007A038093790380E4809380009ACFEFE708
:10269000F4E08FE994E02FED33E0219331938E172E
:1026A0009F07D9F7109280008BE794E0909379050B
:1026B0008093780580917B0387FB882780F980933E
:1026C0007D04219A882321F029980E942A0679CF37
:1026D000299AFBCF5587448792CFFB0101900020B8
:1026E000E9F73197AF01461B570B0C94AB078F925C
:1026F0009F92AF92BF920F931F93CF93DF93CDB76B
:10270000DEB7A1970FB6F894DEBF0FBECDBF19A2FA
:10271000423008F44AE08E010F5D1F4F842E912C49
:10272000B12CA12CA50194010E945037E62FB901CC
:10273000CA01EA3004F5E05DD801EE938D01232B48
:10274000242B252B79F790E080E0109729F0BD012C
:1027500082ED93E00E946D13A1960FB6F894DEBF50
:102760000FBECDBFDF91CF911F910F91BF90AF9062
:102770009F908F900895E95CDFCFCF92DF92EF9228
:10278000FF92CF93DF936B017C016DE282ED93E0CA
:102790000E944B08EC0166277727CB016C197D0955
:1027A0008E099F094AE00E9477138C0F9D1FDF91CD
:1027B000CF91FF90EF90DF90CF9008956115710554
:1027C00011F00C946D1390E080E00895CF92DF92A9
:1027D000EF920F931F93CF93C42F6901413009F4F7
:1027E00048C090F0423009F455C0433021F14A30DE
:1027F00010F1DC011E968D919C918B5C9240CA5029
:102800001C2F180FC2E00BC0E62FF0E0EE0FFF1FE9
:10281000E80FF91F408151814C5C5240142F112365
:1028200051F0E12C6BEF7AE082ED93E00E94980882
:10283000E3941E11F7CF63EF7AE082ED93E00E94FC
:102840009808C114D104E1F5C13089F148F1C230D2
:1028500089F1C33091F10023C9F162EE7AE082ED93
:1028600093E0CF911F910F91EF90DF90CF900C9458
:10287000980870E0FB01EE0FFF1FE80FF91F680FCB
:10288000791FDB011B964C9180819181480F592F54
:10289000511DC2CFFC01468557854B5C5240BECFCF
:1028A0006FEE7AE082ED93E00E949808D4CF6CEE50
:1028B0007AE0F8CF68EE7AE0F5CF64EE7AE0F2CF16
:1028C000B60182ED93E00E94DE13C5CF6FE771E0A1
:1028D00082ED93E0CF911F910F91EF90DF90CF9019
:1028E0000C946D13BC01990F880B990B4AE00C9462
:1028F0007713CF92DF92EF92FF920F931F93CF93B4
:10290000DF93D82FC62F0E94A8096B017C0180910C
:102910004703811168C0C13208F0C0E281E08093B2
:102920004703809346039FEF90934503109244031F
:102930009C0F909343038093220380912203DD0F29
:10294000D82BD093220380912103813009F07FC0DE
:10295000109221030E94A8096B017C01809122033F
:102960008093BB008091490390914A03A0914B034F
:10297000B0914C03892B8A2B8B2BA1F00E94A809C4
:102980000091490310914A0320914B0330914C036D
:102990006C197D098E099F09061717072807390743
:1029A00008F442C08091BC0083FDD8CF85EC8093B1
:1029B000BC000E94A8096B017C0180914703813013
:1029C00009F447C0809144038C1710F4C09144036C
:1029D000E3E2F3E0AFEFB2E080E08C1751F19191C8
:1029E0009D938F5FFACF8091490390914A03A09104
:1029F0004B03B0914C03892B8A2B8B2B09F487CF87
:102A00000E94A8090091490310914A0320914B03A9
:102A100030914C036C197D098E099F090617170721
:102A20002807390708F073CF809148030E941E0AD7
:102A3000C0E010922003C0931F038C2FDF91CF9131
:102A40001F910F91FF90EF90DF90CF90089585EE4A
:102A5000AECF8091490390914A03A0914B03B0916E
:102A60004C03892B8A2B8B2B09F4A7CF0E94A80932
:102A70000091490310914A0320914B0330914C037C
:102A80006C197D098E099F09061717072807390752
:102A900008F093CFC9CFDF92EF92FF920F931F936D
:102AA000CF93DF93D62ED0E0C0E0082F10E087E070
:102AB000E82EF12CC7018C1B9D0BB80102C0759547
:102AC00067958A95E2F761707727072E000C880BCF
:102AD000990B4AE00E947713C33041F4D1100AC029
:102AE00068ED72E082ED93E00E9498082196C8306C
:102AF000D10501F7DF91CF911F910F91FF90EF90DA
:102B0000DF900895DF92EF92FF920F931F93CF9380
:102B1000DF938C01D62ED42F7C01C0E0CD1581F03F
:102B2000CC2331F066ED72E082ED93E00E949808CC
:102B300060E0F70181917F010E944B15CF5FEECFDE
:102B4000DD23B1F0CC2331F064ED72E082ED93E04F
:102B50000E949808C00FD12FD11D61E08881DF91BC
:102B6000CF911F910F91FF90EF90DF900C944B1538
:102B7000DF91CF911F910F91FF90EF90DF9008951B
:102B80000F931F93CF93DF9301E713E0D0E0C0E0F2
:102B9000CE010E94D936F80181938F012196C73268
:102BA000D105B1F781E793E0DF91CF911F910F91AC
:102BB0000895FF920F931F93CF93DF9301E713E0E4
:102BC000D0E0C0E0F801F1908F01CE010E94D9362B
:102BD000F81621F06F2DCE010E94E1362196C73202
:102BE000D10581F781E793E0DF91CF911F910F919C
:102BF000FF9008950F931F93482FE3E2FBE0649149
:102C0000EFE0FBE0E4918111462FF0E0EE0FFF1FB3
:102C1000E350F54F8591949100E412E42FE030E009
:102C20000E943C23611571058105910529F06F5FB4
:102C30007F4F8F4F9F4F9F701F910F910895CF939C
:102C4000DF934617A0F4E901FC01842F90E0880F80
:102C5000991FE80FF91F6591749143E150E0CE018F
:102C60000E94F1331B8A8FEFDF91CF910895F90114
:102C70001082F9CF3F924F925F926F927F928F9224
:102C80009F92AF92BF92CF92DF92EF92FF920F93FB
:102C90001F93CF93DF9300D0CDB7DEB710929E0184
:102CA00001E713E084E6382EC12CD12C7601C394C1
:102CB000F8019684892D0E94C1118250823008F05B
:102CC000F9C0292D2452330B3A83298380919E0128
:102CD00090E0098002C0959587950A94E2F780FDFF
:102CE000E9C01F929F9281EC92E09F938F931F9275
:102CF0003F9225E332E03F932F930E94083465E32F
:102D000072E082ED93E00E94DE130E94AF11892DE4
:102D10000E9479070E943F0A0FB6F894DEBF0FBEEB
:102D2000CDBF8111B6C0892D0E94790790E080E067
:102D30000E94990B64E0892D0E9479148430D1F7A8
:102D40000E9496075C0199279F938F9323EB32E0B3
:102D50003F932F931F923F92E5E3F2E0FF93EF93AF
:102D60000E94083465E372E082ED93E00E94DE1376
:102D70000E94AF11882483940FB6F894DEBF0FBE73
:102D8000CDBF9FEFA912812C0E9496075C01992765
:102D90009F938F93E5EAF2E0FF93EF931F923F92A8
:102DA00085E392E09F938F930E94083465E372E07D
:102DB00082ED93E00E94DE130E94AF110FB6F894EB
:102DC000DEBF0FBECDBF3FEFA31201C083940E94B0
:102DD00096075C0199279F938F9387E992E09F93D1
:102DE0008F931F923F9225E332E03F932F930E94EF
:102DF000083465E372E082ED93E00E94DE130E94E6
:102E0000AF110FB6F894DEBF0FBECDBFA11001C049
:102E100083940E9496075C0199279F938F9329E8DA
:102E200032E03F932F931F923F92E5E3F2E0FF934E
:102E3000EF930E94083465E372E082ED93E00E9414
:102E4000DE130E94AF110FB6F894DEBF0FBECDBFE8
:102E5000A11001C083940E943F0A26013701098016
:102E600004C0440C551C661C771C0A94D2F7B09021
:102E70009E0194E0892D8916C9F10E9479078FEF90
:102E800090E00E94990B8FEF90E00E94990B0E94B6
:102E90003F0AD701C601098004C0880F991FAA1FE5
:102EA000BB1F0A94D2F7982F909580919E01892399
:102EB00080939E010D5F1F4FE3E8F3E0E017F107F9
:102EC00009F0F6CE0F900F90DF91CF911F910F91E7
:102ED000FF90EF90DF90CF90BF90AF909F908F903A
:102EE0007F906F905F904F903F9008950E94790778
:102EF0008CE090E00E94990B6FEF8FE694E00E94C7
:102F00006A0B6FEF8FE694E00E946A0B0E943F0A03
:102F10004B2840929E01CECF8091710380FD2AC044
:102F200022E831E081E891E01F924EE04F931F923A
:102F30001F923F932F939F938F9389E792E09F93E4
:102F40008F931F9284E68F9385E392E09F938F93F4
:102F50000E94083465E372E082ED93E00E94DE1384
:102F60008DB79EB70E960FB6F8949EBF0FBE8DBF5D
:102F70000C94AF1121E831E08BE891E0D5CF85EDDD
:102F80008093BC008091490390914A03A0914B0328
:102F9000B0914C030796A11DB11D23E0B695A795EE
:102FA000979587952A95D1F72091BC0024FD03C001
:102FB0001092470308954091490350914A0360914C
:102FC0004B0370914C03452B462B472B69F300971D
:102FD000A105B10541F025E32A95F1F7000001971D
:102FE000A109B109E1CF809148030C941E0A8F9288
:102FF0009F92AF92BF92CF92DF92EF92FF920F9388
:103000001F93CF93DF936C014B015A01D8011C929F
:10301000FA01C0E0C21721F011921192CF5FFACFEE
:10302000F6018081882309F443C0F4010190002057
:10303000E9F731977F01E818F908D0E0FF24CD17B0
:1030400049F1B401C6010E94CC39009799F0DC0126
:103050001C92D801EC9121E02E0F2C93F0E0EE0FA2
:10306000FF1FEA0DFB1DD182C0826C01CE0CDF1C5C
:10307000DF5FE5CFF801C081D6018C91882351F044
:103080008C2F90E0880F991FA80EB91EF501D182F0
:10309000C082CF5F8C2FDF91CF911F910F91FF9056
:1030A000EF90DF90CF90BF90AF909F908F9008955A
:1030B00080E0F1CFEF92FF920F931F93CF93DF93B6
:1030C0007C01D42F8B01C0E0F801859194910E947E
:1030D000DA33F80165917491AC01C7010E94E333C2
:1030E000892B41F48C2FDF91CF911F910F91FF908D
:1030F000EF900895CF5F0E5F1F4FDC13E5CF8FEF8A
:10310000F2CF2F923F924F925F926F927F928F9267
:103110009F92AF92BF92CF92DF92EF92FF920F9366
:103120001F93CF93DF93CDB7DEB7AD970FB6F8946B
:10313000DEBF0FBECDBF8091CC0281111BC00E94AB
:103140008C17AD960FB6F894DEBF0FBECDBFDF91E2
:10315000CF911F910F91FF90EF90DF90CF90BF9094
:10316000AF909F908F907F906F905F904F903F9027
:103170002F9008952DB73EB73BA72AA76DE370E0C7
:103180008CEC92E00E94C1397C01009711F0DC01C7
:103190001C923E01BBE16B0E711C830124E0FE0119
:1031A00031962F01AF0163E971E08CEC92E00E944F
:1031B000F7178BA3E114F10419F08DE3D7018C9379
:1031C000BBA11CEFB43008F09DC08FEF898B8987BD
:1031D0001C868A8B8A871D868B8B8B871E86188A16
:1031E0001F868091CC02811104C08CEC92E09A83FE
:1031F0008983FE017196F9A7E8A789EDA82E8AE0D8
:10320000B82E5DA24CA262011AA22BA12150330B51
:103210003DA72CA73BA14AA1341709F487C0F501AB
:1032200005911491F50132962490ACA1BDA18D9029
:103230009D90BDA3ACA3312C231409F442C0F80126
:10324000859194910E94DA339FA38EA3F801659132
:103250007491AC015527C4010E94B2330E5F1F4F19
:10326000892B69F50EA1832DE8A5F9A58193F9A70E
:10327000E8A787FD45C0D6011B960C931B97080D48
:10328000192D111DF80180818823A1F1C8010E9428
:103290009433D60118968C93C60184199509ECA530
:1032A000FDA58E179F0741F56FE370E0C4010E94F2
:1032B000C1397C01892B41F0F88AEF8611C0339423
:1032C000BBCF00E08FEFD0CF6DE370E0C4010E9470
:1032D000C1397C01892B81F7188B0F87F12CE12CE8
:1032E000BAA1BF5FBAA3EFEFCE1ADE0AF3E0AF0ECA
:1032F000B11C90CF18961C92E114F10489F7ECCF21
:103300001AA110959B8DDE01119680E0FA2EEB2E0E
:103310002EE2981709F1ED91FD91309729F0019077
:103320000020E9F7319720838F5FF3CF02E6E02E8C
:103330000AE0F02E10E043E050E0B701CE014196E4
:103340000E94B233892BF1F21F5F24E0E20EF11CE0
:103350001E3189F71FEFD6CF0FB6F894DEBF0FBE30
:10336000CDBF17FF0DC00E942111612F6095082F5E
:1033700030E020E040E08F2D9E2D0E94E613E1CE4C
:103380000E94C0151E3108F0CCC0E12F110FFF0BB9
:10339000E453F64E0C94A937EA19911A911A911A2E
:1033A0006B1A981A981ABE1ABE1A331B7A1B7A1B0C
:1033B000D21BD21BF11B3C1D7B1DB21DE41DE41D65
:1033C000041E041E1E1E1E1E4D1EA118501E691E28
:1033D000941E4C1F6CE57AE08CEC92E00E94D33393
:1033E0000E9481188091710361E57AE080FF02C03C
:1033F00065E47AE08CEC92E00E94D3330E9481185D
:103400008091710368E37AE080FF02C06BE27AE0AA
:103410008CEC92E00E94D3330E9481188091720359
:1034200065E27AE0823040F08091710369E17AE0F0
:1034300080FF02C06BE07AE08CEC92E00E94D33314
:103440000E948118809171036EEF79E080FF02C0C5
:1034500062EF79E08CEC92E00E94D3330E948118F5
:1034600011E38091710368EC79E080FF02C06CEB9E
:1034700079E08CEC92E00E94D3331093D0020E944A
:10348000811863EE79E08CEC92E00E94D3331093C4
:10349000D0020E94811867ED79E08CEC92E00E94E6
:1034A000D3331093D0020E9481181F5F1733C9F6DF
:1034B00063EB79E08CEC92E00E94D3330E94811898
:1034C0006BEA79E08CEC92E00E94D3330E94811881
:1034D0000E94AF1136CEEF85F88980818D3399F443
:1034E00042E067EA79E0CF0101960E945A188230E3
:1034F00008F01BC19091710380FB90F990937103C8
:103500000E94D9152AC18DE380832F8538892F5FCA
:103510003F4F40917103417062E087EA99E00E9459
:103520001F166CEC72E082ED93E00E94DE13D0CFA8
:10353000EF85F88980818D3399F442E063EA79E080
:10354000CF0101960E945A18823008F0EEC08370B5
:10355000880F90917103997F892B80937103D0CF4D
:103560008DE380832F8538892F5F3F4F4091710312
:103570004695437062E083EA99E0D1CFEF85F88900
:1035800080818D3309F04AC08E010F5D1F4F25E009
:10359000AE014F5E5F4F65E971E0CF0101960E9479
:1035A000F71743E06DE979E089899A890E945A18F2
:1035B000182F833008F0D6C3823079F442E069E9ED
:1035C00079E08B899C890E945A188230E0F49091AE
:1035D0007B0380FB97F990937B03809172038111A9
:1035E0000BC0112349F080916F008F7D80936F0095
:1035F000B59A8DE08093BB04109372030E94D91595
:103600000E94D712AAC012E10E942111111101C01B
:1036100012E0082F30E020E0412F30C08DE380839E
:103620002F8538892F5F3F4F4091720363E08DE90A
:1036300099E00E941F1680917203823009F071CFC9
:1036400067E979E08CEC92E00E94BF332F853889DE
:10365000265F3F4F40917B0347FB442740F962E0E0
:1036600089E999E05CCF19858FEF810F863040F0B2
:103670000E942111082F30E020E041E060E07BCE85
:10368000EF85F88980818F3309F04BCF80917103EA
:103690006AE879E080FF02C06EE779E08CEC92E0A6
:1036A0000E94D3330E9481188091710367E579E00D
:1036B00080FF02C06CE479E08CEC92E00E94D3338E
:1036C000105D1093D0020E94811860E779E08CECC5
:1036D00092E00E94D3331093D0020E94811865E6D5
:1036E00079E08CEC92E00E94D3331093D0020E94D8
:1036F000811827CD19858FEF810F863008F0B8CF5C
:10370000EF85F88980818D3361F56F015FEFC51A10
:10371000D50A68E479E0C6010E94CA33892B59F0C2
:10372000C6010E949433813138F00E942111082F84
:1037300030E020E024C180E0A12FA150BB0BFD01AF
:10374000EE0FFF1FEA0FFB1FEF58FC4F84870E940C
:10375000D9150E94D7120E943A16EF85F889108277
:10376000E0CE8DE38083E12FE150FF0BCF01EE0F20
:10377000FF1FE80FF91FEF58FC4F24858F859889AC
:10378000222311F02F3131F464E479E001960E9494
:10379000D333C7CE1F922F9321E439E03F932F9369
:1037A00001962AC18985811163CFEF85F8898081CF
:1037B0008D3351F4CF0101960E949433873008F085
:1037C000B4CF80937C031ACF8DE3808380917C03F8
:1037D0001F928F938EE399E09F938F938F859889A3
:1037E000DFCFD9848FEF8D0D863008F041CFEF8584
:1037F000F88980818D3309F0C9C08E010F5D1F4F9C
:1038000025E0AE014F5E5F4F67E971E0CF010196A1
:103810000E94F717182F4EE062E279E089899A89B1
:103820000E945A18082F84EF800F823008F49CC33E
:1038300099249394123009F4912CAB88BC88D5015B
:1038400012968C91882309F442C08B32F1F5350130
:10385000B2E06B0E711C44E050E06CE977E0C3010C
:103860000E94B233892B61F047E050E063E977E0D2
:10387000C3010E94B233892B89F0C12C10E01DC016
:10388000F50187818111F0CF16818FEC810F1053E4
:10389000C12C863090F0C12C1FEF0FC0D5011B96B4
:1038A0008C911B978111E9CF1A961C918FEC810F97
:1038B0001053CC24C394863070F7812F881F88273B
:1038C000881F980E992009F41CC3912C40C3C12C69
:1038D00010E0F8CFFFEFAF1ABF0ABC82AB8286E0E0
:1038E0000D3009F08AE08D870E942111082F30E009
:1038F00020E041E061E03FCD873080F5E82F880F80
:10390000FF0BEB57F34E0C94A9378C1CAC1C8C1C92
:103910008C1CAC1C8C1CC11C033000F52D2D2150BF
:10392000330BC901220F331F280F391FF901E25849
:10393000FC4F0F70808180781770912F9295907F47
:10394000182F102B2F583C4FD9011E96BC92192BC3
:10395000C0FA17F91083FBCE002301F380917103A5
:103960006CEE78E080FF02C062EB78E080EE92E0DF
:103970000E94D3330E942111082F20EE32E042E052
:103980007DCE8DEF800F893048F2E8CF8DE38083C4
:10399000ED2DE150FF0B8F012F8538892F5F3F4FB1
:1039A000EE0FFF1F0E0F1F1FA80142585C4F7A0138
:1039B000DA014C914F706EE082E299E00E941F168E
:1039C000F701808194E0980F9F70923000F52F8569
:1039D0003889D9011196FD0101900020E9F78295FF
:1039E00087701F928F938FEA98E09F938F93CF01F8
:1039F0008A1B9B0B820F931F9F938F930E943834D7
:103A00000F900F900F900F900F900F908ACDF801AC
:103A1000EF58FC4F86851F928F9387EA98E09F931B
:103A20008F937F926F920E9438348F859889B3016B
:103A300001960E94B639D7012C91822F829587700A
:103A40000F900F900F900F900F900F9009F469CD89
:103A500090E04CE958E027FD02C045E958E02F8589
:103A60003889D9011196FD0101900020E9F79F9353
:103A70008F935F934F93BBCF19858FEF810F863064
:103A800008F0F6CDEF85F88980818D33D9F442E0D6
:103A900061E978E0CF0101960E945A18823008F05F
:103AA00044CEE12FE150FF0B9F019CE1929FF0017A
:103AB000939FF00D1124EB51FB4F908180FB94F903
:103AC00090834BCE8DE380832F8538892F5F3F4FC6
:103AD000412F4150550BCA014CE1489FF001499FCD
:103AE000F00D1124EB51FB4F40814295417062E093
:103AF00081E998E014CDEF85F88980818F3309F052
:103B000010CD66E878E08CEC92E00E94D3330E94FE
:103B100081188091710369E778E080FF02C06CE64C
:103B200078E08CEC92E00E94D3330E94811880915F
:103B300071036BE578E080FF02C06DE478E08CEC07
:103B400092E00E94D3330E9481188091710360E457
:103B500078E080FF02C062E378E08CEC92E00E94A3
:103B6000D333C5CDEF85F88980818D3309F542E0E7
:103B70006EE278E0CF0101960E945A18823008F078
:103B8000D4CD809373030E94D91520917503309191
:103B9000760340917703509178036091740380918C
:103BA00073030E94321290937A0380937903D5CDE8
:103BB0008DE380832F8538892F5F3F4F40917303BA
:103BC00062E08EE298E0ABCCEF85F88980818D339E
:103BD00081F4CF0101960E9494339C01245631094F
:103BE0002139314008F0A1CD90937603809375037D
:103BF000CACF8DE38083809176038F938091750384
:103C00008F938BE298E0E8CDEF85F88980818D3342
:103C100061F4CF0101960E9494339FEF980F903189
:103C200008F083CD80937403AECF8DE380838091C1
:103C300074031F928F9388E298E0CECDEF85F889C8
:103C400080818D33F9F4CF0101960E9494339C0159
:103C5000285F3A42213C3D4508F067CD90937803B8
:103C6000809377032091750330917603AC016091C6
:103C70007403809173030E94321290937A038093AD
:103C800079033ECC8DE3808380917A038F9380917A
:103C900079038F9385E298E09FCD8091BC0451CA4F
:103CA000EF85F889808142E061E278E08D33C9F0E8
:103CB0008DE380832F8538892F5F3F4F80917B0371
:103CC0008F7741E0873009F040E062E081E298E0E0
:103CD00026CCEF85F88980818D33A9F442E06DE12F
:103CE00078E0CF0101960E945A18823008F01DCD6D
:103CF00097E0811101C09EE080917B038078892B41
:103D000080937B037BCC8DE380832F8538892F5F65
:103D10003F4F80917B038F7741E0873009F040E08F
:103D200062E08DE198E0FBCBEF85F88980818D33EF
:103D300009F062C08E010F5D1F4F25E0AE014F5E9E
:103D40005F4F6BE971E0CF0101960E94F717813058
:103D500059F48F85988969E178E001960E94CA3309
:103D6000892BF1F110E050CC8230E1F709891A89F2
:103D700044E050E064E178E0C8010E94B233892B4E
:103D800089F7F80101900020E9F7CF010697801725
:103D9000910741F7D80114960C9190EDD92ED00ED1
:103DA00043E06EE078E08B899C890E945A18182FB6
:103DB0000153833088F4063088F4823099F48B897B
:103DC0009C8904960E9494339FEF980F983008F0D6
:103DD000C9C08093970306C0063020F21EE014CCC1
:103DE000D12C10E0612F809196030E942811D0926F
:103DF00095031093960384CB8DE3808320919603E3
:103E00008F859889211103C06AE078E0BFCC198AB8
:103E1000209195031F922F9322E038E03F932F9338
:103E200001969F938F930E9438340F900F900F90BC
:103E30000F900F900F90809196038230A1F48091A3
:103E400097031F928F938FEF97E09F938F93CE01ED
:103E500041969F938F930E9438340F900F900F904C
:103E60000F900F900F902F853889295F3F4F409119
:103E7000960363E08EE098E00E941F1680919603FF
:103E8000823009F04ECB8F859889BE016F5E7F4FDF
:103E90000B960E94B63945CB0F851889F8018081B1
:103EA0008D3331F5C80101960E949433811105C00C
:103EB0001092CB02D8011C9234CB909172039130B6
:103EC00021F48093CB02F8014ACC8091710364ED18
:103ED00077E080FF02C064EA77E080EE92E00E9423
:103EE000D3330E942111082F20EE32E043E0C6CBED
:103EF0008DE380838091CB021F928F9381EA97E0BC
:103F00006BCC0E3020F5BE01605E7F4FF5018081E5
:103F10000E948123B8A0B29480EFB822EB89FC897B
:103F2000BE01605E7F4F81810E94812388A1B82AF3
:103F30008B2D0E94C11187FFDFCCA989BA89FD01B1
:103F400001900020E9F7EA1B6CE0962E9E0E0E947D
:103F50002111911002C052E0952E082F30E020E090
:103F6000492D8CCB14E150CB8BE090E00D3011F457
:103F700087E090E0AF84B8888A0D9B1D0E9494333F
:103F80009FEF980F963008F0A5CCED2DE150FF0B78
:103F90009F01EE0FFF1FE20FF31FE258FC4F102F9F
:103FA0001F700081007887708295807F012B082B1D
:103FB000008324CB1F920F920FB60F9211242F93E0
:103FC0003F934F935F936F937F938F939F93AF93A1
:103FD000BF93EF93FF9382ED93E00E942908FF9136
:103FE000EF91BF91AF919F918F917F916F915F9171
:103FF0004F913F912F910F900FBE0F901F901895EA
:104000001F920F920FB60F9211242F938F939F93AD
:10401000EF93FF93E091E203F091E3038081E0915D
:10402000E803F091E90382FD1BC090818091EB03CE
:104030008F5F8F732091EC03821741F0E091EB03C7
:10404000F0E0EE52FC4F958F8093EB03FF91EF91E0
:104050009F918F912F910F900FBE0F901F901895E9
:104060008081F4CF1F920F920FB60F9211242F93DD
:104070003F938F939F93AF93BF938091EC01909167
:10408000ED01A091EE01B091EF013091EB0123E041
:10409000230F2D3758F50196A11DB11D2093EB017B
:1040A0008093EC019093ED01A093EE01B093EF01AA
:1040B0008091F0019091F101A091F201B091F30192
:1040C0000196A11DB11D8093F0019093F101A09381
:1040D000F201B093F301BF91AF919F918F913F9106
:1040E0002F910F900FBE0F901F90189526E8230F69
:1040F0000296A11DB11DD2CF1F920F920FB60F9243
:1041000011242F933F934F935F936F937F938F93DC
:104110009F93AF93BF93EF93FF938091B900887FF4
:10412000803609F44AC0F0F5883209F4A7C018F5C2
:10413000803109F49BC0B8F4882309F4F9C08830B1
:1041400009F494C0FF91EF91BF91AF919F918F912E
:104150007F916F915F914F913F912F910F900FBE83
:104160000F901F901895883109F488C0803251F75C
:104170008093450314C0803409F49DC040F480331B
:10418000B9F38833F9F68093450385ECB0C08035E8
:1041900009F485C0883509F496C0883499F60E94E0
:1041A000BF17D0CF883909F48CC038F5883729F08B
:1041B00050F4883611F0803729F683E08093470366
:1041C0001092EA0157C0883809F47BC0803919F091
:1041D000803809F0B7CF8091EA01803208F071C0D1
:1041E000E091EA0181E08E0F8093EA018091BB00AB
:1041F000F0E0E653FE4F80833DC0803B39F0E0F4B1
:10420000803A09F479C0883A09F09CCF84E0809321
:1042100047031092C9011092C801E091F601F09194
:10422000F70109958091C80181110FC081E0809349
:10423000C8011092A80109C0803C09F4A6CF883CAF
:1042400009F4A3CF883B09F07DCFE091C90181E05B
:104250008E0F8093C901F0E0E855FE4F8081809376
:10426000BB009091C9018091C80129C080912203AF
:104270008093BB0085EC8093BC0064CF9091440395
:1042800080914303981758F5E091440381E08E0F25
:1042900080934403F0E0ED5DFC4F8081E9CFE09135
:1042A000440381E08E0F809344038091BB00F0E0D3
:1042B000ED5DFC4F808390914403809143039817F8
:1042C000C8F285E8D8CFE091440381E08E0F809357
:1042D00044038091BB00F0E0ED5DFC4F8083809152
:1042E000460381115CCF81E08093210384EA8093AF
:1042F000BC001092470326CF85EC8093BC0010923F
:1043000047038091EA01803230F4E091EA01F0E065
:10431000E653FE4F10826091EA0170E0E091F401F3
:10432000F091F5018AEC91E009951092EA010ACF2B
:104330001092450334CF1F920F920FB60F921124A3
:104340002F933F934F935F936F937F938F939F939D
:10435000AF93BF93CF93EF93FF9389B190916D008B
:1043600089238093D0038091CF039091D003892734
:104370008093CE038091D0038093CF03C0E08091DF
:10438000CD03C81760F4EC2FF0E0EE0FFF1FE953E8
:10439000FC4F0190F081E02D0995CF5FF0CFFF91A8
:1043A000EF91CF91BF91AF919F918F917F916F913D
:1043B0005F914F913F912F910F900FBE0F901F90E3
:1043C00018951F920F920FB60F9211242F933F93BF
:1043D0004F935F936F937F938F939F93AF93BF930D
:1043E000CF93EF93FF9386B190916C0089238093D4
:1043F000C6038091C5039091C60389278093C403A7
:104400008091C6038093C503C0E08091C303C817A1
:1044100060F4EC2FF0E0EE0FFF1FE354FC4F01902F
:10442000F081E02D0995CF5FF0CFFF91EF91CF9113
:10443000BF91AF919F918F917F916F915F914F91BC
:104440003F912F910F900FBE0F901F9018951F92C4
:104450000F920FB60F9211242F933F934F935F93B8
:104460006F937F938F939F93AF93BF93CF93EF936C
:10447000FF9383B190916B0089238093BC0380915B
:10448000BB039091BC0389278093BA038091BC033E
:104490008093BB03C0E08091B903C81760F4EC2F90
:1044A000F0E0EE0FFF1FED54FC4F0190F081E02D86
:1044B0000995CF5FF0CFFF91EF91CF91BF91AF9171
:1044C0009F918F917F916F915F914F913F912F912C
:1044D0000F900FBE0F901F9018951F920F920FB65E
:1044E0000F9211242F933F934F935F938F939F933A
:1044F000EF93FF938091810086FF2FC0809186000B
:10450000909187002091BD043091BE04AC01421B04
:10451000530B9A019093BE048093BD04203757E15A
:10452000350798F12091BB042093BC041092BB0482
:104530002FEF2093A10423B1209521702093A20492
:1045400020919F0131E0211130E030939F01211132
:1045500011C09093C0048093BF04FF91EF919F918D
:104560008F915F914F913F912F910F900FBE0F90C0
:104570001F9018952091BF043091C004821B930BAB
:104580009093C2048093C104E8CF8091BB048C3027
:1045900020F7E091BB04F0E0EE0FFF1FED55FB4F5D
:1045A000318320838091BB048F5F8093BB04D5CF80
:1045B0001F920F920FB60F9211242F933F938F9358
:1045C0009F93EF93FF938091CF04882381F0809194
:1045D000CD048F5F8093CD049091CD048091CE0463
:1045E000891728F41092CD048FEF8093CB0480912B
:1045F000CC04882311F019992CC08091CC0481112E
:1046000002C0199B26C08091CD0490E0880F991FAD
:104610002091C9043091CA04820F931FFC0180814C
:1046200091812091880030918900820F931F90938F
:1046300089008093880081E08093CF04FF91EF91FF
:104640009F918F913F912F910F900FBE0F901F90D0
:10465000189520918800309189008091C70490912D
:10466000C804880F991F820F931F9093890080932D
:1046700088001092CF04E2CFCF92DF92EF92FF92A8
:104680000F931F93E82FF92F05C00150110921093D
:10469000310961F1908196239417B9F305C0015057
:1046A00011092109310911F1908196239413F7CF53
:1046B000C12CD12CE12CF12C0AC08FEFC81AD80ADA
:1046C000E80AF80A0C151D052E053F0579F08081D2
:1046D0008623841791F36C2D7D2D8E2D9F2D1F9198
:1046E0000F91FF90EF90DF90CF90089560E070E021
:1046F00080E090E01F910F91FF90EF90DF90CF90BE
:1047000008950F931F93CF9390ED980F9A3038F43C
:10471000FB01908381E0CF911F910F9108958B0150
:10472000C82F082E000C990B0E94983981549109CA
:10473000069720F4C753F801C083ECCF80E0EBCF9D
:10474000CF93DF93E2EDF3E01382128288EE93E0E1
:10475000A0E0B0E084839583A683B7832DE231E0A7
:104760003183208325EC30E03587248724EC30E04A
:104770003787268720EC30E0318B208B21EC30E02E
:10478000338B228B22EC30E0358B248B26EC30E00F
:10479000378B268B118E128E138E148EEFE6F4E07B
:1047A0001382128284839583A683B7838FE391E07B
:1047B00091838083EBE7F4E081E591E0918380834E
:1047C0001382E3ECF4E08BE591E091838083178220
:1047D0001682108681E081871286148685E691E034
:1047E0009093A00480939F04C8E8D5E089E791E006
:1047F00099838883EDE8F5E080818B7F80838FE665
:1048000091E09093870580938605E3E8F5E0808149
:10481000AAE7B5E01296DC93CE9311979FED9C9397
:1048200018961C92189791812281207F29602283FB
:1048300080719C779260918380628F7E80831496D2
:104840001C92149715961C92C0917805D091790509
:10485000BE0180ED94E00E94F211BE018CEE94E066
:104860000E94F211BE0188E095E00E94F211BE01A3
:1048700084E295E00E94F211BE0180E495E00E947E
:10488000F211BE018CE595E0DF91CF910C94F2110D
:10489000CF93DF93CDB7DEB7AE970FB6F894DEBFF8
:1048A0000FBECDBF789484B5826084BD84B581602D
:1048B00084BD85B5826085BD85B5816085BD8091EB
:1048C0006E00816080936E00109281008091810063
:1048D000826080938100809181008160809381005B
:1048E000809180008160809380008091B10084601D
:1048F0008093B1008091B00081608093B00080917E
:104900007A00846080937A0080917A00826080933C
:104910007A0080917A00816080937A0080917A0099
:10492000806880937A001092C100E091E203F091D8
:10493000E30382E08083E091DE03F091DF031082E5
:10494000E091E003F091E10380E180831092EA03BB
:10495000E091E603F091E70386E08083E091E403D1
:10496000F091E503808180618083E091E403F09120
:10497000E503808188608083E091E403F091E503A2
:10498000808180688083E091E403F091E503808179
:104990008F7D808307E011E062E0D8018D918D0169
:1049A0000E945709B1E007311B07B1F70E94C015FB
:1049B0000E948C1780917B03982F9F779F3709F077
:1049C0004CC090917103987F9093710391E0909304
:1049D00072031092730398E0909374032CE231E019
:1049E000309376032093750324EE37E530937803F4
:1049F0002093770330937A032093790380788E6035
:104A0000806880937B0310927C03A1E7B3E030E0E1
:104A100020E085E01C968C931C97F901EE0FFF1F98
:104A2000E20FF31FE258FC4F8081807F8260808319
:104A30001E961C921E9780818F788F7780832530F9
:104A4000310509F094C081E080939503809396032B
:104A500085E0809397030E94D9151091720311117C
:104A600097C00E940A100E94A8094B015C01A4EFA4
:104A7000CA2EDD24D394E12CF12C0E94A8096819D8
:104A800079098A099B09683E734081059105A8F35D
:104A9000E1E0CE1AD108E108F108F8EE8F0EF3E05C
:104AA0009F1EA11CB11CC114D104E104F10429F71B
:104AB0008091A204809373038091BC04809374035B
:104AC000F8949091A20481E0913009F080E00E9476
:104AD000FA156115710541F49091A20481E09130BD
:104AE00009F080E00E94FA15789470937603609341
:104AF00075034091C1045091C2048091C10490910A
:104B0000C20448175907A9F756954795509378035B
:104B1000409377038091FA019091FB01892B61F119
:104B20009091BC0480917403891710F48091BC04A7
:104B30009B01682F809173030E9432129093FF01B2
:104B40008093FE018091BC048091BC049091740319
:104B5000981710F48091BC040E948C1762E075E0F5
:104B600082ED93E00E9498080E94AF1111C02F5F60
:104B70003F4F139680E04ECF62E175E082ED93E007
:104B80000E9498080E94AF111F5F143009F06BCF8C
:104B90000E94D7126091960380E00E942811109223
:104BA000200310921F0310924E03109270030E9474
:104BB000000A89EA97E09093F7018093F6018AEA68
:104BC00097E09093F5018093F4010E943A161FEF4D
:104BD00082ED93E00E940908892BF9F082ED93E0C1
:104BE0000E94E7078A30A9F09091CA028D3049F0FF
:104BF000883009F08CC0992359F391509093CA02E0
:104C0000E7CFE92FF0E0E453FD4F1082192F109207
:104C1000CA0217FDDDCF0E94811880910102811127
:104C200007C00E94CD096093000281E080930102D9
:104C300080917203882309F474C0823009F4B2C0F1
:104C400080ED882E84E0982E712C612C95E3492EFE
:104C500092E0592ED4011E968C918F3109F430C206
:104C60008CE1869DF001879DF00D1124EB51FB4FE7
:104C7000808183FF25C27301EE0CFF1CEE0CFF1C2C
:104C8000D701AB54BD4FBC90B2940FE0B022870166
:104C90000E541D4FBB2009F4C8C0816080838B2D4A
:104CA00090E0019695958795F401A784A8161906BA
:104CB00009F00CF48BC0A82ECA2CD12CA601B80187
:104CC000D40150968D919C910E94AD399B2D91708D
:104CD000B0FE0CC0D4015096ED91FC91960121508C
:104CE0003109E20FF31F8081807F8083F4012089E6
:104CF000318950E040E080E04A1508F069C0F901D0
:104D0000E40FF51F608186274F5F5F4FF5CF923329
:104D100008F05ECFE92FF0E0E453FD4F80839F5F02
:104D20006DCF8091A10490E0880F892F881F990B87
:104D3000892B09F485CF8091A1048F778093A104FA
:104D4000FF24F39403E813E08091BC048F1508F46A
:104D500077CFE1E7F3E08485F81611F133960E176B
:104D60001F07C9F7F11003C04EEE52E012C0809148
:104D7000BC048F15C8F3EFEFEF0DF0E0EE0FFF1F4F
:104D8000ED55FB4F808191814081518184179507BA
:104D9000C9F7569547956F2D83EC94E00E948410D7
:104DA000F394D2CF80917E04282F30E0220F232F5E
:104DB000221F330B232B11F40C9428338F7780930D
:104DC0007E040E94CD09609300023ACFAA9474CF6A
:104DD000992309F4EDC0F6013197E20FF31F982FE4
:104DE00092959F7025E029279081922B9083D40182
:104DF00050962D913C91C20ED31EB0E18B9FC00105
:104E0000112490E58927F6018083B394B394F401CB
:104E1000B48A168A8CE1869DF001879DF00D1124DD
:104E2000EB51FB4F8081877F80836301CC0CDD1CBD
:104E3000F601E60DF71DE258FC4F8081382E3294C2
:104E4000AFE03A22F32DF7703F2E8F7093012F5F62
:104E50003F4F5901823009F47CC108F4B0C097EF8C
:104E6000980F933008F02CC1A70146565D4FDA0128
:104E700011962C91119712969C91F8016181E08016
:104E800030E1E39EF0011124E62EE2943FE0E322BC
:104E9000EE0EFF2EF11CD80112963C908B3009F4D7
:104EA000F7C1B0E16B9FB00111243294BFE03B2207
:104EB000360EE0E12E9FB001112492959F70960F5F
:104EC000391218C0DA018C91B0E18B9FB001112426
:104ED000822F82958F70860F972F911DF701E81B07
:104EE000F90BCF01F7FF03C09195819591090697C2
:104EF0000CF4E6C020E13EE0D7010E94AF37ACE001
:104F00009695879577956795AA95D1F778A36F8F32
:104F100084E0F801DA0101900D928A95E1F70E9490
:104F2000AF11FF92EF92FF92EF928F8D98A16AE0FE
:104F300070E00E9481379F938F937F936F93BF920E
:104F4000AF928CEE96E09F938F931F9214E61F937F
:104F50005F924F920E94083465E372E082ED93E025
:104F60000E94DE13F601E60DF71DE258FC4F80812A
:104F70008F700FB6F894DEBF0FBECDBF8B3009F433
:104F80009DC01F923F921F923F9288ED96E09F93A3
:104F90008F931F921F935F924F920E94083465E394
:104FA00072E082ED93E00E94DE130E94AF1181C097
:104FB000C20ED31E95E58927D6018C9326CFA70173
:104FC00046565D4F6A0144E050E0B801C6010E94B8
:104FD000A039892B09F474C084E0F801D60101904E
:104FE0000D928A95E1F70E94AF1161E877E07F9317
:104FF0006F931F9274E6D72EDF925F924F920E94BA
:10500000083465E372E082ED93E00E94DE130E94B3
:10501000AF11BF92AF92A6E7B7E0BF93AF931F92D5
:10502000DF925F924F920E94083465E372E082ED56
:1050300093E00E94DE130FB6F894DEBF0FBECDBF23
:10504000E7E0CE2ED12CA7014E545D4F7A0181E0CE
:1050500090E0311002C090E080E08E0D9F1DDC01D9
:105060008C9190E00C2C02C0959587950A94E2F7FC
:10507000817099270E947214B1E0CB1AD10838F7D9
:105080003320E1F0D8018C911F928F931F928F9360
:10509000E3E6F7E0FF93EF931F9284E68F935F922E
:1050A0004F920E94083465E372E082ED93E00E9423
:1050B000DE130FB6F894DEBF0FBECDBF0E94AF1156
:1050C0005FEF651A750A6CE1860E911C76E0671633
:1050D000710409F0BFCD009198031091990360E02D
:1050E0000115110509F430C2D8011C968D919C91CF
:1050F000F62E009709F438C1FF24F394F60EDC0174
:10510000ED91FC910190F081E02D0995882309F43F
:105110002BC1F801258921FDCBC02260258B24FFFE
:1051200040C19789492F4295469546954370308DE9
:10513000832F8770880F880F842B9F73387F25FFFC
:1051400018C18111A7C02F7D258B9064978B308F5C
:10515000AFC0B70166567D4F6B0144E050E0B80127
:10516000C6010E94A039892B09F4AACF84E0F80176
:10517000D60101900D928A95E1F70E94AF1182E568
:1051800097E09F938F931F9254E6D52EDF925F9204
:105190004F920E94083465E372E082ED93E00E9432
:1051A000DE130E94AF11E8E3F7E0FF93EF931F9245
:1051B000DF925F924F920E94083465E372E082EDC5
:1051C00093E00E94DE130E94AF11BF92AF924DE2B6
:1051D00057E05F934F931F92DF925F924F920E942E
:1051E000083465E372E082ED93E00E94DE130FB6AF
:1051F000F894DEBF0FBECDBF67E0A62EB12CD7015D
:10520000AE54BD4F6D0181E090E0311002C090E0DE
:1052100080E08C0D9D1DFC01808190E00A2C02C075
:10522000959587950A94E2F7817099270E947214E8
:10523000F1E0AF1AB10838F782E090E0311002C017
:1052400081E090E047E0C42ED12CA7014E545D4F81
:105250007A01E80EF91ED7018C9190E00C2C02C067
:10526000959587950A94E2F7817099270E947214A8
:10527000B1E0CB1AD10878F7332009F41FCFD80159
:105280008C911F928F931F928F93EAE1F7E002CFE8
:10529000312C18CE815E282F2F718295880F880FB0
:1052A000807C892B878B822F86958695382B308F33
:1052B000D8011C968D919C911D975796EC9157970C
:1052C0002E2F22952695269523705896EC91E770FF
:1052D000EE0FEE0FE22BF0E0EE0FFF1FEE5DFA4F48
:1052E00065917491DC01ED91FC910480F581E02DD4
:1052F000D8011E964C910995F8018789982F9695AB
:10530000969596959F5F9770292F220F220F220F57
:10531000877C822B878B282F2770921728F1877C18
:10532000878B85898D7F858B80FF1EC02689878529
:1053300090E0880F991F2817190614F42F5F268B09
:10534000D80157968C915797982F92959695969548
:10535000937058968C9158978770880F880F892B77
:10536000813111F456961C92F801028D138D6F2D28
:10537000B7CE8F5F8F71482F4295440F440F407C0A
:10538000942B978B482F46954695342B308F82313E
:1053900008F48ECF2062258B9F73978B387F346003
:1053A000D6CED8014789308D22FDBBC0848920FF2D
:1053B00077C09689981708F069C0E92FE69550964E
:1053C0006D917C915197E60FF72FF11D60815296F8
:1053D0006C935297062E000C770BE4E07595679559
:1053E000EA95E1F76F707727262F2295220F220F7B
:1053F000207C4F73422B57964C9357977695679521
:10540000769567956770387F632B58966C93292F34
:1054100030E02F5F3F4F8217130611F480FD04C068
:10542000F80185898460858BD80157962C91579710
:10543000322F329536953695337058968C91589711
:10544000982F9770990F990F932B382F3695369583
:105450003695931308C02F7357962C935797887FD0
:10546000846058968C93F8019789292F2295269568
:1054700026952370808D8770982F990F990F922B06
:10548000990F990F990F892B808F12CF4F7340641A
:10549000478B387F3460308F286055962C93C4CF6B
:1054A000938989130AC04F734064478B387F3460F7
:1054B000308F2860258B118EB7CF90E00088F1895E
:1054C000E02DE80FF91FE0815296EC935297019678
:1054D0001F966C9170E00E949537D80154968C937A
:1054E00054970E2E000CFF0B54E0F595E7955A9556
:1054F000E1F7EF70FF278E2F8295880F880F807C51
:105500004F73482B57964C935797F695E795F6951A
:10551000E795E770387FE32B5896EC935897246013
:10552000BCCF8289982F9F708295880F880F807CCE
:105530004F73482B478B892F86958695387F382B5C
:10554000308F2B7F258B70CF8091240281110DC06D
:105550000E94CD0960932002709321028093220261
:105560009093230281E0809324028091180281119C
:1055700007C00E94CD096093170281E08093180252
:105580008091CB0280FF62C0809195038150990B7E
:10559000FC01EE0FFF1FE80FF91FE258FC4F80815E
:1055A0008C5F8F70823008F049C080911502909115
:1055B0001602DC01ED91FC910190F081E02D66E096
:1055C0000995882309F442C00E94CD0980911702F1
:1055D000162F181B0E94CD096093170280911502A7
:1055E00090911602DC01ED91FC910280F381E02D97
:1055F0006091970309951F921F939F938F938091BA
:1056000095031F928F9387EB96E09F938F931F9242
:1056100084E68F9385E392E09F938F930E940834F2
:1056200065E372E082ED93E00E94DE130E94AF1109
:105630000FB6F894DEBF0FBECDBF08C00E94A30610
:10564000813009F461C0823009F4B8C08091CB0286
:1056500081FF3EC3809195038150990BFC01EE0FB1
:10566000FF1FE80FF91FE258FC4F80818C5F8F709D
:10567000823008F42DC30E94A3068091830584FF25
:1056800027C38F7E8093830500918005109181054B
:105690000E94CD09C0900902D0900A02E0900B024E
:1056A000F0900C029B01AC012C193D094E095F09D9
:1056B00069017A01A8014C5D55402CE435E070E0A9
:1056C000F9018591949197FD0196959587954C9751
:1056D000481759070CF4AEC3F9018591949197FDD1
:1056E0000196959587954C96841795070CF4A2C35F
:1056F000872F703109F4BBC2713109F4A5C37A3028
:1057000008F09FC3705DB4C280917F0590918305BE
:1057100092FF4EC0863008F049C0E82FF0E0E15F0C
:10572000FD4F90917E059083806810927F05909147
:1057300083059B7F90938305882309F487CF9091FD
:105740000D029F5F90930D02682F6F77F62EFF0C6E
:1057500087FDF39470E0FB01E25FFD4F4081FF2D78
:10576000F170DF2EF0FE12C0FB01E15FFD4F808182
:10577000082E000C990B14E0959587951A95E1F782
:105780008F7020E14202A0011124482B80E090E0BC
:1057900061507109292F30E0261737070CF5215F7A
:1057A0003D4FD9012C9182279F5FF4CF80E0BDCF80
:1057B000882309F44BCF10927F05C1CFE0917F057C
:1057C000E63058F481E08E0F80937F05F0E0E15FD2
:1057D000FD4F80917E05808339CF10927F0536CFB3
:1057E000DD2031F0215F3D4FF9019081907F8927C5
:1057F00095E5892784132DC20E94AF1180919503EE
:10580000EFEFE80F2E2F30E0F901EE0FFF1FE20F50
:10581000F31FE258FC4F9081E92FEF70F0E0EA5B54
:10582000FA4FE4919295977009F4D6C092E0E90F8F
:10583000F0E03296FE161F0609F0E7C11F92FF92B4
:105840001F928F9380EA96E09F938F931F92F4E6C6
:10585000EF2EEF9205E312E01F930F930E9408349E
:10586000B80182ED93E00E94DE136F2D66956150C2
:105870004D2D8FE092E00E9482150E94CD0980900C
:10588000200290902102A0902202B0902302DC011D
:10589000CB0188199909AA09BB09BF93AF939F93BC
:1058A0008F9387E996E09F938F931F92EF921F93B8
:1058B0000F930E940834B80182ED93E00E94DE133A
:1058C0000E94AF11809195038150990B0FB6F89407
:1058D000DEBF0FBECDBFFC01EE0FFF1FE80FF91FAB
:1058E000E258FC4F8081982F9F70923009F476C067
:1058F00008F435C19950933008F0D9C0D090100207
:1059000040910F0250E1459FC00111244D2D429559
:105910004F70480F592F511DF090110220E13EE0C9
:10592000DA010E94AF37DC01CB012CE0B695A795D8
:10593000979587952A95D1F75F934F935F934F93F0
:105940006AE070E00E9481379F938F937F936F93FB
:1059500081E396E09F938F931F92EF921F930F9393
:105960000E94083465E372E082ED93E00E94DE134A
:10597000809195038150990BFC01EE0FFF1FE80FFA
:10598000F91FE258FC4F80818F700FB6F894DEBF8C
:105990000FBECDBF8B3009F488C070E1D79EC00127
:1059A0001124F2949FE0F922F80E1F92FF921F92A9
:1059B000FF928EE196E09F938F931F92EF921F9339
:1059C0000F930E94083465E372E082ED93E00E9439
:1059D000DE130E94AF1164C090E029CF82958770DA
:1059E00021E030E011F430E020E0215F3D4FD901AB
:1059F0002C9130E0322F2227882309F4ADC082E0B9
:105A000090E0815F9D4FFC018081820F932F911D5B
:105A10009827892798279A83898387E896E09F9318
:105A20008F931F9264E6F62EFF9205E312E01F9318
:105A30000F930E940834B80182ED93E00E94DE13B8
:105A400040E062E0CE0101960E94821580919503AC
:105A50008150990BFC01EE0FFF1FE80FF91FE25870
:105A6000FC4F8081829587700F900F900F900F9060
:105A70000F900F90D1F080910F021F928F931F9281
:105A80008F9383E796E09F938F931F92FF921F93CC
:105A90000F930E940834B80182ED93E00E94DE1358
:105AA0000FB6F894DEBF0FBECDBF0E94AF110E94AB
:105AB000CD0960932002709321028093220290937B
:105AC000230280910D02843608F4C0CD0E94AF11EC
:105AD00083EB95E09F938F931F9204E6F02EFF9245
