:100000000C94D1080C94F9080C94F9080C94FF2571
:100010000C94B9250C9473250C94F9080C94F908E8
:100020000C94F9080C94F9080C9445260C94B0260D
:100030000C94F9080C94F9080C94F9080C94F9083C
:100040000C940A240C94F9080C94D8230C94B22331
:100050000C94F9080C94F9080C94F9080C94F9081C
:100060000C9454240C94F9080D000A004E420044EC
:100070004247005649544553534500535045454463
:100080000046494E414C00494E495449414C0050AC
:100090004552494F444500504552494F4400454E52
:1000A0005445544500484541444552004D4F445540
:1000B00000564F4945004348414E4E454C0054457B
:1000C0005354004D45535341474500524550455404
:1000D00000524550454154004D4F4445005445524F
:1000E0004D0052580053425553005243554C004561
:1000F000434F4C41474500545241494E4552004CF4
:1001000049474E45004C494E450056455253494FCC
:100110004E00414944450048454C5000434F4E462F
:10012000004350504D0050574D00524150494445F6
:10013000004E4F524D414C450046415354004E4FE6
:10014000524D414C00504F53004E4547004F4E001A
:100150004F464600414E474C4500414E474C452BCB
:10016000414E4100414E474C452B414E415F494E67
:10017000560043312D4331360043392D433136008B
:1001800043312D43380046555441424100465554B1
:100190004142415F494E5600534255535F4F5554BB
:1001A000004350504D5F4F5554004350504D5F4FEA
:1001B00055542B4350504D5F494E0043520043521B
:1001C0004C4600465200554B006C00DD00D800D173
:1001D00000CB00C300BE00B600B100AC00A5009E7D
:1001E0000097008F00870081007B0073006F001C68
:1001F00001170112010A01CC100501FF00F700EF01
:1002000000EA002101E500E2006A0068002573426F
:100210005552432025735625642E2564002D2D202C
:10022000202020202D2D2D2D2D2D2D2D2D2D20204C
:100230002020202D2D2D2D2F2F2D2D2D2D20202038
:1002400020202D2D2D2D2D2D2D2D2D2D202020202C
:10025000202D2D2D2D2D2D2D2D2D2D2D2D2D2D2DDB
:100260002D2D2D2D002020202D2D2D202020202053
:10027000202020202020202D2D2D20202020202057
:100280002020202020202D2D2D2020202020202047
:1002900020202020202D2D2D202020202020202037
:1002A000202020202020202020202020202D2D2D27
:1002B000002020202020202020202020202020205E
:1002C000202020202020202020202020202020202E
:1002D00020506572696F640020203C2D2D2D2D2D3E
:1002E0002D2D2D2D2D2D2D2D2D2D2D2D2D2D2D2D3E
:1002F0002D2D2D2D2D2D2D2D2D2D2D2D2D2D2D2D2E
:100300002D2D2D2D2D2D2D2D2D2D2D2D2D2D2D2D1D
:100310002D2D2D2D2D2D2D2D2D2D2D2D2D3E002036
:10032000204865616465720020203C2D2D2D3E0023
:1003300020207C2020207C202043483120202020A9
:10034000207C2020207C20202020202020202020F5
:100350007C2020207C202043482573202020207CE6
:100360002020207C20202020202053796E6368727A
:100370006F2020202020207C2020207C003D3D3D3F
:100380003D3D3D3D3D3D3D3D3D3D3D3D3D003D3DDA
:1003900000204350504D206672616D653A004669F9
:1003A0006E616C00496E697469616C00202852436B
:1003B000554C2564206D657373616765202D3E2063
:1003C0004348256429002D506572696F64202875A3
:1003D00073292020203D202564002D486561646537
:1003E0007220287573292020203D202564002D438C
:1003F00068616E6E656C204E62202020203D2025B5
:1004000064002D4D6F64756C6174696F6E202020DF
:10041000203D202573003D3D3D3D3D3D3D3D3D3D65
:100420003D3D3D3D3D3D3D3D3D3D3D3D3D3D3D3DFC
:10043000003D3D00204350504D2063686172616370
:100440007465726973746963733A0046696E616CAE
:1004500000496E697469616C00436869703D257379
:10046000005265672330333D3078253032580052D2
:1004700065672330323D3078253032580052656749
:100480002330313D307825303258005265672330B3
:10049000303D307825303258004D63703233303182
:1004A000374D61703D307825303258002E002E00D7
:1004B0002E0000000000240027002A000000000099
:1004C000250028002B0000000008000201000003A6
:1004D000040700000000000000004350504D20734E
:1004E00069676E616C204F4B21004E6F2043505066
:1004F0004D207369676E616C21000004380470043C
:10050000A804E004180550058805C005F805300664
:100510006806A006D806100748078007B80748FCF9
:10052000B8FC28FD98FD08FE78FEE8FE58FFC8FFDD
:100530003800A80018018801F8016802D8024803B1
:10054000B803202D3E20002A2A2A2A2A2A2A2A2ACB
:100550002A2A2A2A2A2A2A2A2A2A2A2A2A00202534
:1005600000205243554C207175616C697479203DAF
:1005700020002A2A2A2A2A2A2A2A2A2A2A2A2A2A0F
:100580002A2A2A2A2A2A2A2A005243554C204C6514
:100590006E677468206F7220436865636B73756D56
:1005A000206572726F7221005243554C204C656E6B
:1005B000677468206572726F7221204578704E6989
:1005C00062626C654C656E3D256420202852784E31
:1005D0006962626C654C656E3D2564290020416E40
:1005E000613D253033752028307825303258290078
:1005F000416E676C653D2533752E2575C2B0202888
:100600002530347529202830782530335829004387
:100610006F6E746163745B382E2E315D3D00436FE5
:100620006E746163745B31362E2E315D3D00205453
:100630003D005D3D002E4D73675B546F744E626CE0
:100640003D005243554C000202040505032C204195
:100650006E613D2530337520283078253032582999
:1006600000536F75726365205243554C25753A20CF
:10067000416E676C653D2533752E2575C2B0202807
:1006800025303475292028307825303358290052F8
:1006900043554C25752E5357200020202020202024
:1006A000202020363534333231303938373635343E
:1006B00033323100536F757263653A202031313126
:1006C00031313131005243554C25752E535720009E
:1006D000536F757263653A202038373635343332BC
:1006E0003100E4031C041C04540454048C048C04E2
:1006F000C404C404FC04FC04340534056C056C0516
:10070000A405A405DC05DC05140614064C064C06FD
:1007100084068406BC06BC06F406F4062C072C07E7
:10072000640764079C079C07D407636F6D6D616E57
:10073000645F6E616D653F202020202020202020F6
:1007400020202020202020202020202020202020A9
:100750002020202020202020202020202020202099
:100760002020202020202052657475726E2074682D
:10077000652063757272656E742076616C75652094
:100780006F66207468652022636F6D6D616E645FB3
:100790006E616D652220636F6D6D616E642028450A
:1007A000673A20545241494E45522E4D4F44453FE1
:1007B0002900434F4E463F2020202020202020208B
:1007C0002020202020202020202020202020202029
:1007D0002020202020202020202020202020202019
:1007E00020202020202020202020202020202052D7
:1007F000657475726E207468652066756C6C206314
:100800006F6E66696775726174696F6E0052582EFB
:100810004442473D44656275674C6576656C2020AF
:1008200020202020202020202020202020202020C8
:1008300020202020202020202020202020202020B8
:100840002020202020202020202053657420746840
:1008500065205258206465627567206C6576656C0A
:100860002028443820696E7075742920284D7367DC
:10087000204C6576656C3A2044656275674C6576F8
:10088000656C3D312C204E6962626C65204C65764A
:10089000656C3A2044656275674C6576656C3D32DF
:1008A000290052582E4D4F44453D4F46462F524346
:1008B000554C784050574D2F5243554C784043503B
:1008C000504D782020202020202020202020202073
:1008D00020202020202020202020202020202053E5
:1008E000657420746865205258206D6F64652074AB
:1008F0006F204F46462C2050574D206F722043509A
:10090000504D782028443820696E7075742920284D
:100910007820697320746865206368616E6E656C09
:10092000206E756D62657229005243554C782E54C5
:100930004553543D4F46462F4F4E20202020202027
:1009400020202020202020202020202020202020A7
:100950002020202020202020202020202020202097
:100960002020202020205365742074686520737730
:100970006565702074657374206D6F646520666FA3
:100980007220746865205243554C207820696E733C
:1009900074616E63652028782066726F6D20312047
:1009A000746F203629005243554C782E4D455353D1
:1009B0004147453D43312D43382F43392D4331368F
:1009C0002F43312D4331362F414E474C452B414E5D
:1009D000415B5F494E565D2F414E474C4540307854
:1009E00058582053657420746865207061796C6F65
:1009F0006164206174203078585820493243206166
:100A0000646472657373206F662074686520524356
:100A1000554C206D657373616765005243554C7882
:100A20002E4348414E4E454C3D7920202020202029
:100A300020202020202020202020202020202020B6
:100A400020202020202020202020202020202020A6
:100A500020202020202020205365742074686520E9
:100A60006368616E6E656C20792028792066726FEC
:100A70006D203120746F2031362920666F7220740A
:100A80006865205243554C207820696E7374616EFE
:100A900063652028782066726F6D203120746F2086
:100AA0003629005243554C2E5245504541543D780D
:100AB0002020202020202020202020202020202036
:100AC0002020202020202020202020202020202026
:100AD0002020202020202020202020202020202016
:100AE00053657420746865206E756D626572206F41
:100AF00066207265706561746974696F6E2028780C
:100B00002066726F6D203020746F203329005342AD
:100B100055532E53504545443D4E4F524D414C2F59
:100B20004641535420202020202020202020202017
:100B300020202020202020202020202020202020B5
:100B40002020202020202020202020536574207485
:100B50006865205342555320737065656420284EA4
:100B60004F524D414C3D31346D732C20464153540E
:100B70003D376D7329004350504D2E504552494F1B
:100B8000443D78787878782020202020202020206C
:100B90002020202020202020202020202020202055
:100BA0002020202020202020202020202020202045
:100BB00020202053657420746865204350504D20D8
:100BC000706572696F642028787878787820696E0B
:100BD00020757329004350504D2E4348414E4E45D9
:100BE0004C2E4E423D7878202020202020202020AE
:100BF00020202020202020202020202020202020F5
:100C000020202020202020202020202020202020E4
:100C1000202053657420746865204350504D206334
:100C200068616E6E656C206E756D626572202878E5
:100C3000782066726F6D203120746F203829004350
:100C400050504D2E4845414445523D7878782020FB
:100C50002020202020202020202020202020202094
:100C60002020202020202020202020202020202084
:100C700020202020202020202020202053657420A8
:100C8000746865204350504D20686561646572202A
:100C90002878787820696E20757329004350504D6C
:100CA0002E4D4F44553D4E45472F504F5320202049
:100CB0002020202020202020202020202020202034
:100CC0002020202020202020202020202020202024
:100CD0002020202020202020205365742074686567
:100CE000204350504D206D6F64756C6174696F6E58
:100CF00000545241494E45522E4D4F44453D4350BC
:100D0000504D5F4F55542B4350504D5F494E2F432C
:100D100050504D5F4F55542F534255535F4F5554CC
:100D20003B4655544142415B5F494E565D205365F9
:100D3000742074686520547261696E6572206D6FED
:100D40006465206F6620746865207472616E736DCF
:100D50006974746572004C494E452E5445524D3DA0
:100D600043524C462F435220202020202020202078
:100D70002020202020202020202020202020202073
:100D80002020202020202020202020202020202063
:100D900020202053657420746865206C696E65207E
:100DA0007465726D696E61746F7220285465726D1E
:100DB000696E616C20646570656E64656E7429008F
:100DC0004C414E473D554B2F46522020202020209D
:100DD0002020202020202020202020202020202013
:100DE0002020202020202020202020202020202003
:100DF0002020202020202020202020202053657427
:100E0000207468652063757272656E74206C616E03
:100E10006775616765206F66207468652048756D29
:100E2000616E20436F6D707574657220496E7465D4
:100E30007266616365002575003A20506F737369AF
:100E4000626C65207365756C656D656E7420617686
:100E500065632045434F4C4147452E4D4F44453D2A
:100E60004350504D5F4F5554003A204F6E6C7920DF
:100E7000706F737369626C6520776974682054526F
:100E800041494E45522E4D4F44453D4350504D5FD4
:100E90004F5554002575005243554C257540004F61
:100EA0004646005001260121015243554C004F4651
:100EB000460031012A013E013901257500257500E2
:100EC000257500490145014350504D2E504552496A
:100ED0004F44453F004350504D2E504552494F44DA
:100EE0003F004350504D2E564F49452E4E423F0035
:100EF0004350504D2E4348414E4E454C2E4E423F9E
:100F0000004350504D2E454E544554453F004350EC
:100F1000504D2E4845414445523F004350504D2EC0
:100F20004D4F44553F0050014D014030782530323F
:100F300058003A20436F6E74656E75206465206DAD
:100F40006573736167652070617320706F73736977
:100F5000626C6520617665632063657474652061E9
:100F60006472657373652049324321003A204D65F0
:100F7000737361676520636F6E74656E74206E6F46
:100F80007420706F737369626C6520776974682070
:100F900074686973204932432061646472657373B5
:100FA000210080017901720164015A015401257503
:100FB000002575004F4646004F4646005243554CAB
:100FC0005F2E564F4945005243554C5F2E434841D2
:100FD0004E4E454C005243554C5F2E5445535400E1
:100FE0005243554C5F2E4D455353414745005243A4
:100FF000554C2E52455045543F005243554C2E52AD
:1010000045504541543F003B008D018601AA01A196
:10101000019801BE01BB01C601C30152582E4442D2
:10102000473F0052582E4D4F44453F005243554CC8
:101030005F2E564F49453F005243554C5F2E434863
:10104000414E4E454C3F005243554C5F2E54455344
:10105000543F005243554C5F2E4D45535341474535
:101060003F005243554C2E52455045543F00524389
:10107000554C2E5245504541543F00534255532E36
:10108000564954455353453F00534255532E5350F0
:101090004545443F004350504D3F0045434F4C4170
:1010A00047452E4D4F444500545241494E45522E1E
:1010B0004D4F4445004C49474E452E5445524D3FF7
:1010C000004C494E452E5445524D3F004C414E4731
:1010D000000000FFFF0101FFFF0202FFFF0303FF0B
:1010E000FF0404FFFF050500FF060600FF070701D8
:1010F000FF080801FF0909FFFF0A0906FF0B09079E
:10110000FF0C0902FF0D0903FF0E0904FF0F09057B
:10111000FF100AFFFF110A08FF120A09FF130A0A4B
:10112000FF140A0600150A0700160A0BFF170A0C1F
:10113000FF180A0DFF190A0EFF1A0B0FFF1B0B10E9
:10114000FF1C0C01FF1D0C11FFEF010DCB0112C99B
:1011500001010D0043747800417267004964004347
:101160006D64005E2D2D457272200020000000008D
:1011700000230026002900040404040404040402DB
:101180000202020202030303030303010204081024
:1011900020408001020408102001020408102000F1
:1011A000782711241FBECFEFD8E0DEBFCDBF11E0FE
:1011B000A0E0B1E0E2EFF3E702C005900D92A03CA1
:1011C000B107D9F725E0A0ECB1E001C01D92AF3A1C
:1011D000B207E1F718E0C1EDD8E004C02197FE01A5
:1011E0000E94C737C03DD107C9F70E9420280C9440
:1011F000F7390C940000282F30E048E090E0582F99
:101200005170952786954150D1F7A901592BCA01F4
:1012100020918E04222311F080959095EFB7F894D9
:1012200060918E04662321F1299A20E32A95F1F733
:1012300029E030E041E050E0F0E3DC01A423B523F5
:10124000AB2BC1F0299A7F2F7A95F1F7440F551FE8
:101250002150310991F7662379F02998EFBF80E397
:10126000982F9A95F1F78A95F1F781E090E008952B
:101270002998DBCF2998E7CF299AF0CFCF92DF9238
:10128000EF92FF920F931F93CF93DF938FE00E9413
:10129000FB08C0E9D4E080E090E0DC0110E008EF5A
:1012A000C990D990F12CE12C012E04C0CC0CDD1C8E
:1012B000EE1CFF1C0A94D2F7C82AD92AEA2AFB2A74
:1012C0008C2D0E94FB08BB27AF2D9E2D8D2D1D5F01
:1012D000183028F00E94FB08C701AA27BB27212F3E
:1012E000269526952695209F100D112424E0C03BBD
:1012F000D207B1F680E00E94FB0880E00E94FB0864
:101300008FEF80938F04DF91CF911F910F91FF900A
:10131000EF90DF90CF9008952091C4033091C503E2
:101320008217930701F12091C6033091C7038217FA
:101330009307C9F02091C8033091C903821793071E
:1013400091F02091CA03233080F4E091CA03F0E0C9
:10135000EE0FFF1FEC53FC4F918380838091CA03F3
:101360008F5F8093CA0380E008958FEF0895909176
:101370008703809186032FEF3FEF981748F4E92FFA
:10138000F0E0EA59FC4F208130E09F5F90938703A3
:10139000C901089590918703809186032FEF3FEF55
:1013A000981748F4E92FF0E0EA59FC4F208130E02B
:1013B0009F5F90938703C901089591E0909365031F
:1013C00080936403109263031092620308958091E6
:1013D0008C0590918D05009711F480E0089560913F
:1013E0008B05629566956770DC01ED91FC9101902B
:1013F000F081E02D0995882381F380918C059091EF
:101400008D0560918B056F71DC01ED91FC9102807F
:10141000F381E02D0995AC0190939205809391059D
:101420008091940580618093940522EE36E090E0EF
:10143000F901659174914617570708F461C0F901E5
:101440003296659174916417750708F459C030910C
:101450009505432F441F4427441F80919605282F4C
:101460002F70220F242B291352C080919605282F0C
:1014700022952F702F5F2770322F3295307F8F7813
:10148000832B8093960530919405432F437050E051
:101490004F5F5F4F2417150609F09FCF8091950588
:1014A000903109F040C0329536953770982F93707F
:1014B000990F990F990F932B990F990F8378892B77
:1014C0008093950590919505292F269526952F7146
:1014D000322F3295330F307E809194058F71832B9C
:1014E000322F3695369536959C7F932B90939505A4
:1014F0009C77943401F5877F8093940581E008956B
:101500009F5F2C5F3F4F923109F092CF66CF90FBE7
:1015100037F930939505292F26952F708078822BE7
:1015200080939605A2CF9F71990F990F8378982B7E
:1015300090939505C7CF83FD13C0B0E12B9F900119
:10154000112420938F0584608093940580E020917E
:101550009405922F977F23FF9860909394050895A8
:1015600090918F05292B20938F058B7F8093940575
:1015700081E08093930582E0EACF08950895AF92C9
:10158000BF92CF92DF92EF92FF920F931F93CF9370
:10159000DF936C017B018B01040F151FEB015E01D2
:1015A000AE18BF08C017D10759F06991D601ED9167
:1015B000FC910190F081E02DC6010995892B79F706
:1015C000C501DF91CF911F910F91FF90EF90DF90B8
:1015D000CF90BF90AF900895FC01538D448D252F7F
:1015E00030E0842F90E0821B930B541710F0CF96BD
:1015F000089501970895FC01918D828D981761F0EF
:10160000A28DAE0FBF2FB11D5D968C91928D9F5F05
:101610009F73928F90E008958FEF9FEF0895FC01E4
:10162000918D828D981731F0828DE80FF11D858D97
:1016300090E008958FEF9FEF0895FC01918D228D2A
:10164000892F90E0805C9F4F821B91098F739927AF
:10165000089583EE93E00E941D0B21E0892B09F48D
:1016600020E0822F089580E090E0892B29F00E94ED
:10167000290B81110C9400000895FC01A48DA80F82
:10168000B92FB11DA35ABF4F2C91848D90E00196C4
:101690008F739927848FA689B7892C93A089B189E4
:1016A0008C91837080648C93938D848D981306C085
:1016B0000288F389E02D80818F7D80830895EF92E9
:1016C000FF920F931F93CF93DF93EC0181E0888FFC
:1016D0009B8D8C8D98131AC0E889F989808185FFCC
:1016E00015C09FB7F894EE89FF896083E889F9896E
:1016F00080818370806480839FBF81E090E0DF9170
:10170000CF911F910F91FF90EF900895F62E0B8DC2
:1017100010E00F5F1F4F0F731127E02E8C8D8E117D
:101720000CC00FB607FCFACFE889F989808185FFE4
:10173000F5CFCE010E943D0BF1CFEB8DEC0FFD2FCD
:10174000F11DE35AFF4FF0829FB7F8940B8FEA899F
:10175000FB8980818062CFCFEF92FF920F931F931E
:10176000CF93DF938C017B01D0E0C0E0F701EC0F59
:10177000FD1F6491662339F0C8010E945F0B892B1D
:1017800011F02196F3CFCE01DF91CF911F910F91F0
:10179000FF90EF900895CF93DF93EC01888D88231D
:1017A000B9F0AA89BB89E889F9898C9185FD03C0C4
:1017B000808186FD0DC00FB607FCF7CF8C9185FFA9
:1017C000F2CF808185FFEDCFCE010E943D0BE9CFA6
:1017D000DF91CF910895833081F028F4813099F022
:1017E0008230A9F008958730A9F08830C9F084309C
:1017F000B1F4809180008F7D03C0809180008F774D
:1018000080938000089584B58F7784BD089584B552
:101810008F7DFBCF8091B0008F778093B0000895CB
:101820008091B0008F7DF9CFCF93DF93282F30E0E8
:10183000F901EA53FB4F8491F901E557FE4ED4912B
:10184000F901E958FE4EC491CC23A1F081110E9408
:10185000EB0BEC2FF0E0EE0FFF1FE359FE4EA591CE
:10186000B491EC91ED2381E090E009F480E0DF9108
:10187000CF91089580E090E0FACF1F93CF93DF934C
:10188000282F30E0F901EA53FB4F8491F901E55725
:10189000FE4ED491F901E958FE4EC491CC23A9F033
:1018A000162F81110E94EB0BEC2FF0E0EE0FFF1FC3
:1018B000E454FB4FA591B4918FB7F894EC911111BA
:1018C00008C0D095DE23DC938FBFDF91CF911F91AD
:1018D0000895DE2BF8CFCF93DF9390E0FC01E5571E
:1018E000FE4E249189589E4EFC0184918823C9F0B4
:1018F00090E0880F991FFC01EE54FB4FA591B49125
:10190000FC01E454FB4FC591D49161110DC09FB708
:10191000F8948C91209582238C93888128232883A6
:101920009FBFDF91CF910895623051F49FB7F89433
:101930003C91822F809583238C93E8812E2BEFCFCF
:101940008FB7F894EC912E2B2C938FBFEACF3FB733
:10195000F8948091120290911302A0911402B09118
:10196000150226B5A89B05C02F3F19F00196A11DB1
:10197000B11D3FBFBA2FA92F982F8827BC01CD01D9
:10198000620F711D811D911D42E0660F771F881F38
:10199000991F4A95D1F708952FB7F89460910E02D8
:1019A00070910F0280911002909111022FBF089543
:1019B0002091EA01260F3327331F21323105ECF441
:1019C00020915C03FC0190E080E0243069F082E02B
:1019D0000895A091EA012191AC0146535E4FA40FF6
:1019E000B52FB11D2C930196861798F38091EA01CB
:1019F000680F6093EA0180E0089581E008951092F5
:101A00005C0381E080935B031092560361E082E106
:101A10000E943D0C61E083E10E943D0CE9EBF0E0A7
:101A200080818E7F808380818D7F808388E4809316
:101A3000B80085E48093BC000895CF93DF9391E0D4
:101A40009093C9018823B9F0C091B800D091BA0031
:101A50008091BC008A7B8093BC0060E082E10E94A0
:101A60003D0C60E083E10E943D0C0E94FF0CD0938E
:101A7000BA00C093B800DF91CF910895CF92DF9262
:101A8000EF92FF920F931F93CF93DF93D091620356
:101A900081E0D13208F09CC0C09164030E94A70C81
:101AA0006B017C0180915C0381116CC082E08093AA
:101AB0005C0381E080935B038FEF80935A03109265
:101AC0005903D0935803A6E1B3E0E6E3F3E080E0E6
:101AD000D8138DC01092570380915703CC0FC82B99
:101AE000C093570380915603813009F084C010924F
:101AF00056030E94A70C6B017C01809157038093D1
:101B0000BB0080915E0390915F03A0916003B09150
:101B10006103892B8A2B8B2BA1F00E94A70C0091CB
:101B20005E0310915F0320916003309161036C1993
:101B30007D098E099F09061717072807390708F43A
:101B400042C08091BC0083FDD8CF85EC8093BC005F
:101B50000E94A70C6B017C0180915C03823009F428
:101B60004CC080915A038F3F09F469C080915A0399
:101B7000803209F466C080915A03803309F463C04F
:101B800084E026C080915E0390915F03A091600382
:101B9000B0916103892B8A2B8B2B09F483CF0E9490
:101BA000A70C00915E0310915F03209160033091B8
:101BB00061036C197D098E099F090617170728070D
:101BC000390708F06FCF80915D030E941D0D85E0FD
:101BD000109263031092620310926503DF91CF911C
:101BE0001F910F91FF90EF90DF90CF9008959D91FE
:101BF00091938F5F6DCF85EEA9CF80915E03909119
:101C00005F03A0916003B0916103892B8A2B8B2B1A
:101C100009F4A2CF0E94A70C00915E0310915F030C
:101C200020916003309161036C197D098E099F0931
:101C3000061717072807390708F08ECFC4CF80E0B2
:101C4000C7CF82E0C5CF83E0C3CF0895E09187037B
:101C500080918603E81730F4F0E0EA59FC4F808168
:101C600090E008958FEF9FEF089580918603909103
:101C70008703891B990B0895CF92DF92EF92FF9211
:101C80000F931F93CF93DF937C01CB018A012091A7
:101C90006503222389F0EB016B01C40ED51ECC1520
:101CA000DD0569F06991D701ED91FC910190F0811A
:101CB000E02DC7010995F3CF642F0E94D80CC8010D
:101CC000DF91CF911F910F91FF90EF90DF90CF9018
:101CD0000895CF93DF931F92CDB7DEB7698320912C
:101CE00065032223F9F020916203203258F021E0AD
:101CF00030E0FC013383228390E080E00F90DF919D
:101D0000CF91089580916303E82FF0E0EA5EFC4FE5
:101D1000998190838F5F809363038093620381E056
:101D200090E0ECCF61E0CE0101960E94D80CF7CF95
:101D3000682F80E894E00C94690EE091C1033AE0CA
:101D4000E39FF0011124EC53FC4F27818091AB03FA
:101D5000883008F046C03091AB0381E090E002C0CB
:101D6000880F991F3A95E2F7E091C1034AE0E49F9A
:101D7000F0011124EC53FC4F3185232330E0822302
:101D80009323892B09F45DC00E94A70C2091C70101
:101D90003091C801AB01421B530B9A017093C801EB
:101DA0006093C701283B5BE03507C8F12091AE0383
:101DB0002093AD031092AE032FEF2093AC0330912C
:101DC000C6012091C6012E7F30FF21602093C601FD
:101DD0002091C60120FF18C07093C5016093C40113
:101DE00008958091AB034091AB038E3050F448507E
:101DF000550B81E090E002C0880F991F4A95E2F7E9
:101E0000B3CF4E50550BF5CF2091C4013091C50191
:101E1000621B730B7093C3016093C201089580919C
:101E2000AE03893070F4E091AE03F0E0EE0FFF1FD7
:101E3000E155FC4F318320838091AE038F5F809307
:101E4000AE0308950895662399F08091AD03861737
:101E500078F06150E62FF0E0EE0FFF1FE155FC4FE8
:101E6000808191812081318182179307C9F708957C
:101E70008CED95E008952091AC0330E0062E02C071
:101E8000359527950A94E2F7C9018170992720FFBB
:101E90000CC04091AC0321E030E001C0220F6A95F4
:101EA000EAF7209524232093AC030895EDE6F0E0B3
:101EB000883030F0EBE6F0E08E3010F0ECE6F0E049
:101EC0004081282F30E0883068F421E030E0B9010B
:101ED00002C0660F771F8A95E2F7CB0180958423B5
:101EE000808308958E3048F42850310981E090E0D5
:101EF00001C0880F2A95EAF7F1CF2E503109F6CFAD
:101F0000CF93CFB780919D05863110F40E94560F74
:101F1000F894E091C203F091C30325E0E939F20798
:101F200061F480919B0590919C059093C3038093ED
:101F3000C203CFBFCF910895FC013097D1F38281C6
:101F4000938125E089399207B9F780919B0590919B
:101F50009C0593838283EDCF2091680094E08830C4
:101F600048F031E08E3008F430E091E001C0990F84
:101F70003A95EAF7922B90936800EDE6F0E088300E
:101F800030F0EBE6F0E08E3010F0ECE6F0E040816F
:101F9000282F30E0883048F491E001C0990F8A95ED
:101FA000EAF7892F842B808308958E3040F42850DF
:101FB000310981E001C0880F2A95EAF7F3CF2E504E
:101FC0003109F7CF80919E058C7F80939E0585EC2B
:101FD00091E10E948C09982F937080919E058C7FCF
:101FE000892B80939E0588E080939D0588E592E08B
:101FF0009093A00580939F0580E699E09093A205B9
:102000008093A1058091C2039091C30390939C0596
:1020100080939B0589E995E09093C3038093C20365
:1020200060E088E00E946B0C61E080919D050E9459
:102030003D0C80919D05863110F40E94AC0F80917B
:102040009E058370089583B190916B0089238093DE
:10205000CD038091CD038093CC0386B190916C0029
:1020600089238093D7038091D7038093D60389B1C6
:1020700090916D0089238093E1038091E103809327
:10208000E0038DE99EE00E948C098093C10380915A
:10209000C10387FD21C090E080E02CED35E0FC011C
:1020A000EE0FFF1FE155FC4F3183208301968930ED
:1020B0009105A9F78AE08093AE031092AD031092C8
:1020C000AC0388E08093AB038091AB03863110F4BE
:1020D0000E94AC0F81E0089580E008950F931F9354
:1020E000CF93DF9392E0883028F08E5091E08830D3
:1020F00008F090E040E05AE0959FD0011124A653EB
:10210000BC4F292F092E000C330B55E0959FC001C1
:102110001124C42F042E000CDD0B5C915C171D06EE
:1021200009F00CF453C0FC01EC0FFD1FEE0FFF1F74
:10213000EC53FC4F008111810617170711F04F5F18
:10214000E8CF47FD43C0118210828C918150990BDA
:10215000C817D90751F18AE0829FE001839FD00D13
:102160001124C653DC4F55E0529FC001539F900D80
:102170001124E42FF0E068816150770BE617F70730
:10218000A4F4DF011196A80FB91FAA0FBB1FAC530F
:10219000BC4F6D917C91E80FF91FEE0FFF1FEC53C0
:1021A000FC4F718360834F5FE4CF8AE0829FF00130
:1021B000839FF00D1124EC53FC4F86818150868360
:1021C00081E0DF91CF911F910F91089580E0F9CFC9
:1021D0008091AB03863110F40E94560F8AE0809301
:1021E000AE038091AB036DE97EE00C946E10BF925C
:1021F000CF92DF92EF92FF920F931F93CF93DF93D3
:102200000E94A70C6B017C01C091C203D091C30353
:10221000BB24BA9401E010E0209709F445C08D81F9
:102220008370823001F52091DF03422F50E08C81D2
:10223000282F30E08830D8F49801082E02C0220FF1
:10224000331F0A94E2F724233523232B61F00E94E5
:10225000140C9D8192FB992790F99817B9F0CA86C2
:10226000DB86EC86FD860A80DB81C02DD5CF8E30E3
:1022700050F428503109B80102C0660F771F2A9523
:10228000E2F79B01E0CF2E503109F5CF8A859B857F
:10229000AC85BD859601281B390B3F872E87B88AF0
:1022A0000E94CC0C698BDFCFDF91CF911F910F91F2
:1022B000FF90EF90DF90CF90BF900895BF92CF92A4
:1022C000DF92EF92FF920F931F93CF93DF930E94C1
:1022D000A70C6B017C01C091C203D091C30301E044
:1022E00010E0BB24BA94209709F445C08D81837017
:1022F000813001F52091D503422F50E08C81282FA9
:1023000030E08830D8F49801082E02C0220F331F25
:102310000A94E2F724233523232B61F00E94140C46
:102320009D8192FB992790F99817B9F0CA86DB86B0
:10233000EC86FD860A80DB81C02DD5CF8E3050F42F
:1023400028503109B80102C0660F771F2A95E2F7BD
:102350009B01E0CF2E503109F5CF8A859B85AC8556
:10236000BD859601281B390B3F872E87B88A0E94AE
:10237000CC0C698BDFCFDF91CF911F910F91FF9034
:10238000EF90DF90CF90BF900895BF92CF92DF92F1
:10239000EF92FF920F931F93CF93DF930E94A70CAE
:1023A0006B017C01C091C203D091C303BB24BA94DA
:1023B00001E010E0209709F444C08D81837001F59D
:1023C0002091CB03422F50E08C81282F30E08830C1
:1023D000D8F49801082E02C0220F331F0A94E2F7A6
:1023E00024233523232B61F00E94140C9D8192FB42
:1023F000992790F99817B9F0CA86DB86EC86FD8696
:102400000A80DB81C02DD6CF8E3050F428503109A0
:10241000B80102C0660F771F2A95E2F79B01E0CF53
:102420002E503109F5CF8A859B85AC85BD859601F7
:10243000281B390B3F872E87B88A0E94CC0C698BEA
:10244000DFCFDF91CF911F910F91FF90EF90DF9041
:10245000CF90BF900895FC018685978526853785A6
:1024600082179307C9F70895FC01808990E0062E32
:1024700002C0959587950A94E2F780FF1CC02089D9
:1024800081E090E001C0880F6A95EAF78095822389
:10249000808B268537858685978528173907C9F764
:1024A000868197812817390730F081E04085518572
:1024B0004217530708F480E00895DC015496EC912C
:1024C000549753968C915397E81759F050968D91E5
:1024D0009C91E80FF92FF11D8081082E000C990BBB
:1024E00008958FEF9FEF0895FC01138A148A0895D1
:1024F00090E080E008958FEF9FEF0895FC01462F54
:10250000238930E0C9010196678570E00E94B337E6
:10251000548958171906B9F080899189280F391FF5
:10252000D9014C93838990E00196678570E00E9401
:10253000B337838B618D6427618F8589877F858B16
:1025400081E090E0089590E080E0089590E080E0E0
:10255000089590E080E00895CF93DF932FEF240F4C
:10256000203128F5C42FD0E02196CC0FDD1FC80FF5
:10257000D91F9B016137784010F020E738E0203701
:1025800083E0380710F420E733E050E040E02057C4
:10259000334041095109AFEFB7E00E942C3720E0EA
:1025A00035E040E050E00E940D3739832883DF9109
:1025B000CF910895FC019381492F50E0062E02C06F
:1025C000559547950A94E2F7DA01A170BB2740FFC1
:1025D00009C021E030E001C0220F6A95EAF720959A
:1025E000292323838A2F089580E48093800082E842
:1025F0008093810010928200E8E8F0E08081918170
:10260000885A9D4F91838083B09A81E08093E20342
:10261000089562E088E00E946B0C90E080E02EEE6E
:1026200032E0FC01EE0FFF1FEC54FB4F318320839F
:1026300001968C309105A9F78DE08093CC0410921F
:10264000CD041092B2048091E203811102C00E9475
:10265000F41282E4809381008091810080688093ED
:102660008100B59A80916F00806280936F00089519
:102670006623A1F0FC01258D261780F0615070E0E3
:10268000660F771FE60FF71F8481958124813581BE
:1026900082179307C9F79695879508958EEE92E075
:1026A000FACFFC01228130E0062E02C03595279535
:1026B0000A94E2F7C9018170992720FF0AC042817C
:1026C00021E030E001C0220F6A95EAF7209524232B
:1026D00022830895FC01208530E0062E02C0359546
:1026E00027950A94E2F7C9018170992720FF0AC053
:1026F000408521E030E001C0220F6A95EAF720957D
:102700002423208708950F931F93CF93DF93DC0139
:10271000662309F448C01B968C911B97861708F412
:1027200042C014968D919C911597481B590B440FEC
:10273000551F880F991F21E0F0E0E0E01B963C91C7
:102740001B973217C0F0E80FF91F621789F0022FAC
:1027500010E0000F111F1696CD91DC911797C00F56
:10276000D11F0990D881C02DEC0FFD1F2F5FE6CF40
:10277000E40FF51FFBCF12962D913C911397220F7A
:10278000331F2E1B3F0B281B390BF8941696ED9127
:10279000FC913183208370E0660F771FE60FF71FEF
:1027A000518340837894DF91CF911F910F910895C9
:1027B000242FAB01622F0C948313909188039670A1
:1027C00081E009F480E00895813049F018F082300A
:1027D00031F10895613069F16230A1F00895662306
:1027E00019F0623041F008950E94800F6EE571E1AA
:1027F00088E00C946E100E94800F6EE571E188E015
:102800000E946E100E9423108091A80327E935E0F2
:1028100030938D0520938C058F71806C13C06130CF
:1028200031F018F0623081F308950C94E8100E94A2
:10283000E8100E94E20F89E995E090938D0580935E
:102840008C058FED80938B051092930580919405F4
:102850009091950520919605207F296020939605FB
:1028600083719C7792609093950580628F7E8093B0
:10287000940510928F051092900508958091880319
:102880008670E1E0F0E011F4F0E0E0E0EE0FFF1F11
:10289000E75FFD4F6591749183EE93E00C94AC0B70
:1028A000882319F190EE980F943008F19CED980F61
:1028B000943070F42091C00130E08452990B02C032
:1028C000359527958A95E2F720FF13C083E0089598
:1028D00098EC980F943078F094EC980F943068F05E
:1028E0008C50843060F08FEF089580E0089581E08F
:1028F000089582E0089584E0089585E0089586E0D3
:1029000008950F931F93CF93DF93EC018B011B82EC
:102910001A8288EE93E0A0E0B0E08C839D83AE83C2
:10292000BF8381E291E0998388831D861C8688E0BD
:102930008F8788E090E00E94D437998B888B892B11
:10294000D9F01D870C878D891E8A9F89907C9160A4
:102950009F8B807E88608F7D8D8B8FE18E871B8A19
:102960001C8A198E8091A9039091AA039B8F8A8F4C
:10297000D093AA03C093A903DF91CF911F910F9128
:1029800008950F931F93CF93DF93EA0189018093FA
:10299000DD041092D7041092D6046D3008F06CE07C
:1029A0006093DF048091DA049091DB04009709F0D2
:1029B00062C08091DF0490E00196880F991F0E9409
:1029C000D4379093DB048093DA048091DA049091F9
:1029D000DB04892B09F471C08091DF048093DE044D
:1029E000D093D704C093D6041093D9040093D8048D
:1029F000C031D74230F480E197E29093D7048093BE
:102A0000D6044091DF0420ED37E0429FC001439F90
:102A1000900D11248455924F4091D6045091D704C3
:102A20004817590768F44091DF04429FC001439F53
:102A3000900D11248455924F9093D7048093D6041F
:102A40008091D6049091D70481349C4930F080E481
:102A50009CE99093D7048093D604C1E08091DF0471
:102A60008C1798F04CED55E06C2F84ED94E00E94AB
:102A70008313CF5FF3CF6091DF0470E06F5F7F4F10
:102A8000660F771F0E94F9389CCF8091DD0461E0CA
:102A9000811160E089E00E943D0C61E089E00E94C4
:102AA0006B0C8091E203811102C00E94F412B19A72
:102AB00080916F00826080936F008091D604909126
:102AC000D704DF91CF911F910F910895CF93DF939A
:102AD00080918903813089F170F1823009F45AC004
:102AE0004091890550918A05909193039F5FE1EE93
:102AF000F4E0C8E8D3E030E020E06CE1977055875F
:102B000044878C85811101C08FE18687629FD00147
:102B1000639FB00D1124A850BB4F8C91887F892BE7
:102B20008C932F5F3F4F7C9623962630310539F7E3
:102B3000DF91CF9108950E940913C1E04CED55E05B
:102B40006C2F84ED94E00E948313CF5FCD30B1F7FA
:102B500084ED94E090938A058093890520918C03FD
:102B600030918D0340918E0350918F038091CD045D
:102B700060918B03681710F46091CD0480918A03F3
:102B80000E94C114909391038093900380E48093FA
:102B90008000A6CFE0E9F4E080EB94E02FED33E095
:102BA000219331938E179F07D9F7109280008CE8FC
:102BB00094E090938A05809389058091920387FB26
:102BC000882780F980938E04219A882321F0299800
:102BD0000E943E0985CF299AFBCF0F931F93CF9375
:102BE000DF9308E813E0D0E0C0E0CE010E94F736A2
:102BF000F80181938F012196C132D105B1F788E8A0
:102C000093E0DF91CF911F910F910895FF920F9361
:102C10001F93CF93DF9308E813E0D0E0C0E0F80102
:102C2000F1908F01CE010E94F736F81621F06F2D3A
:102C3000CE010E94FF362196C132D10581F788E886
:102C400093E0DF91CF911F910F91FF900895FB01C9
:102C500001900020E9F73197AF01461B570B0C9408
:102C6000BF0A8F929F92AF92BF920F931F93CF9301
:102C7000DF93CDB7DEB7A1970FB6F894DEBF0FBED6
:102C8000CDBF19A2423008F44AE08E010F5D1F4FFC
:102C9000842E912CB12CA12CA50194010E946E3799
:102CA000E62FB901CA01EA3004F5E05DD801EE93E0
:102CB0008D01232B242B252B79F790E080E01097B2
:102CC00029F0BD0183EE93E00E942716A1960FB66E
:102CD000F894DEBF0FBECDBFDF91CF911F910F9152
:102CE000BF90AF909F908F900895E95CDFCFCF9217
:102CF000DF92EF92FF92CF93DF936B017C016DE245
:102D000083EE93E00E945F0BEC0166277727CB01EF
:102D10006C197D098E099F094AE00E9431168C0FBB
:102D20009D1FDF91CF91FF90EF90DF90CF9008959E
:102D30006115710511F00C94271690E080E008955C
:102D4000CF92DF92EF920F931F93CF93C42F69011D
:102D5000413009F448C090F0423009F455C0433086
:102D600021F14A3010F1DC011E968D919C91825E1A
:102D70009240CA501C2F180FC2E00BC0E62FF0E0A3
:102D8000EE0FFF1FE80FF91F40815181435E524053
:102D9000142F112351F0E12C6BE671E183EE93E0E7
:102DA0000E94AC0BE3941E11F7CF63E671E183EE52
:102DB00093E00E94AC0BC114D104E1F5C13089F15C
:102DC00048F1C23089F1C33091F10023C9F162E5C5
:102DD00071E183EE93E0CF911F910F91EF90DF901F
:102DE000CF900C94AC0B70E0FB01EE0FFF1FE80FCF
:102DF000F91F680F791FDB011B964C91808191812F
:102E0000480F592F511DC2CFFC0146855785425EA0
:102E10005240BECF6FE571E183EE93E00E94AC0BB0
:102E2000D4CF6CE571E1F8CF68E571E1F5CF64E5E9
:102E300071E1F2CFB60183EE93E00E949816C5CF00
:102E400065E871E083EE93E0CF911F910F91EF90D1
:102E5000DF90CF900C9427169C01BC01990F880B32
:102E6000990B37FD0C9477164AE00C943116CF92EB
:102E7000DF92EF92FF920F931F93CF93DF93D82FA0
:102E8000C62F0E94A70C6B017C0180915C0381110D
:102E900065C081E080935C0380935B039FEF909318
:102EA0005A03109259039C0F909358038093570331
:102EB00080915703DD0FD82BD09357038091560391
:102EC000813009F07FC0109256030E94A70C6B015D
:102ED0007C01809157038093BB0080915E039091A9
:102EE0005F03A0916003B0916103892B8A2B8B2B28
:102EF000A1F00E94A70C00915E0310915F03209146
:102F00006003309161036C197D098E099F090617D2
:102F100017072807390708F442C08091BC0083FDD9
:102F2000D8CF85EC8093BC000E94A70C6B017C017C
:102F300080915C03813009F447C0809159038C175C
:102F400010F4C0915903A6E3B3E0E6E6F3E080E0B5
:102F50008C1751F19D9191938F5FFACF80915E0311
:102F600090915F03A0916003B0916103892B8A2B3C
:102F70008B2B09F48ACF0E94A70C00915E0310915D
:102F80005F0320916003309161036C197D098E0904
:102F90009F09061717072807390708F076CF809191
:102FA0005D030E941D0DC0E010928703C09386034D
:102FB0008C2FDF91CF911F910F91FF90EF90DF90B9
:102FC000CF90089585EEAECF80915E0390915F0320
:102FD000A0916003B0916103892B8A2B8B2B09F49C
:102FE000A7CF0E94A70C00915E0310915F03209170
:102FF0006003309161036C197D098E099F090617E2
:1030000017072807390708F093CFC9CFDF92EF924F
:10301000FF920F931F93CF93DF93D62ED0E0C0E0A3
:10302000082F10E087E0E82EF12CC7018C1B9D0BC8
:10303000B80102C0759567958A95E2F761707727A8
:10304000072E000C880B990B4AE00E943116C33002
:1030500041F4D1100AC060EB74E083EE93E00E946B
:10306000AC0B2196C830D10501F7DF91CF911F91AC
:103070000F91FF90EF90DF900895DF92EF92FF9213
:103080000F931F93CF93DF938C01D62ED42F7C0107
:10309000C0E0CD1581F0CC2331F06EEA74E083EE10
:1030A00093E00E94AC0B60E0F70181917F010E94E8
:1030B0000618CF5FEECFDD23B1F0CC2331F06CEA00
:1030C00074E083EE93E00E94AC0BC00FD12FD11DB2
:1030D00061E08881DF91CF911F910F91FF90EF9078
:1030E000DF900C940618DF91CF911F910F91FF9004
:1030F000EF90DF9008950F931F93482FE3E9F1E1DC
:103100006491EFE7F1E1E4918111462FF0E0EE0FD9
:10311000FF1FE359FE4E8591949100E412E42FE0E5
:1031200030E00E941427611571058105910529F091
:103130006F5F7F4F8F4F9F4F9F701F910F9108952B
:10314000CF93DF934617A0F4E901FC01842F90E0B0
:10315000880F991FE80FF91F6591749143E150E0C2
:10316000CE010E94DA331B8A8FEFDF91CF91089551
:10317000F9011082F9CF2F923F924F925F927F9286
:103180008F929F92AF92BF92CF92DF92EF92FF9277
:103190000F931F93CF93DF9308E813E084E6882E04
:1031A000CCE4D2E0C12CD12C7601C394F8019684F2
:1031B000892D0E9450148250823008F019C1892D47
:1031C0000E94DD090E943E0D8111DFC0892D0E9401
:1031D000DD0990E080E00E94980E64E0892D0E9455
:1031E00037178430D1F70E94CA095C0199279F9351
:1031F0008F932BE834E03F932F931F928F92DF93AE
:10320000CF930E9416346CE472E083EE93E00E9448
:1032100098160E943E1477247394EDB7FEB7389643
:103220000FB6F894FEBF0FBEEDBFFFEFAF12712CCB
:103230000E94CA095C0199279F938F932DE734E080
:103240003F932F931F928F92DF93CF930E94163458
:103250006CE472E083EE93E00E9498160E943E14A4
:10326000EDB7FEB738960FB6F894FEBF0FBEEDBFB0
:10327000FFEFAF1201C073940E94CA095C01992745
:103280009F938F932FE634E03F932F931F928F925B
:10329000DF93CF930E9416346CE472E083EE93E0E8
:1032A0000E9498160E943E14EDB7FEB738960FB6EE
:1032B000F894FEBF0FBEEDBFA11001C073940E9431
:1032C000CA095C0199279F938F9321E634E03F93CD
:1032D0002F931F928F92DF93CF930E9416346CE44A
:1032E00072E083EE93E00E9498160E943E14EDB7C0
:1032F000FEB738960FB6F894FEBF0FBEEDBFA11013
:1033000001C073940E943E0DF4E088E891E07F16BE
:1033100011F081E991E09F938F9329E534E03F9389
:103320002F931F928F92DF93CF930E9416346CE4F9
:1033300072E083EE93E00E9498160E943E14E92DFD
:10334000E452FF0B1601270104C0220C331C441C5D
:10335000551CEA95D2F72DB73EB7285F3F4F0FB601
:10336000F8943EBF0FBE2DBF34E0892D731609F4CB
:1033700059C00E94DD098FEF90E00E94980E8FEFF8
:1033800090E00E94980E0E943E0D492D4452550B2C
:10339000CA01A701960104C0220F331F441F551F05
:1033A0008A95D2F7922F90958091C00189238093BE
:1033B000C0018091C0011F928F9349E954E05F934F
:1033C0004F931F928F92DF93CF930E9416346CE439
:1033D00072E083EE93E00E9498160E943E142DB78F
:1033E0003EB7285F3F4F0FB6F8943EBF0FBE2DBFCC
:1033F0000D5F1F4F4AE953E04017510709F0D6CE41
:10340000DF91CF911F910F91FF90EF90DF90CF90C0
:10341000BF90AF909F908F907F905F904F903F9024
:103420002F9008950E94DD098CE090E00E94980E94
:103430006FEF80E894E00E94690E6FEF80E894E0FF
:103440000E94690E0E943E0D8091C001282A2092A0
:10345000C001AFCF8091880380FD2AC029E931E007
:1034600087E891E01F924AE04F931F921F923F938B
:103470002F939F938F938DE092E09F938F931F9252
:1034800084E68F938CE492E09F938F930E9416348E
:103490006CE472E083EE93E00E9498168DB79EB7BD
:1034A0000E960FB6F8949EBF0FBE8DBF0C943E14BF
:1034B00027E831E082EA91E0D5CF85ED8093BC002A
:1034C00080915E0390915F03A0916003B0916103CE
:1034D0000796A11DB11D23E0B695A79597958795F1
:1034E0002A95D1F72091BC0024FD03C010925C0303
:1034F000089540915E0350915F0360916003709165
:103500006103452B462B472B69F30097A105B105B5
:1035100041F025E32A95F1F700000197A109B109CF
:10352000E1CF80915D030C941D0D8F929F92AF921D
:10353000BF92CF92DF92EF92FF920F931F93CF93A0
:10354000DF936C014B015A01D8011C92FA01C0E0D3
:10355000C21721F011921192CF5FFACFF60180814C
:10356000882309F443C0F40101900020E9F7319762
:103570007F01E818F908D0E0FF24CD1749F1B40124
:10358000C6010E94DD39009799F0DC011C92D80138
:10359000EC9121E02E0F2C93F0E0EE0FFF1FEA0DCF
:1035A000FB1DD182C0826C01CE0CDF1CDF5FE5CF3A
:1035B000F801C081D6018C91882351F08C2F90E0C6
:1035C000880F991FA80EB91EF501D182C082CF5F66
:1035D0008C2FDF91CF911F910F91FF90EF90DF9093
:1035E000CF90BF90AF909F908F90089580E0F1CFE3
:1035F000EF92FF920F931F93CF93DF937C01D42F11
:103600008B01C0E0F801859194910E94C333F801C9
:1036100065917491AC01C7010E94CC33892B41F4B0
:103620008C2FDF91CF911F910F91FF90EF90089514
:10363000CF5F0E5F1F4FDC13E5CF8FEFF2CF4F92BE
:103640005F926F927F928F929F92AF92BF92CF9232
:10365000DF92EF92FF920F931F93CF93DF9300D0EF
:103660001F92CDB7DEB7182F062F0E943E1461E5DA
:1036700074E0112311F06BE474E083EE93E00E9498
:10368000AC0B64E374E083EE93E00E94AC0B0E9409
:103690003E14111106C061E374E083EE93E00E94D2
:1036A000AC0B66E174E083EE93E00E94AC0B0E94E9
:1036B0003E1480918A03813009F44EC18EEA91E074
:1036C0009F938F9382E094E09F938F931F9254E691
:1036D000D52EDF926CE4E62E62E0F62EFF92EF929A
:1036E0000E941634B70183EE93E00E9498160E9460
:1036F0003E14A02EB12C1F920F938EEE93E09F9359
:103700008F931F92DF92FF92EF920E941634B701BF
:1037100083EE93E00E9498160E943E1480918D03E0
:103720008F9380918C038F938AED93E09F938F9377
:103730001F92DF92FF92EF920E941634B70183EE40
:1037400093E00E9498160E943E140FB6F894DEBFD4
:103750000FBECDBF80918E0390918F03112321F076
:1037600080919003909191039F938F9386EC93E0C7
:103770009F938F931F9284E68F938CE492E09F93A4
:103780008F930E9416346CE472E083EE93E00E9403
:1037900098160E943E140FB6F894DEBF0FBECDBF40
:1037A0001130E9F588E8682E83E0782EEE24E39462
:1037B000F12C512C2CEAC22E23E0D22E34E6432EDB
:1037C0004CE4842E42E0942EF30184858823D1F0CA
:1037D0008F31C1F01F928F93FF92EF92DF92CF92C1
:1037E0001F924F929F928F920E9416346CE472E067
:1037F00083EE93E00E94981653940FB6F894DEBFC0
:103800000FBECDBF9FEFE91AF90AE3E06E0E711CFF
:10381000F7E0EF16F104C1F651100E943E144AE0A1
:10382000CE0101967C01BC01C5010E94E9330A303A
:1038300018F480E28A831B820E943E1464EA73E0DB
:10384000112311F06EE973E083EE93E00E94AC0B5C
:1038500061E973E083EE93E00E94AC0B0E943E149A
:10386000111106C06EE873E083EE93E00E94AC0B8A
:103870006DE773E083EE93E00E94AC0B0E943E1470
:1038800080911A0265E672E0813011F06DE172E01C
:1038900083EE93E00E94AC0B0E943E14FF92EF92E5
:1038A00080E393E09F938F931F9284E68F938CE441
:1038B00092E09F938F930E9416346CE472E083EE43
:1038C00093E00E9498160E943E140FB6F894DEBF53
:1038D0000FBECDBF80911A026DE172E0813011F010
:1038E00065E672E083EE93E00E94AC0B0E943E140A
:1038F00068E273E083EE93E00E94AC0B0E943E14FA
:103900006FE173E083EE93E00E94AC0B0E943E14E3
:1039100068ED72E083EE93E00E94AC0B0E943E14CF
:1039200061EB72E083EE93E00E94AC0B0E943E14C8
:103930000F900F900F90DF91CF911F910F91FF90FB
:10394000EF90DF90CF90BF90AF909F908F907F903F
:103950006F905F904F9008958AEA91E0B1CE2F92D8
:103960003F924F925F926F927F928F929F92AF920F
:10397000BF92CF92DF92EF92FF920F931F93CF935C
:10398000DF93CDB7DEB7AB970FB6F894DEBF0FBEAF
:10399000CDBF8091E30281111BC00E942A1AAB9611
:1039A0000FB6F894DEBF0FBECDBFDF91CF911F9150
:1039B0000F91FF90EF90DF90CF90BF90AF909F90CE
:1039C0008F907F906F905F904F903F902F900895D1
:1039D0002DB73EB739A728A76DE370E083EE92E0DC
:1039E0000E94D2397C01009711F0DC011C928E01FB
:1039F000055E1F4F24E0FE0131963F01AF0162EBEF
:103A000071E083EE92E00E94951A482EE114F104D1
:103A100019F08DE3D7018C93B3E01CEFB41508F4D3
:103A200099C08FEF898B89871C868A8B8A871D8630
:103A30008B8B8B871E86188A1F868091E3028111EB
:103A400004C083EE92E09A838983FE017196FDA300
:103A5000ECA3F9E4AF2EF1E1BF2E7BA26AA26301D1
:103A6000512C242D2150330B3BA72AA7451409F4D0
:103A700085C0F50105911491F50132962490AAA113
:103A8000BBA18D909D90BBA3AAA3312C231409F454
:103A900042C0F801859194910E94C3339FA38EA3E5
:103AA000F80165917491AC015527C4010E949B33C4
:103AB0000E5F1F4F892B69F50EA1832DECA1FDA18F
:103AC0008193FDA3ECA387FD43C0D6011B960C9305
:103AD0001B97080D192D111DF8018081882391F184
:103AE000C8010E947D33D60118968C93C6018619B1
:103AF0009709EAA5FBA5E817F90731F56FE370E030
:103B0000C4010E94D2397C01892B41F0F88AEF86EA
:103B100011C03394BBCF00E08FEFD0CF6DE370E0E6
:103B2000C4010E94D2397C01892B81F7188B0F8741
:103B3000F12CE12C5394BFEFCB1ADB0AE3E0AE0E7D
:103B4000B11C94CF18961C92E114F10499F7EECFB2
:103B5000152D10959B8DDE01119680E0FA2EEB2E2F
:103B60002EE2981709F1ED91FD91309729F001901F
:103B70000020E9F7319720838F5FF3CFE2EDEE2E3F
:103B8000E0E1FE2E10E043E050E0B701CE014196A7
:103B90000E949B33892BF1F21F5FF4E0EF0EF11CC2
:103BA0001E3189F71FEFD6CF0FB6F894DEBF0FBED8
:103BB000CDBF17FF0DC00E94DD13612F6095082F48
:103BC00030E020E040E08F2D9E2D0E94A016E7CE31
:103BD0000E94ED15EFEFE10FED3108F024C00E2E3D
:103BE000000CFF0BEA50F24E0C94C737941E941E43
:103BF000CD1C151F451F451F6B1F6B1FE01F272086
:103C000027207A207A2099206321A021D721092218
:103C10000922292229224322432275227B227F2244
:103C20009822C3227A236CEC70E183EE92E00E942A
:103C3000BC330E94AF1C8091880361EC70E180FF6F
:103C400002C065EB70E183EE92E00E94BC330E94FB
:103C5000AF1C8091880368EA70E180FF02C06BE9C5
:103C600070E183EE92E00E94BC330E94AF1C809111
:103C7000890365E970E1823040F08091880369E84A
:103C800070E180FF02C06BE770E183EE92E00E947A
:103C9000BC330E94AF1C809188036EE670E180FF08
:103CA00002C062E670E183EE92E00E94BC330E94A3
:103CB000AF1C11E38091880368E370E180FF02C0CC
:103CC0006CE270E183EE92E00E94BC331093E70255
:103CD0000E94AF1C63E570E183EE92E00E94BC336A
:103CE0001093E7020E94AF1C67E470E183EE92E05C
:103CF0000E94BC331093E7020E94AF1C1F5F173372
:103D0000C9F663E270E183EE92E00E94BC330E9448
:103D1000AF1C6BE170E183EE92E00E94BC330E9425
:103D2000AF1C0E943E143BCE60EC7DE083EE93E03E
:103D30000E94AC0B0E943E1466E57DE083EE93E0AA
:103D40000E94AC0B0E943E1461EF7CE083EE93E096
:103D50000E94AC0B0E943E146CE97CE083EE93E081
:103D60000E94AC0B0E943E146FE37CE083EE93E074
:103D70000E94AC0B0E943E1465ED7BE083EE93E065
:103D80000E94AC0B0E943E1466E77BE083EE93E05A
:103D90000E94AC0B0E943E146EE07BE083EE93E049
:103DA0000E94AC0B0E943E1463EA7AE083EE93E03B
:103DB0000E94AC0B0E943E146BE17AE083EE93E02C
:103DC0000E94AC0B0E943E1466EA79E083EE93E019
:103DD0000E94AC0B0E943E1469E279E083EE93E00E
:103DE0000E94AC0B0E943E1462EA78E083EE93E0FE
:103DF0000E94AC0B0E943E146DE078E083EE93E0ED
:103E00000E94AC0B0E943E1462EB77E083EE93E0DD
:103E10000E94AC0B0E943E146AE277E083EE93E0CE
:103E20000E94AC0B0E943E147CCFEF85F889808104
:103E30008D33E1F442E067E170E1CF0101960E9429
:103E4000F81A823008F01EC19091880380FB90F927
:103E5000909388030E940616EF85F889108263EE1E
:103E600072E083EE93E00E9498165BCF8DE380832F
:103E70002F8538892F5F3F4F40918803417062E062
:103E800087E190E10E94A018EACFEF85F889808150
:103E90008D3399F442E063E170E1CF0101960E9415
:103EA000F81A823008F0EEC08370880F9091880372
:103EB000997F892B80938803CDCF8DE380832F85D5
:103EC00038892F5F3F4F409188034695437062E0E9
:103ED00083E190E1D7CFEF85F88980818D3309F0B8
:103EE0004AC08E010F5D1F4F25E0AE014F5E5F4F50
:103EF00064EB71E0CF0101960E94951A43E06DE0FA
:103F000070E189899A890E94F81A182F833008F085
:103F100058C3823079F442E069E070E18B899C8972
:103F20000E94F81A8230E0F49091920380FB97F996
:103F3000909392038091890381110BC0112349F062
:103F400080916F008F7D80936F00B59A8DE0809394
:103F5000CC04109389030E9406160E9466157CCF3C
:103F600012E10E94DD13111101C012E0082F30E0B0
:103F700020E0412F30C08DE380832F8538892F5F6B
:103F80003F4F4091890363E08DE090E10E94A018CB
:103F900080918903823009F062CF67E070E183EE9F
:103FA00092E00E94A8332F853889265F3F4F4091C9
:103FB000920347FB442740F962E089E090E162CF39
:103FC00019858FEF810F863040F00E94DD13082F96
:103FD00030E020E041E060E0F6CDEF85F8898081B7
:103FE0008F3309F03CCF809188036AEF7FE080FF38
:103FF00002C06EEE7FE083EE92E00E94BC330E942E
:10400000AF1C8091880367EC7FE080FF02C06CEBFF
:104010007FE083EE92E00E94BC33105D1093E702D4
:104020000E94AF1C60EE7FE083EE92E00E94BC3302
:104030001093E7020E94AF1C65ED7FE083EE92E0F3
:104040000E94BC331093E7020E94AF1CA8CC1985D4
:104050008FEF810F863008F0B8CFEF85F889808127
:104060008D3319F56F013FEFC31AD30A68EB7FE078
:10407000C6010E94B333892B59F0C6010E947D33DB
:10408000813138F00E94DD13082F30E020E0D5C0E8
:1040900080E0412F4150550BFA01EE0FFF1FE40F56
:1040A000F51FE857FC4F848756CF8DE38083A12FFF
:1040B000A150BB0BFD01EE0FFF1FEA0FFB1FE857DE
:1040C000FC4F24858F859889222311F02F3131F4FC
:1040D00064EB7FE001960E94BC33C1CE1F922F9308
:1040E00021EB3FE03F932F9301969F938F930E9484
:1040F0004634E2C08985811168CFEF85F8898081D7
:104100008D3351F4CF0101960E947D33873008F042
:10411000B9CF809393031FCF8DE380838091930366
:104120001F928F938EEA9FE09F938F938F8598893C
:10413000DBCFD9848FEF8D0D863008F046CFEF8529
:10414000F88980818D3309F089C08E010F5D1F4F82
:1041500025E0AE014F5E5F4F66EB71E0CF01019647
:104160000E94951AEB89FC89DF010D900020E9F788
:104170009D01235031092E173F0709F022C28230DA
:1041800009F01FC246E062EA7FE089899A890E94AD
:10419000F81A082F863008F014C2EB89FC89BE019A
:1041A000605E7F4F80810E94592718A11295107F71
:1041B000EB89FC89BE01605E7F4F81810E94592797
:1041C00088A1182B812F0E94501487FD3DC0873095
:1041D00018F5E82F880FFF0BE051FF4D0C94C737FF
:1041E000F7200A21F720F7200A21F7201F210330AA
:1041F00098F4ED2DE150FF0BCF01EE0FFF1FE80FFC
:10420000F91FE857FC4F058716870E9406160E9483
:10421000BB1822CE002369F3809188036CE67FE00F
:1042200080FF02C062E37FE087EF92E00E94BC3330
:104230000E94DD13082F27EF32E042E0CCCE8DEF55
:10424000800F8330B0F2E8CFA989BA89FD010190CF
:104250000020E9F7EA1B1CE01E0F83CE8DE380836C
:104260002D2D2150330BC9012F8538892F5F3F4FEA
:104270008C01000F111F080F191F08571C4FD80180
:104280001D964C9166E082EA9FE00E94A018F8011A
:1042900086851F928F938AE29FE09F938F938E0172
:1042A000055E1F4F1F930F930E9446348F85988998
:1042B000B80101960E94C7390F900F900F900F9090
:1042C0000F900F90CCCD19858FEF810F863008F0BD
:1042D0007CCEEF85F88980818D33D1F442E066E2AF
:1042E0007FE0CF0101960E94F81A823008F0CACE12
:1042F000412F4150550B9CE1949FF001959FF00D8B
:104300001124EA50FB4F908180FB94F99083A4CD57
:104310008DE380832F8538892F5F3F4FA12FA150D8
:10432000BB0B4CE14A9FF0014B9FF00D1124EA506A
:10433000FB4F40814295417062E086E29FE0A2CD52
:10434000EF85F88980818F3309F089CD6BE17FE0BB
:1043500083EE92E00E94BC330E94AF1C80918803E0
:104360006EE07FE080FF02C061E07FE083EE92E0DC
:104370000E94BC330E94AF1C8091880360EF7EE0F6
:1043800080FF02C062EE7EE083EE92E00E94BC33CA
:104390000E94AF1C8091880365ED7EE080FF02C023
:1043A00067EC7EE083EE92E00E94BC334DCEEF8559
:1043B000F88980818D3309F542E063EC7EE0CF011E
:1043C00001960E94F81A823008F05CCE80938A032E
:1043D0000E94061620918C0330918D0340918E032C
:1043E00050918F0360918B0380918A030E94C114C6
:1043F00090939103809390032FCD8DE380832F853D
:1044000038892F5F3F4F40918A0362E083EC9EE042
:1044100039CDEF85F88980818D3381F4CF01019604
:104420000E947D339C01245631092139314008F026
:1044300029CE90938D0380938C03CACF8DE3808324
:1044400080918D038F9380918C038F9380EC9EE0FD
:104450006BCEEF85F88980818D3361F4CF010196B1
:104460000E947D339FEF980F903108F00BCE809320
:104470008B03AECF8DE3808380918B031F928F934C
:104480008DEB9EE051CEEF85F88980818D3311F55B
:10449000CF0101960E947D33883FEAE29E0708F42F
:1044A000F1CD893BF8E89F0708F0ECCD90938F039E
:1044B00080938E0320918C0330918D03AC01609129
:1044C0008B0380918A030E94C1149093910380937F
:1044D0009003C0CC8DE38083809191038F93809172
:1044E00090038F938AEB9EE01FCE6091CD0480E015
:1044F0000E941F1B54CA60918B0381E0F9CFEF85A6
:10450000F889808142E066EB7EE08D33C9F08DE36F
:1045100080832F8538892F5F3F4F809192038F775B
:1045200041E0873009F040E062E086EB9EE0AACCF3
:10453000EF85F88980818D33A9F442E062EB7EE05B
:10454000CF0101960E94F81A823008F09BCD97E0C7
:10455000811101C09EE0809192038078892B809325
:104560009203F9CC8DE380832F8538892F5F3F4FED
:10457000809192038F7741E0873009F040E062E05C
:1045800082EB9EE07FCCEF85F88980818D3309F046
:1045900061C08E010F5D1F4F25E0AE014F5E5F4F82
:1045A0006AEB71E0CF0101960E94951A813059F4AF
:1045B0008F8598896EEA7EE001960E94B333892B3D
:1045C000E9F110E0CECC8230E1F709891A8944E0A4
:1045D00050E069EA7EE0C8010E949B33892B89F78D
:1045E000D8010D900020E9F7CD01069780179107BB
:1045F00041F7F801048180EDD82ED00E43E063EA44
:104600007EE08B899C890E94F81A182F0153833011
:1046100088F4063088F4823099F48B899C8904965A
:104620000E947D339FEF980F983008F099C08093D7
:10463000A80306C0063028F21EE093CCD12C10E06F
:10464000612F8091A7030E94E413D092A6031093D8
:10465000A70300CC8DE380832091A7038F859889E1
:10466000211103C06FE97EE035CD198A2091A603A0
:104670001F922F9327E93EE03F932F9301969F933C
:104680008F930E9446340F900F900F900F900F90D1
:104690000F908091A7038230A1F48091A8031F920C
:1046A0008F9384E99EE09F938F93CE0141969F93D1
:1046B0008F930E9446340F900F900F900F900F90A1
:1046C0000F902F853889295F3F4F4091A70363E002
:1046D00083EA9EE00E94A0188091A703823009F02F
:1046E000BECB8F859889BE016F5E7F4F0B960E946F
:1046F000C739B5CB0F851889D8018C918D3331F529
:10470000C80101960E947D33811104C01092E2021B
:10471000F801A4CB90918903913029F48093E202AF
:10472000D8011C929CCB8091880369E67EE080FFD3
:1047300002C069E37EE087EF92E00E94BC330E94F2
:10474000DD13082F27EF32E043E045CC8DE3F8017D
:1047500080838091E2021F928F9386E39EE0E4CCF7
:1047600014E1FFCB1F920F920FB60F9211242F93DB
:104770003F934F935F936F937F938F939F93AF93E9
:10478000BF93EF93FF9383EE93E00E943D0BFF9165
:10479000EF91BF91AF919F918F917F916F915F91B9
:1047A0004F913F912F910F900FBE0F901F90189532
:1047B0001F920F920FB60F9211242F938F939F93F6
:1047C000EF93FF93E091F303F091F4038081E09184
:1047D000F903F091FA0382FD1BC090818091FC03E4
:1047E0008F5F8F732091FD03821741F0E091FC03EE
:1047F000F0E0ED51FC4F958F8093FC03FF91EF911A
:104800009F918F912F910F900FBE0F901F90189531
:104810008081F4CF1F920F920FB60F9211242F9325
:104820003F938F939F93AF93BF9380910E0290918C
:104830000F02A0911002B091110230910D0223E0FD
:10484000230F2D3758F50196A11DB11D20930D02A0
:1048500080930E0290930F02A0931002B093110266
:104860008091120290911302A0911402B09115024E
:104870000196A11DB11D8093120290931302A09383
:104880001402B0931502BF91AF919F918F913F9108
:104890002F910F900FBE0F901F90189526E8230FB1
:1048A0000296A11DB11DD2CF1F920F920FB60F928B
:1048B00011242F933F934F935F936F937F938F9325
:1048C0009F93AF93BF93EF93FF938091B900887F3D
:1048D000803609F44AC0F0F5883209F4A7C018F50B
:1048E000803109F49BC0B8F4882309F4F9C08830FA
:1048F00009F494C0FF91EF91BF91AF919F918F9177
:104900007F916F915F914F913F912F910F900FBECB
:104910000F901F901895883109F488C0803251F7A4
:1049200080935A0314C0803409F49DC040F480334E
:10493000B9F38833F9F680935A0385ECB0C080351B
:1049400009F485C0883509F496C0883499F60E9428
:104950005D1AD0CF883909F48CC038F5883729F032
:1049600050F4883611F0803729F683E080935C0399
:1049700010920C0257C0883809F47BC0803919F0B6
:10498000803809F0B7CF80910C02803208F071C0F6
:10499000E0910C0281E08E0F80930C028091BB00AD
:1049A000F0E0E451FE4F80833DC0803B39F0E0F4FD
:1049B000803A09F479C0883A09F09CCF84E080936A
:1049C0005C031092EB011092EA01E0911802F09161
:1049D000190209958091EA0181110FC081E080934D
:1049E000EA011092CA0109C0803C09F4A6CF883CB4
:1049F00009F4A3CF883B09F07DCFE091EB0181E082
:104A00008E0F8093EB01F0E0E653FE4F80818093A0
:104A1000BB009091EB018091EA0129C0809157037E
:104A20008093BB0085EC8093BC0064CF90915903C8
:104A300080915803981758F5E091590381E08E0F43
:104A400080935903F0E0EA5CFC4F8081E9CFE0916C
:104A5000590381E08E0F809359038091BB00F0E0F1
:104A6000EA5CFC4F8083909159038091580398171A
:104A7000C8F285E8D8CFE091590381E08E0F80938A
:104A800059038091BB00F0E0EA5CFC4F8083809189
:104A90005B0381115CCF81E08093560384EA8093AD
:104AA000BC0010925C0326CF85EC8093BC00109272
:104AB0005C0380910C02803230F4E0910C02F0E053
:104AC000E451FE4F108260910C0270E0E0911602FA
:104AD000F09117028CEE91E0099510920C020ACF2A
:104AE00010925A0334CF1F920F920FB60F921124D7
:104AF0002F933F934F935F936F937F938F939F93E6
:104B0000AF93BF93CF93EF93FF9389B190916D00D3
:104B100089238093E1038091E0039091E103892749
:104B20008093DF038091E1038093E003C0E08091F4
:104B3000DE03C81760F4EC2FF0E0EE0FFF1FE85221
:104B4000FC4F0190F081E02D0995CF5FF0CFFF91F0
:104B5000EF91CF91BF91AF919F918F917F916F9185
:104B60005F914F913F912F910F900FBE0F901F902B
:104B700018951F920F920FB60F9211242F933F9307
:104B80004F935F936F937F938F939F93AF93BF9355
:104B9000CF93EF93FF9386B190916C00892380931C
:104BA000D7038091D6039091D70389278093D503AB
:104BB0008091D7038093D603C0E08091D403C817B7
:104BC00060F4EC2FF0E0EE0FFF1FE253FC4F01907A
:104BD000F081E02D0995CF5FF0CFFF91EF91CF915C
:104BE000BF91AF919F918F917F916F915F914F9105
:104BF0003F912F910F900FBE0F901F9018951F920D
:104C00000F920FB60F9211242F933F934F935F9300
:104C10006F937F938F939F93AF93BF93CF93EF93B4
:104C2000FF9383B190916B0089238093CD03809192
:104C3000CC039091CD0389278093CB038091CD0342
:104C40008093CC03C0E08091CA03C81760F4EC2FB6
:104C5000F0E0EE0FFF1FEC53FC4F0190F081E02DD0
:104C60000995CF5FF0CFFF91EF91CF91BF91AF91B9
:104C70009F918F917F916F915F914F913F912F9174
:104C80000F900FBE0F901F9018951F920F920FB6A6
:104C90000F9211242F933F934F935F938F939F9382
:104CA000EF93FF938091810086FF2FC08091860053
:104CB000909187002091CE043091CF04AC01421B2B
:104CC000530B9A019093CF048093CE04203757E181
:104CD000350798F12091CC042093CD041092CC0498
:104CE0002FEF2093B20423B1209521702093B304B9
:104CF0002091C10131E0211130E03093C101211137
:104D000011C09093D1048093D004FF91EF919F91B3
:104D10008F915F914F913F912F910F900FBE0F9008
:104D20001F9018952091D0043091D104821B930BD1
:104D30009093D3048093D204E8CF8091CC048C303C
:104D400020F7E091CC04F0E0EE0FFF1FEC54FB4F96
:104D5000318320838091CC048F5F8093CC04D5CFA6
:104D60001F920F920FB60F9211242F933F938F93A0
:104D70009F93EF93FF938091E004882381F08091CB
:104D8000DE048F5F8093DE049091DE048091DF0467
:104D9000891728F41092DE048FEF8093DC04809151
:104DA000DD04882311F019992CC08091DD04811154
:104DB00002C0199B26C08091DE0490E0880F991FE5
:104DC0002091DA043091DB04820F931FFC01808173
:104DD00091812091880030918900820F931F9093D8
:104DE00089008093880081E08093E004FF91EF9137
:104DF0009F918F913F912F910F900FBE0F901F9019
:104E0000189520918800309189008091D804909164
:104E1000D904880F991F820F931F90938900809364
:104E200088001092E004E2CFCF92DF92EF92FF92DF
:104E30000F931F93E82FF92F05C001501109210985
:104E4000310961F1908196239417B9F305C001509F
:104E500011092109310911F1908196239413F7CF9B
:104E6000C12CD12CE12CF12C0AC08FEFC81AD80A22
:104E7000E80AF80A0C151D052E053F0579F080811A
:104E80008623841791F36C2D7D2D8E2D9F2D1F91E0
:104E90000F91FF90EF90DF90CF90089560E070E069
:104EA00080E090E01F910F91FF90EF90DF90CF9006
:104EB00008950F931F93CF9390ED980F9A3038F485
:104EC000FB01908381E0CF911F910F9108958B0199
:104ED000C82F082E000C990B0E94B63981549109F5
:104EE000069720F4C753F801C083ECCF80E0EBCFE6
:104EF000CF93DF93E3EEF3E01382128288EE93E028
:104F0000A0E0B0E084839583A683B78323E331E0F8
:104F10003183208325EC30E03587248724EC30E092
:104F20003787268720EC30E0318B208B21EC30E076
:104F3000338B228B22EC30E0358B248B26EC30E057
:104F4000378B268B118E128E138E148EE0E8F4E0D0
:104F50001382128284839583A683B78385E491E0CC
:104F600091838083ECE8F4E087E591E0918380838E
:104F70001382E4EDF4E081E691E09183808317826F
:104F80001682108681E08187128614868BE691E076
:104F90009093B1048093B004C9E9D5E08FE791E024
:104FA00099838883EEE9F5E080818B7F808385E7B4
:104FB00091E09093980580939705E4E9F5E080816E
:104FC000ABE8B5E01296DC93CE9311979FED9C93DE
:104FD00018961C92189791812281207F2960228344
:104FE00080719C779260918380628F7E808314961B
:104FF0001C92149715961C92C0918905D0918A0530
:10500000BE0181EE94E00E948114BE018DEF94E018
:105010000E948114BE0189E195E00E948114BE01C5
:1050200085E395E00E948114BE0181E595E00E9430
:105030008114BE018DE695E0DF91CF910C9481142F
:10504000CF93DF93CDB7DEB768970FB6F894DEBF86
:105050000FBECDBF789484B5826084BD84B5816075
:1050600084BD85B5826085BD85B5816085BD809133
:105070006E00816080936E001092810080918100AB
:1050800082608093810080918100816080938100A3
:10509000809180008160809380008091B100846065
:1050A0008093B1008091B00081608093B0008091C6
:1050B0007A00846080937A0080917A008260809385
:1050C0007A0080917A00816080937A0080917A00E2
:1050D000806880937A001092C100E091F303F09110
:1050E000F40382E08083E091EF03F091F0031082FB
:1050F000E091F103F091F20380E180831092FB03D1
:10510000E091F703F091F80386E08083E091F503E6
:10511000F091F603808180618083E091F503F09146
:10512000F603808188608083E091F503F091F603B7
:10513000808180688083E091F503F091F60380819F
:105140008F7D80830DE011E0ADE1EA2EA1E0FA2E23
:1051500062E0D8018D918D010E946B0CE016F10682
:10516000B9F70E94ED150E942A1A80919203982F98
:105170009F779F37D1F590918803987F909388030C
:1051800091E09093890310928A0398E090938B03A7
:105190002CE231E030938D0320938C0324EE37E52D
:1051A00030938F0320938E033093910320939003C9
:1051B00080788E6080688093920310929303E8E871
:1051C000F3E080E095E022E09487258716868F5FE4
:1051D000863009F0E0C081E08093A6038093A703A6
:1051E00085E08093A8030E9406161091890311118F
:1051F0008CC00E9409130E94A70C4B015C01F4EFC4
:10520000CF2EDD24D394E12CF12C0E94A70C681939
:1052100079098A099B09683E734081059105A8F3C5
:10522000B1E0CB1AD108E108F108E8EE8E0EE3E018
:105230009E1EA11CB11CC114D104E104F10429F784
:105240008091B30480938A038091CD0480938B0373
:10525000F8949091B30481E0913009F080E00E94CD
:105260007B186115710541F49091B30481E0913090
:1052700009F080E00E947B18789470938D0360930E
:105280008C034091D2045091D3048091D204909128
:10529000D30448175907A9F75695479550938F039C
:1052A00040938E0380911C0290911D02892B09F47A
:1052B00075C09091CD0480918B03891710F4809173
:1052C000CD049B01682F80918A030E94C1149093A2
:1052D0002102809320026091CD0480E00E941F1B78
:1052E0008091CD0460918B03681710F46091CD0418
:1052F00081E00E941F1B0E942A1A6AED74E083EE6F
:1053000093E00E94AC0B0E943E140E9466156091CF
:10531000A70380E00E94E413109287031092860393
:1053200010926303109262030E94FF0C8DEB9AE0CF
:1053300090931902809318028EEB9AE090931702D3
:10534000809316020E94BB189E012F5F3F4F3E873D
:105350002D87CE010D96988B8F873CE4232E32E06B
:10536000332E1FEF83EE93E00E941D0B892B79F102
:1053700083EE93E00E94FB0A8A3029F19091E102CA
:105380008D30C9F0883009F0E3C0992359F391506A
:105390009093E102E7CF339690E016CF6AEE74E087
:1053A00083EE93E00E94AC0B0E943E141F5F14300A
:1053B00009F021CFAACFE92FF0E0ED51FD4F108287
:1053C000192F1092E10217FDCDCF0E94AF1C8091E2
:1053D0002C02811107C00E94CC0C60932B0281E04B
:1053E00080932C0280912302811107C00E94CC0C73
:1053F0006093220281E080932302809189038823B5
:1054000009F4B0C0823009F4ECC080918905909114
:105410008A05DC01ED91FC910190F081E02D66E0C0
:105420000995882309F472C10E94CC0C8091220254
:10543000681B623308F46AC10E94CC0C609322029C
:1054400086E0E6E0F1E0DE01179601900D928A9584
:10545000E1F786E0ED85FE8511928A95E9F7A8E8E7
:10546000EA2EA3E0FA2ED12CC12C9C2DD7011C963C
:105470008C911C978823C9F11E968C91FE0137965A
:10548000DF0110E000E0AF012D91281711F40C941A
:105490006A330F5F1F4F06301105B1F730E020E08F
:1054A00061916F3F09F0B1C001E010E00C0F1D1FCA
:1054B000020F131F61E070E001C0660F9A95EAF7D2
:1054C000F801B080B62AB082240F351FD9018C9321
:1054D0000E945014863049F4F7018585835082304C
:1054E00020F48B2D8068D8018C93BFEFCB1ADB0A98
:1054F000E3E0EE0EF11CF6E0CF16D10409F0B5CFD3
:105500006E0117E0C10ED11C9E012F5F3F4F790144
:1055100000E0D601BD906D01BFEFBB1609F4EDC0F0
:10552000912C10E08B2D0E945014A82EE6E0E81775
:1055300008F4E3C0E82F880FFF0BEF55F54D0C94EE
:10554000C7370C2B122C422C422C122C422CB92C7B
:10555000923308F007CFE92FF0E0ED51FD4F808343
:105560009F5F16CF8091B20490E0880F892F881F2B
:10557000990B892B09F449CF8091B2048F778093DE
:10558000B20411E08091CD04811708F43ECFE8E821
:10559000F3E08485181719F1339693E0EA39F90797
:1055A000C1F7111103C04EEE52E012C08091CD043C
:1055B0008117C8F3EFEFE10FF0E0EE0FFF1FEC549F
:1055C000FB4F808191814081518184179507C9F7F4
:1055D00056954795612F84ED94E00E9483131F5FD9
:1055E000D1CF80918F04282F30E0220F232F221F4C
:1055F000330B232B11F40C9457338F7780938F0444
:105600000E94CC0C60932B0200CF2F5F3F4F2630BF
:10561000310509F045CF69CFFCE0AF2EF1E0BF2E98
:1056200088248394D50111968C91BEE0B81538F08A
:105630000E94140C41E0892BE9F040E01BC08E3041
:1056400008F08E508770806480937C0080917A008F
:10565000806480937A0080917A0086FDFCCF9091DF
:1056600078008091790089279827892741E0811562
:1056700092401CF7C5018C509140412C512C3201B5
:10568000439404C0440C551C661C771C8A95D2F7C1
:10569000C201442309F49EC08929912B982E192F09
:1056A00083942FEFA21AB20A31E18312BBCFD70144
:1056B0004C9150E0282F392F682FA8E8B3E090E0F4
:1056C00080E0392523273227FA01082E02C0F595FC
:1056D000E7950A94E2F7E0FF0BC01D967C911D97B9
:1056E000713009F489C008F47AC0723009F48DC0B1
:1056F000019613968630910539F72FEFE21AF20AD8
:105700004F8458884C145D0409F003CF71EE672E66
:1057100074E0772EF12CE12CD3011E968C918F3101
:1057200009F4FDC2BCE1BE9DF001BF9DF00D112446
:10573000EA50FB4F808183FFF2C28701000F111FE7
:10574000000F111FD801A453BD4F9C9092946FE09D
:105750009622980127533D4F6901992009F4C6C14B
:1057600081608083892D90E0019695958795D3017E
:105770001F968C908816190609F00CF487C1882EA4
:10578000A82CB12CA501B601F301808991890E9452
:10579000BE39992D917090FE0CC0D3015096ED91B9
:1057A000FC91950121503109E20FF31F8081807F28
:1057B0008083F3012089318950E040E080E0481582
:1057C00008F066C1F901E40FF51F608186274F5F7D
:1057D0005F4FF5CF80959095892191235FCFFC0194
:1057E000EE0FFF1FEE0FFF1FE753FD4F6083738126
:1057F0007F70706273837CCFFC01EE0FFF1FEE0F92
:10580000FF1FE753FD4F1083F2CFFC01EE0FFF1F88
:10581000EE0FFF1FE753FD4F3183208373817F70AD
:105820007064E8CF8B2D0E94DD090E943E0D81112E
:105830000AC061E08B2D0E9437178130D1F70E949A
:10584000CA09982E9094F701408150E090E080E0E2
:105850009A01082E02C0359527950A94E2F720FF99
:105860000CC0FC01EE0FFF1FEE0FFF1FE753FD4FB3
:10587000908223812F7020622383019686309105C8
:1058800039F73BCF8B2D0E94DD090E943E0D81111F
:1058900029C08B2D0E94DD09F3E0AF1204C082E124
:1058A00090E00E94980E62E08B2D0E9437178230A4
:1058B000D1F70E94CA09B82E0E94CA09A82E0E94D8
:1058C0003E0D0E94CC0C643F71408105910550F063
:1058D000AE8A1D8A8D899E898B0D911D809590952C
:1058E000982E192FD7014C9150E0292D312F692D79
:1058F000A8E8B3E090E080E0392523273227FA01B9
:10590000082E02C0F595E7950A94E2F7E0FF08C07B
:105910001D967C911D977130B1F040F07230E1F02E
:10592000019613968630910551F7E7CEFC01EE0FF4
:10593000FF1FEE0FFF1FE753FD4F608373817F70E2
:1059400070627383EDCFFC01EE0FFF1FEE0FFF1FA0
:10595000E753FD4F1083F2CFFC01EE0FFF1FEE0F58
:10596000FF1FE753FD4F3183208373817F70706485
:10597000E8CF8B2D0E94DD0980E290E00E94980E16
:105980000E943E0DF7011081811120C023E0A22E5C
:1059900017FD02C092E0A92E6A2D8B2D0E943717A9
:1059A000A812FACF0E94CA09B82E0E94CA09B88E5E
:1059B0001F8A4F88588C480E511C92013F703C8BB7
:1059C0002B8B17FF03C00E94CA09082F212F30E03C
:1059D0004B895C8984E0569547958A95E1F75B8908
:1059E0005295507FE9ECF2E068E873E090E080E0E7
:1059F000D901082E02C0B595A7950A94E2F7A0FF39
:105A000022C0DB011D961C911330E8F0153018F10F
:105A10001530C9F44083A02FA295AF70A50FA183C4
:105A200010E1019FD0011124A283DC01AA0FBB1F4A
:105A3000AA0FBB1FA753BD4F13961C9113971F703E
:105A4000106313961C9301966D5F7F4F34968630DA
:105A5000910571F652CE133009F400954083A02FC2
:105A6000A295AF70A50FA18310E1019FD001112471
:105A7000A283DC01AA0FBB1FAA0FBB1FA753BD4FF8
:105A800013961C9113971F701065DBCF8A9478CE04
:105A9000992309F4E7C0F5013197E20FF31F982F1E
:105AA00092959F7025E029279081922B9083D301B6
:105AB00050962D913C91A20EB31EB0E18B9FC00178
:105AC000112490E58927F501808393949394F30141
:105AD000948A168A3CE1432E4E9CF0014F9CF00DB7
