:100000001CC036C035C034C033C00FC231C030C090
:100010002FC02EC02DC02CC02BC000C350C2010366
:10002000000004000000000038000101FD0202028F
:100030000202020102040810200011241FBECFE5B5
:10004000D2E0DEBFCDBF10E0A0E6B0E0E4ECFDE022
:1000500002C005900D92A436B107D9F720E0A4E6BE
:10006000B0E001C01D92A43CB207E1F7F4D2A8C6EB
:10007000C7CFCF93DF93EAE2F0E0E491E130B9F447
:10008000282FC09163006C2F70E090E080E030E09A
:1000900050E040E019D62FEF30E040E050E02DD6A0
:1000A000D0E02C173D0708F4E901C093C300DF91AD
:1000B000CF910895909193009295990F990F907C0C
:1000C0008F77982B97B997B180919300880F880FFD
:1000D0008071892B87B9369A3699FECF84B195B154
:1000E00008953FB7F89480918C0090918D00A09175
:1000F0008E00B0918F0022B708B601FE05C02F3FD9
:1001000019F00196A11DB11D3FBFBA2FA92F982F3D
:100110008827BC01CD01620F711D811D911D42E038
:10012000660F771F881F991F4A95D1F70895CF92C0
:10013000DF92EF92FF92CF93DF936B017C01D1DFCF
:10014000EB01CFDF6C1B7D0B683E7340A0F0C11448
:10015000D104E104F10439F4DF91CF91FF90EF90E5
:10016000DF90CF90089581E0C81AD108E108F10826
:10017000C851DC4FE6CFC114D104E104F10409F702
:10018000EBCF2FB7F894609188007091890080912F
:100190008A0090918B002FBF0895909197008091D5
:1001A0009800981791F09091970080919800981777
:1001B00038F48091970090919800805F891B089592
:1001C0008091970090919800F9CF80E00895CF93A7
:1001D000DF93C0919A00D0919B00209749F0759BC6
:1001E00007C0DBDF882321F0FE01DF91CF91099466
:1001F000DF91CF9108959091970080919800981782
:10020000D1F3809198008F5F8F7080939800E09178
:100210009800F0E0EB59FF4F8081089580919100A4
:100220008095909192008927809361009091910030
:1002300088B3892B88BB9091610088B3892388BBE0
:10024000809160008F5F80936000909163008913BC
:100250000AC0109260008091C3008093900080914A
:10026000920080939100909190008091600098138B
:1002700008C0ECE2F0E0E49180919100E823E09383
:1002800091000895FF920F931F93CF93DF93082F50
:1002900020E1F22E813011F494E0F92E10E0D0E04C
:1002A000C0E082E807DFC80FD91F91DF80916200AC
:1002B000811101C0B3DF1F5FF112F3CF023021F4CF
:1002C000D695C795D695C795CE01DF91CF911F9151
:1002D0000F91FF900895EF92FF920F931F93CF938A
:1002E000CFEFC80FC03150F586DF80936400809156
:1002F0006400803228F08091640080528093640012
:1003000080916400833010F010926400CC23B1F02F
:1003100083E0E82EF12CC15088F08091640090E0D9
:10032000B7013AD58C0167DFF801E555FF4F8083AF
:10033000809164008F5F80936400EDCFCF911F9117
:100340000F91FF90EF9008958091640081110CC08F
:100350008091AF009091B0009093AB008091AF007E
:100360009091B0008093AC00E0916400F0E0E5551E
:10037000FF4F9081809195008F5F8F702091960044
:100380008217E1F3E82FF0E0EB58FF4F9083809362
:1003900095008091640090E0019663E070E0FCD4E9
:1003A00080936400089586B3817090E0089590E092
:1003B000FC01E25EFF4F3491FC01ED5CFF4F2491A4
:1003C000FC01E35DFF4FE491EE23B9F0332329F004
:1003D0003130A1F48AB58F778ABDF0E0EE0FFF1FB0
:1003E000EC5DFF4FA591B4918FB7611118C0F894DF
:1003F000EC9120952E232C938FBF0895323019F461
:100400008AB58F7DE9CF333021F480B78F7D80BFEF
:10041000E4CF343011F78CB58F7D8CBDDECFF894EE
:10042000EC912E2BE8CF42C439C41F920F920FB625
:100430000F9211242F933F938F939F93AF93BF936A
:100440008091880090918900A0918A00B0918B00E2
:100450003091870023E0230F2D3768F126E8230F22
:100460000296A11DB11D2093870080938800909370
:100470008900A0938A00B0938B0080918C009091AA
:100480008D00A0918E00B0918F000196A11DB11D2D
:1004900080938C0090938D00A0938E00B0938F007A
:1004A000BF91AF919F918F913F912F910F900FBE70
:1004B0000F901F9018950196A11DB11DD4CF1F92CA
:1004C0000F920FB60F9211242F933F934F935F9388
:1004D0006F937F938F939F93AF93BF93CF93DF934C
:1004E000EF93FF9380918500909186008230910573
:1004F00009F482C0C0F4009769F1019709F444C07F
:10050000FF91EF91DF91CF91BF91AF919F918F912B
:100510007F916F915F914F913F912F910F900FBEFF
:100520000F901F9018958430910509F46FC030F139
:10053000059731F7809197008F5F8F7080939700B8
:10054000E09197008FB1F0E0EB59FF4F808384E09A
:1005500090E00DC08FB1882331F08FB186959091D6
:10056000990089130EC0789BF2CF81E090E09093C0
:100570008600809385001FB8B89A46C08FB1882343
:1005800019F088EA8DB930C0C0919A00D0919B00D3
:10059000209749F09091970080919800981719F052
:1005A000FCDDFE010995E0919C00F0919D003097E3
:1005B00009F0099590919500809196009817B9F0EF
:1005C000809196008F5F8F7080939600E0919600E7
:1005D000F0E0EB58FF4F80818FB982E090E090937C
:1005E000860080938500B89A80E78EB989CFB89845
:1005F0001FB88EE78EB9C5CF83E090E09093860058
:1006000080938500B8981FB88EE7EFCF85E090E023
:100610009093860080938500B898E6CF1F920F9242
:100620000FB60F9211248F931092860010928500BE
:10063000B898B29B02C0B09BFCCFB0990AC088EFBB
:100640008DB980EF8EB98F910F900FBE0F901F90D4
:10065000189588EAF5CFCF93DF9300D000D01F9292
:10066000CDB7DEB783E08ABD83BF789489B7826057
:1006700089BF80E48CBD9FEF9DBD87EC80BF87E87C
:1006800086B92FB7F894B99A8091920082608093CE
:1006900092009093630080939100109290001092CA
:1006A000C3002FBF8FB7F894B898C0988FBF61E090
:1006B00080E07DDE8FB7F894B99A8FBF60E081E06B
:1006C00076DE109293005DDD6B017C015ADD4B01FB
:1006D0005C0100E021E02B8314E0809194003B81D9
:1006E000332309F468C1823009F4A2C098F5882345
:1006F00009F45DC08130B9F756DE892B09F08AC054
:1007000040DDDC01CB018C199D09AE09BF092C012C
:100710003D01E8EE4E1AE3E05E0A61087108F1ED72
:100720004F16F7E05F066104710408F058C080912D
:100730009400823059F061E081E039DE6EE170E0D2
:1007400080E090E0F4DC60E081E031DE22E02093A4
:100750009400D2CF833009F40CC1843021F681E0BB
:1007600090E062DE898382E090E05EDE9981292F4D
:1007700030E0322F2227820F932F911D9093B400E7
:100780008093B30083E090E04FDE898384E090E0C3
:100790004BDEE9812E2F30E0322F2227820F932F5C
:1007A000911D9093B6008093B5001B8296CF6AE0AE
:1007B00070E080E090E0BBDC90E080E035DE8F3FD1
:1007C00021F4602F90E080E02EDEEDDD892B69F5CD
:1007D000D8DC6B017C0181E0809394007ECF803A6D
:1007E0009F40A105B10598F080919400833059F0A5
:1007F00061E081E0DCDD6EE170E080E090E097DCBC
:1008000060E081E0D4DD83E08093940075CF1093A5
:10081000940072CF6EE170E080E090E088DC80911F
:1008200094008250833008F458CF1093940055CF31
:10083000A8DC6B017C01EFEFFFE0F093B400E093E4
:10084000B3001092B6001092B50081E01BDD9D83CD
:100850008C838091B3009091B4002C813D81281746
:10086000390720F43093B4002093B3008091B50091
:100870009091B600EC81FD818E179F0720F4F093D4
:10088000B600E093B5002091B3003091B4003A83F4
:1008900029832090B5003090B60022153305C8F5A5
:1008A00070DC681979098A099B096436710581052C
:1008B000910570F166DC4B015C0189819A812C0104
:1008C000712C612CEC81FD81BF0190E080E0641906
:1008D0007509860997092FEF3FE040E050E0F4D119
:1008E000910150E040E0241935094609570905D225
:1008F0002115F0E13F0710F02FEF3FE0B901A4E030
:1009000076956795AA95E1F7CB0135D2892FB1DBB2
:1009100085DC37DC6C197D098E099F09603E7E42BB
:100920008105910508F491CF60E081E040DD898187
:100930009A8101969093B4008093B3009101215065
:1009400031093093B6002093B500692F81E090E023
:100950006ADD6091B30082E090E065DD6091B600F1
:1009600083E090E060DD6091B50084E090E05BDDC5
:100970005CCF07DC6B017C0116DD892B71F462E32F
:1009800070E080E090E0D3DB0EDD892BE9F362E3D9
:1009900070E080E090E0CBDB0F5FF3DB6C197D094A
:1009A0008E099F09603E7E428105910528F3602FE4
:1009B00090E080E0DCCF90E080E036DD109298009F
:1009C000109297001092960010929500845F809389
:1009D000990087B3856087BBC29AC09AB89888EAA5
:1009E0008DB980EF8EB98BE691E090939B00809358
:1009F0009A0084EA91E090939D0080939C0011E01E
:100A000004E046E0B42E53E0A52E65E0962E72E099
:100A1000872E8091A300811107C090E080E004DD63
:100A20008093A2001093A30080916200833009F4A8
:100A3000EBC008F093C0813009F4AEC0823009F4F5
:100A4000BAC0C5DB8091BB0081110BC09ADB6093FB
:100A5000B7007093B8008093B9009093BA001093D8
:100A6000BB0082E00FDCC090B300D090B4008C15C6
:100A70009D0508F4C601E091B500F091B600FA8337
:100A8000E983F12CE12CE817F90708F4CF01B0E075
:100A9000A0E0BC01CD016C197D098E099F092FEFE3
:100AA0003FE040E050E010D1E981FA819F0150E041
:100AB00040E02C193D094E095F091FD13A83298373
:100AC0002115304120F02FEF3FE03A8329838981BF
:100AD0009A819093B2008093B10053DBC090B7002D
:100AE000D090B800E090B900F090BA006C197D0980
:100AF0008E099F096A3F710581059105A0F041DBD0
:100B00006093B7007093B8008093B9009093BA00D7
:100B100069817A8134E0769567953A95E1F7CB0162
:100B20002AD1892FA6DAF8948091B1009091B20071
:100B30009093B0008093AF00789483E8BBDA83E8A9
:100B4000B9DA95958795959587958093AE0082E85B
:100B5000B1DA8091AE008093AD005BCF853009F4AF
:100B600078C008F467C0863009F06BCF0ADBC0900C
:100B70009E00D0909F00E090A000F090A1006C1922
:100B80007D098E099F09603D77408105910508F434
:100B900058CF1092620055CF61E081E008DCF1DAB5
:100BA00060939E0070939F008093A0009093A1009B
:100BB0008092620046CFE5DAC0909E00D0909F0000
:100BC000E090A000F090A1006C197D098E099F09AA
:100BD0006E3171058105910508F433CF60E081E045
:100BE000E6DBCFDA60939E0070939F008093A000B5
:100BF0009093A1008091A200882319F0A092620036
:100C000020CFB09262001DCFBCDAC0909E00D09081
:100C10009F00E090A000F090A1006C197D098E0962
:100C20009F09683E73408105910508F40ACF00933F
:100C3000620007CF61E081E0BADBA3DA60939E0037
:100C400070939F008093A0009093A1009092620007
:100C5000F8CE97DAC0909E00D0909F00E090A00060
:100C6000F090A1006C197D098E099F09643F7140C5
:100C70008105910508F4E5CE60E081E098DB81DA3A
:100C800060939E0070939F008093A0009093A100BA
:100C90008091A20081508093A200AECFE199FECF57
:100CA0009FBB8EBBE09A99278DB30895262FE199BB
:100CB000FECF1CBA9FBB8EBB2DBB0FB6F894E29A39
:100CC000E19A0FBE01960895EE27FF27AA27BB27BA
:100CD00008C0A20FB31FE41FF51F220F331F441FCC
:100CE000551F969587957795679598F37040A9F766
:100CF000009799F7BD01CF010895052E97FB16F4D3
:100D000000940FD057FD05D014D007FC02D046F454
:100D100008C050954095309521953F4F4F4F5F4FFC
:100D2000089590958095709561957F4F8F4F9F4F57
:100D30000895A1E21A2EAA1BBB1BFD010DC0AA1F1C
:100D4000BB1FEE1FFF1FA217B307E407F50720F034
:100D5000A21BB30BE40BF50B661F771F881F991FAF
:100D60001A9469F760957095809590959B01AC01F8
:100D7000BD01CF0108950024552704C0080E591F56
:100D8000880F991F009729F076956795B8F371053C
:100D9000B9F7802D952F0895AA1BBB1B51E107C001
:100DA000AA1FBB1FA617B70710F0A61BB70B881FFB
:100DB000991F5A95A9F780959095BC01CD0108958A
:040DC000F894FFCFD5
:040DC400FFFF01FF2D
:00000001FF
